{
  "contractName": "CertificatePrint",
  "abi": [
    {
      "constant": true,
      "inputs": [
        {
          "name": "addr",
          "type": "address"
        },
        {
          "name": "roleName",
          "type": "bytes32"
        }
      ],
      "name": "checkRole",
      "outputs": [],
      "payable": false,
      "stateMutability": "view",
      "type": "function"
    },
    {
      "constant": false,
      "inputs": [
        {
          "name": "addr",
          "type": "address"
        },
        {
          "name": "roleName",
          "type": "bytes32"
        }
      ],
      "name": "adminAddRole",
      "outputs": [],
      "payable": false,
      "stateMutability": "nonpayable",
      "type": "function"
    },
    {
      "constant": false,
      "inputs": [
        {
          "name": "_institutionHash",
          "type": "bytes32"
        }
      ],
      "name": "invalidateInstitution",
      "outputs": [],
      "payable": false,
      "stateMutability": "nonpayable",
      "type": "function"
    },
    {
      "constant": false,
      "inputs": [
        {
          "name": "_name",
          "type": "string"
        },
        {
          "name": "_code",
          "type": "string"
        }
      ],
      "name": "addInstitution",
      "outputs": [
        {
          "name": "institutionHash",
          "type": "bytes32"
        }
      ],
      "payable": false,
      "stateMutability": "nonpayable",
      "type": "function"
    },
    {
      "constant": true,
      "inputs": [
        {
          "name": "",
          "type": "bytes32"
        }
      ],
      "name": "certificates",
      "outputs": [
        {
          "name": "name",
          "type": "string"
        },
        {
          "name": "email",
          "type": "string"
        },
        {
          "name": "institution",
          "type": "bytes32"
        },
        {
          "name": "course",
          "type": "string"
        },
        {
          "name": "dates",
          "type": "string"
        },
        {
          "name": "courseHours",
          "type": "uint16"
        },
        {
          "name": "valid",
          "type": "bool"
        },
        {
          "name": "instructorName",
          "type": "string"
        },
        {
          "name": "instructorAddress",
          "type": "address"
        }
      ],
      "payable": false,
      "stateMutability": "view",
      "type": "function"
    },
    {
      "constant": true,
      "inputs": [
        {
          "name": "",
          "type": "bytes32"
        }
      ],
      "name": "institutions",
      "outputs": [
        {
          "name": "code",
          "type": "string"
        },
        {
          "name": "name",
          "type": "string"
        },
        {
          "name": "validFrom",
          "type": "uint256"
        },
        {
          "name": "validTo",
          "type": "uint256"
        },
        {
          "name": "valid",
          "type": "bool"
        }
      ],
      "payable": false,
      "stateMutability": "view",
      "type": "function"
    },
    {
      "constant": true,
      "inputs": [
        {
          "name": "addr",
          "type": "address"
        },
        {
          "name": "roleName",
          "type": "bytes32"
        }
      ],
      "name": "hasRole",
      "outputs": [
        {
          "name": "",
          "type": "bool"
        }
      ],
      "payable": false,
      "stateMutability": "view",
      "type": "function"
    },
    {
      "constant": false,
      "inputs": [
        {
          "name": "_issuerAddress",
          "type": "address"
        },
        {
          "name": "_institution",
          "type": "bytes32"
        }
      ],
      "name": "revokeIssuer",
      "outputs": [],
      "payable": false,
      "stateMutability": "nonpayable",
      "type": "function"
    },
    {
      "constant": false,
      "inputs": [
        {
          "name": "addr",
          "type": "address"
        },
        {
          "name": "roleName",
          "type": "bytes32"
        }
      ],
      "name": "adminRemoveRole",
      "outputs": [],
      "payable": false,
      "stateMutability": "nonpayable",
      "type": "function"
    },
    {
      "constant": true,
      "inputs": [],
      "name": "ROLE_ADMIN",
      "outputs": [
        {
          "name": "",
          "type": "bytes32"
        }
      ],
      "payable": false,
      "stateMutability": "view",
      "type": "function"
    },
    {
      "constant": false,
      "inputs": [
        {
          "name": "_issuerAddress",
          "type": "address"
        },
        {
          "name": "_institution",
          "type": "bytes32"
        }
      ],
      "name": "addIssuer",
      "outputs": [],
      "payable": false,
      "stateMutability": "nonpayable",
      "type": "function"
    },
    {
      "anonymous": false,
      "inputs": [
        {
          "indexed": false,
          "name": "contractAddress",
          "type": "bytes32"
        },
        {
          "indexed": false,
          "name": "_name",
          "type": "string"
        },
        {
          "indexed": false,
          "name": "email",
          "type": "string"
        },
        {
          "indexed": false,
          "name": "_institution",
          "type": "bytes32"
        },
        {
          "indexed": false,
          "name": "_course",
          "type": "string"
        },
        {
          "indexed": false,
          "name": "_dates",
          "type": "string"
        },
        {
          "indexed": false,
          "name": "_hours",
          "type": "uint16"
        }
      ],
      "name": "logPrintedCertificate",
      "type": "event"
    },
    {
      "anonymous": false,
      "inputs": [
        {
          "indexed": false,
          "name": "_address",
          "type": "address"
        },
        {
          "indexed": false,
          "name": "institution",
          "type": "bytes32"
        },
        {
          "indexed": false,
          "name": "timestamp",
          "type": "uint256"
        }
      ],
      "name": "logNewInssuer",
      "type": "event"
    },
    {
      "anonymous": false,
      "inputs": [
        {
          "indexed": false,
          "name": "hash",
          "type": "bytes32"
        },
        {
          "indexed": false,
          "name": "name",
          "type": "string"
        },
        {
          "indexed": false,
          "name": "timestamp",
          "type": "uint256"
        }
      ],
      "name": "logNewInstitution",
      "type": "event"
    },
    {
      "anonymous": false,
      "inputs": [
        {
          "indexed": false,
          "name": "addr",
          "type": "address"
        },
        {
          "indexed": false,
          "name": "roleName",
          "type": "bytes32"
        }
      ],
      "name": "RoleAdded",
      "type": "event"
    },
    {
      "anonymous": false,
      "inputs": [
        {
          "indexed": false,
          "name": "addr",
          "type": "address"
        },
        {
          "indexed": false,
          "name": "roleName",
          "type": "bytes32"
        }
      ],
      "name": "RoleRemoved",
      "type": "event"
    },
    {
      "constant": false,
      "inputs": [
        {
          "name": "_name",
          "type": "string"
        },
        {
          "name": "_email",
          "type": "string"
        },
        {
          "name": "_institution",
          "type": "bytes32"
        },
        {
          "name": "_course",
          "type": "string"
        },
        {
          "name": "_dates",
          "type": "string"
        },
        {
          "name": "_hours",
          "type": "uint16"
        },
        {
          "name": "instructorName",
          "type": "string"
        }
      ],
      "name": "printCertificate",
      "outputs": [
        {
          "name": "certificateAddress",
          "type": "bytes32"
        }
      ],
      "payable": false,
      "stateMutability": "nonpayable",
      "type": "function"
    },
    {
      "constant": false,
      "inputs": [
        {
          "name": "_certificateAddress",
          "type": "bytes32"
        }
      ],
      "name": "invalidateCertificate",
      "outputs": [],
      "payable": false,
      "stateMutability": "nonpayable",
      "type": "function"
    }
  ],
  "bytecode": "0x60606040526100713330604051808273ffffffffffffffffffffffffffffffffffffffff1673ffffffffffffffffffffffffffffffffffffffff166c010000000000000000000000000281526014019150506040518091039020610076640100000000026114a0176401000000009004565b610184565b6100af8260008084600019166000191681526020019081526020016000206101266401000000000261163f179091906401000000009004565b7faa695d83684b95e18fda4eda7e1794787e74fbc90097a9582f5c41989687883e8282604051808373ffffffffffffffffffffffffffffffffffffffff1673ffffffffffffffffffffffffffffffffffffffff16815260200182600019166000191681526020019250505060405180910390a15050565b60018260000160008373ffffffffffffffffffffffffffffffffffffffff1673ffffffffffffffffffffffffffffffffffffffff16815260200190815260200160002060006101000a81548160ff0219169083151502179055505050565b6117cc806101936000396000f3006060604052600436106100c5576000357c0100000000000000000000000000000000000000000000000000000000900463ffffffff1680632ae8a7e3146100ca57806331549d7a1461011057806352b7c9e21461015657806369b10633146102f55780636baa657c1461031c578063742f0688146103d8578063803587ae14610715578063958297381461073c578063ac4ab3fb1461089b578063b126c445146108f9578063c69b03a21461093f578063d391014b14610985578063e36f1dc2146109b6575b600080fd5b34156100d557600080fd5b61010e600480803573ffffffffffffffffffffffffffffffffffffffff16906020019091908035600019169060200190919050506109fc565b005b341561011b57600080fd5b610154600480803573ffffffffffffffffffffffffffffffffffffffff1690602001909190803560001916906020019091905050610a2c565b005b341561016157600080fd5b6102d7600480803590602001908201803590602001908080601f0160208091040260200160405190810160405280939291908181526020018383808284378201915050505050509190803590602001908201803590602001908080601f016020809104026020016040519081016040528093929190818152602001838380828437820191505050505050919080356000191690602001909190803590602001908201803590602001908080601f0160208091040260200160405190810160405280939291908181526020018383808284378201915050505050509190803590602001908201803590602001908080601f0160208091040260200160405190810160405280939291908181526020018383808284378201915050505050509190803561ffff1690602001909190803590602001908201803590602001908080601f01602080910402602001604051908101604052809392919081815260200183838082843782019150505050505091905050610a94565b60405180826000191660001916815260200191505060405180910390f35b341561030057600080fd5b61031a600480803560001916906020019091905050610e9c565b005b341561032757600080fd5b6103ba600480803590602001908201803590602001908080601f0160208091040260200160405190810160405280939291908181526020018383808284378201915050505050509190803590602001908201803590602001908080601f01602080910402602001604051908101604052809392919081815260200183838082843782019150505050505091905050610f53565b60405180826000191660001916815260200191505060405180910390f35b34156103e357600080fd5b6103fd600480803560001916906020019091905050611156565b6040518080602001806020018a6000191660001916815260200180602001806020018961ffff1661ffff16815260200188151515158152602001806020018773ffffffffffffffffffffffffffffffffffffffff1673ffffffffffffffffffffffffffffffffffffffff16815260200186810386528f8181546001816001161561010002031660029004815260200191508054600181600116156101000203166002900480156104ee5780601f106104c3576101008083540402835291602001916104ee565b820191906000526020600020905b8154815290600101906020018083116104d157829003601f168201915b505086810385528e8181546001816001161561010002031660029004815260200191508054600181600116156101000203166002900480156105715780601f1061054657610100808354040283529160200191610571565b820191906000526020600020905b81548152906001019060200180831161055457829003601f168201915b505086810384528c8181546001816001161561010002031660029004815260200191508054600181600116156101000203166002900480156105f45780601f106105c9576101008083540402835291602001916105f4565b820191906000526020600020905b8154815290600101906020018083116105d757829003601f168201915b505086810383528b8181546001816001161561010002031660029004815260200191508054600181600116156101000203166002900480156106775780601f1061064c57610100808354040283529160200191610677565b820191906000526020600020905b81548152906001019060200180831161065a57829003601f168201915b50508681038252888181546001816001161561010002031660029004815260200191508054600181600116156101000203166002900480156106fa5780601f106106cf576101008083540402835291602001916106fa565b820191906000526020600020905b8154815290600101906020018083116106dd57829003601f168201915b50509e50505050505050505050505050505060405180910390f35b341561072057600080fd5b61073a6004808035600019169060200190919050506111da565b005b341561074757600080fd5b610761600480803560001916906020019091905050611244565b604051808060200180602001868152602001858152602001841515151581526020018381038352888181546001816001161561010002031660029004815260200191508054600181600116156101000203166002900480156108045780601f106107d957610100808354040283529160200191610804565b820191906000526020600020905b8154815290600101906020018083116107e757829003601f168201915b50508381038252878181546001816001161561010002031660029004815260200191508054600181600116156101000203166002900480156108875780601f1061085c57610100808354040283529160200191610887565b820191906000526020600020905b81548152906001019060200180831161086a57829003601f168201915b505097505050505050505060405180910390f35b34156108a657600080fd5b6108df600480803573ffffffffffffffffffffffffffffffffffffffff1690602001909190803560001916906020019091905050611285565b604051808215151515815260200191505060405180910390f35b341561090457600080fd5b61093d600480803573ffffffffffffffffffffffffffffffffffffffff16906020019091908035600019169060200190919050506112bb565b005b341561094a57600080fd5b610983600480803573ffffffffffffffffffffffffffffffffffffffff1690602001909190803560001916906020019091905050611323565b005b341561099057600080fd5b61099861138b565b60405180826000191660001916815260200191505060405180910390f35b34156109c157600080fd5b6109fa600480803573ffffffffffffffffffffffffffffffffffffffff16906020019091908035600019169060200190919050506113df565b005b610a2882600080846000191660001916815260200190815260200160002061148790919063ffffffff16565b5050565b610a863330604051808273ffffffffffffffffffffffffffffffffffffffff1673ffffffffffffffffffffffffffffffffffffffff166c0100000000000000000000000002815260140191505060405180910390206109fc565b610a9082826114a0565b5050565b600085610aa133826109fc565b434260003660405180858152602001848152602001838380828437820191505094505050505060405180910390209150610120604051908101604052808a8152602001898152602001886000191681526020018781526020018681526020018561ffff1681526020016001151581526020018481526020013373ffffffffffffffffffffffffffffffffffffffff168152506002600084600019166000191681526020019081526020016000206000820151816000019080519060200190610b6a9291906116fb565b506020820151816001019080519060200190610b879291906116fb565b50604082015181600201906000191690556060820151816003019080519060200190610bb49291906116fb565b506080820151816004019080519060200190610bd19291906116fb565b5060a08201518160050160006101000a81548161ffff021916908361ffff16021790555060c08201518160050160026101000a81548160ff02191690831515021790555060e0820151816006019080519060200190610c319291906116fb565b506101008201518160070160006101000a81548173ffffffffffffffffffffffffffffffffffffffff021916908373ffffffffffffffffffffffffffffffffffffffff1602179055509050507f27642b2931a34382ccc004dba491fac25d7507234d088dffe445d5d8454266e3828a8a8a8a8a8a6040518088600019166000191681526020018060200180602001876000191660001916815260200180602001806020018661ffff1661ffff16815260200185810385528b818151815260200191508051906020019080838360005b83811015610d1b578082015181840152602081019050610d00565b50505050905090810190601f168015610d485780820380516001836020036101000a031916815260200191505b5085810384528a818151815260200191508051906020019080838360005b83811015610d81578082015181840152602081019050610d66565b50505050905090810190601f168015610dae5780820380516001836020036101000a031916815260200191505b50858103835288818151815260200191508051906020019080838360005b83811015610de7578082015181840152602081019050610dcc565b50505050905090810190601f168015610e145780820380516001836020036101000a031916815260200191505b50858103825287818151815260200191508051906020019080838360005b83811015610e4d578082015181840152602081019050610e32565b50505050905090810190601f168015610e7a5780820380516001836020036101000a031916815260200191505b509b50505050505050505050505060405180910390a150979650505050505050565b610ef63330604051808273ffffffffffffffffffffffffffffffffffffffff1673ffffffffffffffffffffffffffffffffffffffff166c0100000000000000000000000002815260140191505060405180910390206109fc565b600060016000836000191660001916815260200190815260200160002060040160006101000a81548160ff021916908315150217905550426001600083600019166000191681526020019081526020016000206003018190555050565b6000610faf3330604051808273ffffffffffffffffffffffffffffffffffffffff1673ffffffffffffffffffffffffffffffffffffffff166c0100000000000000000000000002815260140191505060405180910390206109fc565b43426000366040518085815260200184815260200183838082843782019150509450505050506040518091039020905060a0604051908101604052808381526020018481526020014281526020016301e13380420181526020016001151581525060016000836000191660001916815260200190815260200160002060008201518160000190805190602001906110479291906116fb565b5060208201518160010190805190602001906110649291906116fb565b50604082015181600201556060820151816003015560808201518160040160006101000a81548160ff0219169083151502179055509050507f232dd1a7a5f228343d34f4399fecf110aaba37abbf6ee49bbc5c4889136bb33b81844260405180846000191660001916815260200180602001838152602001828103825284818151815260200191508051906020019080838360005b838110156111145780820151818401526020810190506110f9565b50505050905090810190601f1680156111415780820380516001836020036101000a031916815260200191505b5094505050505060405180910390a192915050565b600260205280600052604060002060009150905080600001908060010190806002015490806003019080600401908060050160009054906101000a900461ffff16908060050160029054906101000a900460ff169080600601908060070160009054906101000a900473ffffffffffffffffffffffffffffffffffffffff16905089565b80600060026000836000191660001916815260200190815260200160002060020154905061120833826109fc565b600060026000856000191660001916815260200190815260200160002060050160026101000a81548160ff021916908315150217905550505050565b6001602052806000526040600020600091509050806000019080600101908060020154908060030154908060040160009054906101000a900460ff16905085565b60006112b383600080856000191660001916815260200190815260200160002061154390919063ffffffff16565b905092915050565b6113153330604051808273ffffffffffffffffffffffffffffffffffffffff1673ffffffffffffffffffffffffffffffffffffffff166c0100000000000000000000000002815260140191505060405180910390206109fc565b61131f828261159c565b5050565b61137d3330604051808273ffffffffffffffffffffffffffffffffffffffff1673ffffffffffffffffffffffffffffffffffffffff166c0100000000000000000000000002815260140191505060405180910390206109fc565b611387828261159c565b5050565b30604051808273ffffffffffffffffffffffffffffffffffffffff1673ffffffffffffffffffffffffffffffffffffffff166c01000000000000000000000000028152601401915050604051809103902081565b6114393330604051808273ffffffffffffffffffffffffffffffffffffffff1673ffffffffffffffffffffffffffffffffffffffff166c0100000000000000000000000002815260140191505060405180910390206109fc565b6001806000836000191660001916815260200190815260200160002060040160006101000a81548160ff0219169083151502179055151561147957600080fd5b61148382826114a0565b5050565b6114918282611543565b151561149c57600080fd5b5050565b6114cc82600080846000191660001916815260200190815260200160002061163f90919063ffffffff16565b7faa695d83684b95e18fda4eda7e1794787e74fbc90097a9582f5c41989687883e8282604051808373ffffffffffffffffffffffffffffffffffffffff1673ffffffffffffffffffffffffffffffffffffffff16815260200182600019166000191681526020019250505060405180910390a15050565b60008260000160008373ffffffffffffffffffffffffffffffffffffffff1673ffffffffffffffffffffffffffffffffffffffff16815260200190815260200160002060009054906101000a900460ff16905092915050565b6115c882600080846000191660001916815260200190815260200160002061169d90919063ffffffff16565b7f47808f9766351846ab3f47ddfd0cfc00fd1a4831674f2c872826932b0184d0be8282604051808373ffffffffffffffffffffffffffffffffffffffff1673ffffffffffffffffffffffffffffffffffffffff16815260200182600019166000191681526020019250505060405180910390a15050565b60018260000160008373ffffffffffffffffffffffffffffffffffffffff1673ffffffffffffffffffffffffffffffffffffffff16815260200190815260200160002060006101000a81548160ff0219169083151502179055505050565b60008260000160008373ffffffffffffffffffffffffffffffffffffffff1673ffffffffffffffffffffffffffffffffffffffff16815260200190815260200160002060006101000a81548160ff0219169083151502179055505050565b828054600181600116156101000203166002900490600052602060002090601f016020900481019282601f1061173c57805160ff191683800117855561176a565b8280016001018555821561176a579182015b8281111561176957825182559160200191906001019061174e565b5b509050611777919061177b565b5090565b61179d91905b80821115611799576000816000905550600101611781565b5090565b905600a165627a7a72305820690ec10dea2c21c46d84f2abd4c12dce1b95071cf7f032500ee17d9ad95efce40029",
  "source": "pragma solidity 0.4.19;\n\nimport \"./Issuers.sol\";\n\n/// @title Contract CertificatePrint, prints the certificates\ncontract CertificatePrint is Issuers {\n\n    // @dev Certificate data struct\n    struct Certificate {\n        string name;\n        string email;\n        bytes32 institution;\n        string course;\n        string dates;\n        uint16 courseHours;\n        bool valid;\n        string instructorName;\n        address instructorAddress;\n    }\n\n    // @dev Certificate data mapping for storage\n    mapping (bytes32 => Certificate) public certificates;\n\n    // @dev Event fired for every new certificate, to be checked to get all certificates\n    event logPrintedCertificate(bytes32 contractAddress, string _name, string email, bytes32 _institution, string _course, string _dates, uint16 _hours);\n\n    function printCertificate (string _name, string _email, bytes32 _institution, string _course, string _dates, uint16 _hours, string instructorName) public onlyInstitution(_institution) returns (bytes32 certificateAddress) {\n\n        // creates certificate address\n        certificateAddress = keccak256(block.number, now, msg.data);\n\n        // create certificate data\n        certificates[certificateAddress] = Certificate(_name, _email, _institution, _course, _dates, _hours, true, instructorName, msg.sender);\n\n        // creates the event, to be used to query all the certificates\n        logPrintedCertificate(certificateAddress, _name, _email, _institution, _course, _dates, _hours);\n    }\n\n    // @dev Invalidates a deployed certificate\n    function invalidateCertificate(bytes32 _certificateAddress) external onlyCertificateIssuer(_certificateAddress) {\n        certificates[_certificateAddress].valid = false;\n    }\n\n    // @dev Modifier: allows only if the user has access to institution that issued the certificate\n    modifier onlyCertificateIssuer(bytes32 _certificateAddress) {\n        bytes32 institution = certificates[_certificateAddress].institution;\n        checkRole(msg.sender, institution);\n        _;\n    }\n}\n",
  "sourcePath": "/Users/polaco/Prog/goblockchain/smart-contract-certificate/contracts/CertificatePrint.sol",
  "compiler": {
    "name": "solc",
    "version": "0.4.19+commit.c4cbbb05.Emscripten.clang"
  },
  "schemaVersion": "2.0.0",
  "updatedAt": "2018-07-16T21:43:41.152Z"
}