{
  "contractName": "CertificatePrint",
  "abi": [
    {
      "constant": true,
      "inputs": [
        {
          "name": "addr",
          "type": "address"
        },
        {
          "name": "roleName",
          "type": "string"
        }
      ],
      "name": "checkRole",
      "outputs": [],
      "payable": false,
      "stateMutability": "view",
      "type": "function"
    },
    {
      "constant": true,
      "inputs": [
        {
          "name": "addr",
          "type": "address"
        },
        {
          "name": "roleName",
          "type": "string"
        }
      ],
      "name": "hasRole",
      "outputs": [
        {
          "name": "",
          "type": "bool"
        }
      ],
      "payable": false,
      "stateMutability": "view",
      "type": "function"
    },
    {
      "constant": true,
      "inputs": [
        {
          "name": "",
          "type": "bytes32"
        }
      ],
      "name": "institutionsAccessRights",
      "outputs": [
        {
          "name": "",
          "type": "string"
        }
      ],
      "payable": false,
      "stateMutability": "view",
      "type": "function"
    },
    {
      "constant": false,
      "inputs": [
        {
          "name": "_institutionHash",
          "type": "bytes32"
        }
      ],
      "name": "invalidateInstitution",
      "outputs": [],
      "payable": false,
      "stateMutability": "nonpayable",
      "type": "function"
    },
    {
      "constant": false,
      "inputs": [
        {
          "name": "_name",
          "type": "string"
        },
        {
          "name": "_code",
          "type": "string"
        }
      ],
      "name": "addInstitution",
      "outputs": [
        {
          "name": "institutionHash",
          "type": "bytes32"
        }
      ],
      "payable": false,
      "stateMutability": "nonpayable",
      "type": "function"
    },
    {
      "constant": true,
      "inputs": [
        {
          "name": "",
          "type": "bytes32"
        }
      ],
      "name": "certificates",
      "outputs": [
        {
          "name": "name",
          "type": "string"
        },
        {
          "name": "email",
          "type": "string"
        },
        {
          "name": "institution",
          "type": "bytes32"
        },
        {
          "name": "course",
          "type": "string"
        },
        {
          "name": "dates",
          "type": "string"
        },
        {
          "name": "courseHours",
          "type": "uint16"
        },
        {
          "name": "valid",
          "type": "bool"
        }
      ],
      "payable": false,
      "stateMutability": "view",
      "type": "function"
    },
    {
      "constant": false,
      "inputs": [
        {
          "name": "addr",
          "type": "address"
        },
        {
          "name": "roleName",
          "type": "string"
        }
      ],
      "name": "adminRemoveRole",
      "outputs": [],
      "payable": false,
      "stateMutability": "nonpayable",
      "type": "function"
    },
    {
      "constant": true,
      "inputs": [
        {
          "name": "",
          "type": "bytes32"
        }
      ],
      "name": "institutions",
      "outputs": [
        {
          "name": "code",
          "type": "string"
        },
        {
          "name": "name",
          "type": "string"
        },
        {
          "name": "validFrom",
          "type": "uint256"
        },
        {
          "name": "validTo",
          "type": "uint256"
        },
        {
          "name": "valid",
          "type": "bool"
        }
      ],
      "payable": false,
      "stateMutability": "view",
      "type": "function"
    },
    {
      "constant": false,
      "inputs": [
        {
          "name": "_issuerAddress",
          "type": "address"
        },
        {
          "name": "_institution",
          "type": "bytes32"
        }
      ],
      "name": "revokeIssuer",
      "outputs": [],
      "payable": false,
      "stateMutability": "nonpayable",
      "type": "function"
    },
    {
      "constant": false,
      "inputs": [
        {
          "name": "addr",
          "type": "address"
        },
        {
          "name": "roleName",
          "type": "string"
        }
      ],
      "name": "adminAddRole",
      "outputs": [],
      "payable": false,
      "stateMutability": "nonpayable",
      "type": "function"
    },
    {
      "constant": true,
      "inputs": [],
      "name": "ROLE_ADMIN",
      "outputs": [
        {
          "name": "",
          "type": "string"
        }
      ],
      "payable": false,
      "stateMutability": "view",
      "type": "function"
    },
    {
      "constant": false,
      "inputs": [
        {
          "name": "_issuerAddress",
          "type": "address"
        },
        {
          "name": "_institution",
          "type": "bytes32"
        }
      ],
      "name": "addIssuer",
      "outputs": [],
      "payable": false,
      "stateMutability": "nonpayable",
      "type": "function"
    },
    {
      "anonymous": false,
      "inputs": [
        {
          "indexed": false,
          "name": "contractAddress",
          "type": "bytes32"
        },
        {
          "indexed": false,
          "name": "_name",
          "type": "string"
        },
        {
          "indexed": false,
          "name": "email",
          "type": "string"
        },
        {
          "indexed": false,
          "name": "_institution",
          "type": "bytes32"
        },
        {
          "indexed": false,
          "name": "_course",
          "type": "string"
        },
        {
          "indexed": false,
          "name": "_dates",
          "type": "string"
        },
        {
          "indexed": false,
          "name": "_hours",
          "type": "uint16"
        }
      ],
      "name": "logPrintedCertificate",
      "type": "event"
    },
    {
      "anonymous": false,
      "inputs": [
        {
          "indexed": false,
          "name": "_address",
          "type": "address"
        },
        {
          "indexed": false,
          "name": "institution",
          "type": "bytes32"
        },
        {
          "indexed": false,
          "name": "timestamp",
          "type": "uint256"
        }
      ],
      "name": "logNewInssuer",
      "type": "event"
    },
    {
      "anonymous": false,
      "inputs": [
        {
          "indexed": false,
          "name": "hash",
          "type": "bytes32"
        },
        {
          "indexed": false,
          "name": "name",
          "type": "string"
        },
        {
          "indexed": false,
          "name": "timestamp",
          "type": "uint256"
        }
      ],
      "name": "logNewInstitution",
      "type": "event"
    },
    {
      "anonymous": false,
      "inputs": [
        {
          "indexed": false,
          "name": "addr",
          "type": "address"
        },
        {
          "indexed": false,
          "name": "roleName",
          "type": "string"
        }
      ],
      "name": "RoleAdded",
      "type": "event"
    },
    {
      "anonymous": false,
      "inputs": [
        {
          "indexed": false,
          "name": "addr",
          "type": "address"
        },
        {
          "indexed": false,
          "name": "roleName",
          "type": "string"
        }
      ],
      "name": "RoleRemoved",
      "type": "event"
    },
    {
      "constant": false,
      "inputs": [
        {
          "name": "_name",
          "type": "string"
        },
        {
          "name": "_email",
          "type": "string"
        },
        {
          "name": "_institution",
          "type": "bytes32"
        },
        {
          "name": "_course",
          "type": "string"
        },
        {
          "name": "_dates",
          "type": "string"
        },
        {
          "name": "_hours",
          "type": "uint16"
        }
      ],
      "name": "printCertificate",
      "outputs": [
        {
          "name": "certificateAddress",
          "type": "bytes32"
        }
      ],
      "payable": false,
      "stateMutability": "nonpayable",
      "type": "function"
    },
    {
      "constant": false,
      "inputs": [
        {
          "name": "_certificateAddress",
          "type": "bytes32"
        }
      ],
      "name": "invalidateCertificate",
      "outputs": [],
      "payable": false,
      "stateMutability": "nonpayable",
      "type": "function"
    }
  ],
  "bytecode": "0x606060405262000059336040805190810160405280600581526020017f61646d696e000000000000000000000000000000000000000000000000000000815250620000b46401000000000262001a54176401000000009004565b620000ae336040805190810160405280600981526020017f4742435f41444d494e0000000000000000000000000000000000000000000000815250620000b46401000000000262001a54176401000000009004565b62000278565b62000143826000836040518082805190602001908083835b602083101515620000f35780518252602082019150602081019050602083039250620000cc565b6001836020036101000a03801982511681845116808217855250505050505090500191505090815260200160405180910390206200021a6401000000000262001c03179091906401000000009004565b7fbfec83d64eaa953f2708271a023ab9ee82057f8f3578d548c1a4ba0b5b7004898282604051808373ffffffffffffffffffffffffffffffffffffffff1673ffffffffffffffffffffffffffffffffffffffff16815260200180602001828103825283818151815260200191508051906020019080838360005b83811015620001da578082015181840152602081019050620001bd565b50505050905090810190601f168015620002085780820380516001836020036101000a031916815260200191505b50935050505060405180910390a15050565b60018260000160008373ffffffffffffffffffffffffffffffffffffffff1673ffffffffffffffffffffffffffffffffffffffff16815260200190815260200160002060006101000a81548160ff0219169083151502179055505050565b611db280620002886000396000f3006060604052600436106100d0576000357c0100000000000000000000000000000000000000000000000000000000900463ffffffff1680630988ca8c146100d5578063217fe6c6146101515780635d1f4eef146101e557806369b10633146102855780636baa657c146102ac578063742f0688146103685780637810cf06146105e9578063803587ae1461074557806388cee87e1461076c57806395829738146107e8578063b126c44514610947578063b25fa92c1461098d578063d391014b14610a09578063e36f1dc214610a97575b600080fd5b34156100e057600080fd5b61014f600480803573ffffffffffffffffffffffffffffffffffffffff1690602001909190803590602001908201803590602001908080601f01602080910402602001604051908101604052809392919081815260200183838082843782019150505050505091905050610add565b005b341561015c57600080fd5b6101cb600480803573ffffffffffffffffffffffffffffffffffffffff1690602001909190803590602001908201803590602001908080601f01602080910402602001604051908101604052809392919081815260200183838082843782019150505050505091905050610b5e565b604051808215151515815260200191505060405180910390f35b34156101f057600080fd5b61020a600480803560001916906020019091905050610be5565b6040518080602001828103825283818151815260200191508051906020019080838360005b8381101561024a57808201518184015260208101905061022f565b50505050905090810190601f1680156102775780820380516001836020036101000a031916815260200191505b509250505060405180910390f35b341561029057600080fd5b6102aa600480803560001916906020019091905050610c95565b005b34156102b757600080fd5b61034a600480803590602001908201803590602001908080601f0160208091040260200160405190810160405280939291908181526020018383808284378201915050505050509190803590602001908201803590602001908080601f01602080910402602001604051908101604052809392919081815260200183838082843782019150505050505091905050610d33565b60405180826000191660001916815260200191505060405180910390f35b341561037357600080fd5b61038d600480803560001916906020019091905050610f4d565b604051808060200180602001886000191660001916815260200180602001806020018761ffff1661ffff1681526020018615151515815260200185810385528c8181546001816001161561010002031660029004815260200191508054600181600116156101000203166002900480156104485780601f1061041d57610100808354040283529160200191610448565b820191906000526020600020905b81548152906001019060200180831161042b57829003601f168201915b505085810384528b8181546001816001161561010002031660029004815260200191508054600181600116156101000203166002900480156104cb5780601f106104a0576101008083540402835291602001916104cb565b820191906000526020600020905b8154815290600101906020018083116104ae57829003601f168201915b505085810383528981815460018160011615610100020316600290048152602001915080546001816001161561010002031660029004801561054e5780601f106105235761010080835404028352916020019161054e565b820191906000526020600020905b81548152906001019060200180831161053157829003601f168201915b50508581038252888181546001816001161561010002031660029004815260200191508054600181600116156101000203166002900480156105d15780601f106105a6576101008083540402835291602001916105d1565b820191906000526020600020905b8154815290600101906020018083116105b457829003601f168201915b50509b50505050505050505050505060405180910390f35b34156105f457600080fd5b610727600480803590602001908201803590602001908080601f0160208091040260200160405190810160405280939291908181526020018383808284378201915050505050509190803590602001908201803590602001908080601f016020809104026020016040519081016040528093929190818152602001838380828437820191505050505050919080356000191690602001909190803590602001908201803590602001908080601f0160208091040260200160405190810160405280939291908181526020018383808284378201915050505050509190803590602001908201803590602001908080601f0160208091040260200160405190810160405280939291908181526020018383808284378201915050505050509190803561ffff16906020019091905050610fa6565b60405180826000191660001916815260200191505060405180910390f35b341561075057600080fd5b61076a600480803560001916906020019091905050611416565b005b341561077757600080fd5b6107e6600480803573ffffffffffffffffffffffffffffffffffffffff1690602001909190803590602001908201803590602001908080601f01602080910402602001604051908101604052809392919081815260200183838082843782019150505050505091905050611533565b005b34156107f357600080fd5b61080d600480803560001916906020019091905050611580565b604051808060200180602001868152602001858152602001841515151581526020018381038352888181546001816001161561010002031660029004815260200191508054600181600116156101000203166002900480156108b05780601f10610885576101008083540402835291602001916108b0565b820191906000526020600020905b81548152906001019060200180831161089357829003601f168201915b50508381038252878181546001816001161561010002031660029004815260200191508054600181600116156101000203166002900480156109335780601f1061090857610100808354040283529160200191610933565b820191906000526020600020905b81548152906001019060200180831161091657829003601f168201915b505097505050505050505060405180910390f35b341561095257600080fd5b61098b600480803573ffffffffffffffffffffffffffffffffffffffff16906020019091908035600019169060200190919050506115c1565b005b341561099857600080fd5b610a07600480803573ffffffffffffffffffffffffffffffffffffffff1690602001909190803590602001908201803590602001908080601f016020809104026020016040519081016040528093929190818152602001838380828437820191505050505050919050506116c6565b005b3415610a1457600080fd5b610a1c611713565b6040518080602001828103825283818151815260200191508051906020019080838360005b83811015610a5c578082015181840152602081019050610a41565b50505050905090810190601f168015610a895780820380516001836020036101000a031916815260200191505b509250505060405180910390f35b3415610aa257600080fd5b610adb600480803573ffffffffffffffffffffffffffffffffffffffff169060200190919080356000191690602001909190505061174c565b005b610b5a826000836040518082805190602001908083835b602083101515610b195780518252602082019150602081019050602083039250610af4565b6001836020036101000a038019825116818451168082178552505050505050905001915050908152602001604051809103902061189190919063ffffffff16565b5050565b6000610bdd836000846040518082805190602001908083835b602083101515610b9c5780518252602082019150602081019050602083039250610b77565b6001836020036101000a03801982511681845116808217855250505050505090500191505090815260200160405180910390206118aa90919063ffffffff16565b905092915050565b60026020528060005260406000206000915090508054600181600116156101000203166002900480601f016020809104026020016040519081016040528092919081815260200182805460018160011615610100020316600290048015610c8d5780601f10610c6257610100808354040283529160200191610c8d565b820191906000526020600020905b815481529060010190602001808311610c7057829003601f168201915b505050505081565b6040805190810160405280600981526020017f4742435f41444d494e0000000000000000000000000000000000000000000000815250610cd53382610add565b600060016000846000191660001916815260200190815260200160002060040160006101000a81548160ff02191690831515021790555042600160008460001916600019168152602001908152602001600020600301819055505050565b60006040805190810160405280600981526020017f4742435f41444d494e0000000000000000000000000000000000000000000000815250610d753382610add565b434260003660405180858152602001848152602001838380828437820191505094505050505060405180910390209150826002600084600019166000191681526020019081526020016000209080519060200190610dd4929190611c61565b5060a0604051908101604052808481526020018581526020014281526020016301e1338042018152602001600115158152506001600084600019166000191681526020019081526020016000206000820151816000019080519060200190610e3d929190611ce1565b506020820151816001019080519060200190610e5a929190611ce1565b50604082015181600201556060820151816003015560808201518160040160006101000a81548160ff0219169083151502179055509050507f232dd1a7a5f228343d34f4399fecf110aaba37abbf6ee49bbc5c4889136bb33b82854260405180846000191660001916815260200180602001838152602001828103825284818151815260200191508051906020019080838360005b83811015610f0a578082015181840152602081019050610eef565b50505050905090810190601f168015610f375780820380516001836020036101000a031916815260200191505b5094505050505060405180910390a15092915050565b600360205280600052604060002060009150905080600001908060010190806002015490806003019080600401908060050160009054906101000a900461ffff16908060050160029054906101000a900460ff16905087565b6000846001151560016000836000191660001916815260200190815260200160002060040160009054906101000a900460ff161515141515610fe757600080fd5b6110a4336002600084600019166000191681526020019081526020016000208054600181600116156101000203166002900480601f01602080910402602001604051908101604052809291908181526020018280546001816001161561010002031660029004801561109a5780601f1061106f5761010080835404028352916020019161109a565b820191906000526020600020905b81548152906001019060200180831161107d57829003601f168201915b5050505050610add565b43426000366040518085815260200184815260200183838082843782019150509450505050506040518091039020915060e060405190810160405280898152602001888152602001876000191681526020018681526020018581526020018461ffff16815260200160011515815250600360008460001916600019168152602001908152602001600020600082015181600001908051906020019061114a929190611ce1565b506020820151816001019080519060200190611167929190611ce1565b50604082015181600201906000191690556060820151816003019080519060200190611194929190611ce1565b5060808201518160040190805190602001906111b1929190611ce1565b5060a08201518160050160006101000a81548161ffff021916908361ffff16021790555060c08201518160050160026101000a81548160ff0219169083151502179055509050507f27642b2931a34382ccc004dba491fac25d7507234d088dffe445d5d8454266e3828989898989896040518088600019166000191681526020018060200180602001876000191660001916815260200180602001806020018661ffff1661ffff16815260200185810385528b818151815260200191508051906020019080838360005b8381101561129657808201518184015260208101905061127b565b50505050905090810190601f1680156112c35780820380516001836020036101000a031916815260200191505b5085810384528a818151815260200191508051906020019080838360005b838110156112fc5780820151818401526020810190506112e1565b50505050905090810190601f1680156113295780820380516001836020036101000a031916815260200191505b50858103835288818151815260200191508051906020019080838360005b83811015611362578082015181840152602081019050611347565b50505050905090810190601f16801561138f5780820380516001836020036101000a031916815260200191505b50858103825287818151815260200191508051906020019080838360005b838110156113c85780820151818401526020810190506113ad565b50505050905090810190601f1680156113f55780820380516001836020036101000a031916815260200191505b509b50505050505050505050505060405180910390a1509695505050505050565b8060006003600083600019166000191681526020019081526020016000206002015490506114f7336002600084600019166000191681526020019081526020016000208054600181600116156101000203166002900480601f0160208091040260200160405190810160405280929190818152602001828054600181600116156101000203166002900480156114ed5780601f106114c2576101008083540402835291602001916114ed565b820191906000526020600020905b8154815290600101906020018083116114d057829003601f168201915b5050505050610add565b600060036000856000191660001916815260200190815260200160002060050160026101000a81548160ff021916908315150217905550505050565b611572336040805190810160405280600581526020017f61646d696e000000000000000000000000000000000000000000000000000000815250610add565b61157c8282611903565b5050565b6001602052806000526040600020600091509050806000019080600101908060020154908060030154908060040160009054906101000a900460ff16905085565b6040805190810160405280600981526020017f4742435f41444d494e00000000000000000000000000000000000000000000008152506116013382610add565b6116c1836001600085600019166000191681526020019081526020016000206000018054600181600116156101000203166002900480601f0160208091040260200160405190810160405280929190818152602001828054600181600116156101000203166002900480156116b75780601f1061168c576101008083540402835291602001916116b7565b820191906000526020600020905b81548152906001019060200180831161169a57829003601f168201915b5050505050611903565b505050565b611705336040805190810160405280600581526020017f61646d696e000000000000000000000000000000000000000000000000000000815250610add565b61170f8282611a54565b5050565b6040805190810160405280600581526020017f61646d696e00000000000000000000000000000000000000000000000000000081525081565b6040805190810160405280600981526020017f4742435f41444d494e000000000000000000000000000000000000000000000081525061178c3382610add565b6001806000846000191660001916815260200190815260200160002060040160006101000a81548160ff021916908315150217905515156117cc57600080fd5b61188c836001600085600019166000191681526020019081526020016000206000018054600181600116156101000203166002900480601f0160208091040260200160405190810160405280929190818152602001828054600181600116156101000203166002900480156118825780601f1061185757610100808354040283529160200191611882565b820191906000526020600020905b81548152906001019060200180831161186557829003601f168201915b5050505050611a54565b505050565b61189b82826118aa565b15156118a657600080fd5b5050565b60008260000160008373ffffffffffffffffffffffffffffffffffffffff1673ffffffffffffffffffffffffffffffffffffffff16815260200190815260200160002060009054906101000a900460ff16905092915050565b611980826000836040518082805190602001908083835b60208310151561193f578051825260208201915060208101905060208303925061191a565b6001836020036101000a0380198251168184511680821785525050505050509050019150509081526020016040518091039020611ba590919063ffffffff16565b7fd211483f91fc6eff862467f8de606587a30c8fc9981056f051b897a418df803a8282604051808373ffffffffffffffffffffffffffffffffffffffff1673ffffffffffffffffffffffffffffffffffffffff16815260200180602001828103825283818151815260200191508051906020019080838360005b83811015611a155780820151818401526020810190506119fa565b50505050905090810190601f168015611a425780820380516001836020036101000a031916815260200191505b50935050505060405180910390a15050565b611ad1826000836040518082805190602001908083835b602083101515611a905780518252602082019150602081019050602083039250611a6b565b6001836020036101000a0380198251168184511680821785525050505050509050019150509081526020016040518091039020611c0390919063ffffffff16565b7fbfec83d64eaa953f2708271a023ab9ee82057f8f3578d548c1a4ba0b5b7004898282604051808373ffffffffffffffffffffffffffffffffffffffff1673ffffffffffffffffffffffffffffffffffffffff16815260200180602001828103825283818151815260200191508051906020019080838360005b83811015611b66578082015181840152602081019050611b4b565b50505050905090810190601f168015611b935780820380516001836020036101000a031916815260200191505b50935050505060405180910390a15050565b60008260000160008373ffffffffffffffffffffffffffffffffffffffff1673ffffffffffffffffffffffffffffffffffffffff16815260200190815260200160002060006101000a81548160ff0219169083151502179055505050565b60018260000160008373ffffffffffffffffffffffffffffffffffffffff1673ffffffffffffffffffffffffffffffffffffffff16815260200190815260200160002060006101000a81548160ff0219169083151502179055505050565b828054600181600116156101000203166002900490600052602060002090601f016020900481019282601f10611ca257805160ff1916838001178555611cd0565b82800160010185558215611cd0579182015b82811115611ccf578251825591602001919060010190611cb4565b5b509050611cdd9190611d61565b5090565b828054600181600116156101000203166002900490600052602060002090601f016020900481019282601f10611d2257805160ff1916838001178555611d50565b82800160010185558215611d50579182015b82811115611d4f578251825591602001919060010190611d34565b5b509050611d5d9190611d61565b5090565b611d8391905b80821115611d7f576000816000905550600101611d67565b5090565b905600a165627a7a723058209fcd548e252c6abe3a25193aa6111be2fd122da392662d1b985076635ff590270029",
  "source": "pragma solidity 0.4.19;\n\nimport \"./Issuers.sol\";\n\n/// @title Contract CertificatePrint, prints the certificates\ncontract CertificatePrint is Issuers {\n\n    // @dev Certificate data struct\n    struct Certificate {\n        string name;\n        string email;\n        bytes32 institution;\n        string course;\n        string dates;\n        uint16 courseHours;\n        bool valid;\n    }\n\n    // @dev Certificate data mapping for storage\n    mapping (bytes32 => Certificate) public certificates;\n\n    // @dev Event fired for every new certificate, to be checked to get all certificates\n    event logPrintedCertificate(bytes32 contractAddress, string _name, string email, bytes32 _institution, string _course, string _dates, uint16 _hours);\n\n    function printCertificate (string _name, string _email, bytes32 _institution, string _course, string _dates, uint16 _hours) public onlyInstitution(_institution) returns (bytes32 certificateAddress) {\n\n        // creates certificate address\n        certificateAddress = keccak256(block.number, now, msg.data);\n\n        // create certificate data\n        certificates[certificateAddress] = Certificate(_name, _email, _institution, _course, _dates, _hours, true);\n\n        // creates the event, to be used to query all the certificates\n        logPrintedCertificate(certificateAddress, _name, _email, _institution, _course, _dates, _hours);\n    }\n\n    // @dev Invalidates a deployed certificate\n    function invalidateCertificate(bytes32 _certificateAddress) external onlyCertificateIssuer(_certificateAddress) {\n        certificates[_certificateAddress].valid = false;\n    }\n\n    // @dev Modifier: allows only if the user has access to institution that issued the certificate\n    modifier onlyCertificateIssuer(bytes32 _certificateAddress) {\n        bytes32 institution = certificates[_certificateAddress].institution;\n        checkRole(msg.sender, institutionsAccessRights[institution]);\n        _;\n    }\n}\n",
  "sourcePath": "/Users/polaco/Prog/goblockchain/smart-contract-certificate/contracts/CertificatePrint.sol",
  "compiler": {
    "name": "solc",
    "version": "0.4.19+commit.c4cbbb05.Emscripten.clang"
  },
  "schemaVersion": "2.0.0",
  "updatedAt": "2018-04-06T04:04:47.603Z"
}