{
  "contractName": "CertificatePrint",
  "abi": [
    {
      "constant": true,
      "inputs": [
        {
          "name": "",
          "type": "bytes32"
        }
      ],
      "name": "certificates",
      "outputs": [
        {
          "name": "name",
          "type": "string"
        },
        {
          "name": "email",
          "type": "string"
        },
        {
          "name": "ownerAddress",
          "type": "address"
        },
        {
          "name": "institution",
          "type": "bytes32"
        },
        {
          "name": "course",
          "type": "string"
        },
        {
          "name": "dates",
          "type": "string"
        },
        {
          "name": "courseHours",
          "type": "uint16"
        },
        {
          "name": "valid",
          "type": "bool"
        },
        {
          "name": "issuerAddress",
          "type": "address"
        }
      ],
      "payable": false,
      "stateMutability": "view",
      "type": "function",
      "signature": "0x742f0688"
    },
    {
      "constant": true,
      "inputs": [
        {
          "name": "",
          "type": "bytes32"
        }
      ],
      "name": "certificateData",
      "outputs": [
        {
          "name": "",
          "type": "bytes32"
        }
      ],
      "payable": false,
      "stateMutability": "view",
      "type": "function",
      "signature": "0x7ea2714f"
    },
    {
      "constant": true,
      "inputs": [],
      "name": "price",
      "outputs": [
        {
          "name": "",
          "type": "uint256"
        }
      ],
      "payable": false,
      "stateMutability": "view",
      "type": "function",
      "signature": "0xa035b1fe"
    },
    {
      "inputs": [
        {
          "name": "_price",
          "type": "uint256"
        },
        {
          "name": "_token",
          "type": "address"
        },
        {
          "name": "_accessControl",
          "type": "address"
        },
        {
          "name": "_wallet",
          "type": "address"
        }
      ],
      "payable": false,
      "stateMutability": "nonpayable",
      "type": "constructor",
      "signature": "constructor"
    },
    {
      "anonymous": false,
      "inputs": [
        {
          "indexed": false,
          "name": "certificateHash",
          "type": "bytes32"
        },
        {
          "indexed": false,
          "name": "name",
          "type": "string"
        },
        {
          "indexed": false,
          "name": "email",
          "type": "string"
        },
        {
          "indexed": false,
          "name": "ownerAddress",
          "type": "address"
        },
        {
          "indexed": false,
          "name": "institution",
          "type": "bytes32"
        },
        {
          "indexed": false,
          "name": "course",
          "type": "string"
        },
        {
          "indexed": false,
          "name": "dates",
          "type": "string"
        },
        {
          "indexed": false,
          "name": "_hours",
          "type": "uint16"
        }
      ],
      "name": "logPrintedCertificate",
      "type": "event",
      "signature": "0x6361f3ac79d959ef5ba5e4979b3de068ad2d57a41540c61d09999a6805d1ca89"
    },
    {
      "constant": false,
      "inputs": [
        {
          "name": "_name",
          "type": "string"
        },
        {
          "name": "_email",
          "type": "string"
        },
        {
          "name": "_ownerAddress",
          "type": "address"
        },
        {
          "name": "_institution",
          "type": "bytes32"
        },
        {
          "name": "_course",
          "type": "string"
        },
        {
          "name": "_dates",
          "type": "string"
        },
        {
          "name": "_hours",
          "type": "uint16"
        },
        {
          "name": "_data",
          "type": "bytes32"
        }
      ],
      "name": "printCertificate",
      "outputs": [
        {
          "name": "certificateAddress",
          "type": "bytes32"
        }
      ],
      "payable": false,
      "stateMutability": "nonpayable",
      "type": "function",
      "signature": "0x57a2d34f"
    },
    {
      "constant": false,
      "inputs": [
        {
          "name": "_certificateAddress",
          "type": "bytes32"
        }
      ],
      "name": "invalidateCertificate",
      "outputs": [],
      "payable": false,
      "stateMutability": "nonpayable",
      "type": "function",
      "signature": "0x803587ae"
    },
    {
      "constant": false,
      "inputs": [
        {
          "name": "_newPrice",
          "type": "uint256"
        }
      ],
      "name": "updatePrice",
      "outputs": [],
      "payable": false,
      "stateMutability": "nonpayable",
      "type": "function",
      "signature": "0x8d6cc56d"
    },
    {
      "constant": false,
      "inputs": [
        {
          "name": "_newAddress",
          "type": "address"
        }
      ],
      "name": "updateToken",
      "outputs": [],
      "payable": false,
      "stateMutability": "nonpayable",
      "type": "function",
      "signature": "0x7ad3def2"
    },
    {
      "constant": true,
      "inputs": [],
      "name": "getTokenAddress",
      "outputs": [
        {
          "name": "",
          "type": "address"
        }
      ],
      "payable": false,
      "stateMutability": "view",
      "type": "function",
      "signature": "0x10fe9ae8"
    },
    {
      "constant": true,
      "inputs": [],
      "name": "issuerAddress",
      "outputs": [
        {
          "name": "",
          "type": "address"
        }
      ],
      "payable": false,
      "stateMutability": "view",
      "type": "function",
      "signature": "0xa63234e0"
    }
  ],
  "bytecode": "0x608060405234801561001057600080fd5b50604051608080611117833981016040908152815160208301519183015160609093015160038054600160a060020a0319908116600160a060020a039586161790915560048054821695851695909517909455600291909155600580549093169116179055611093806100846000396000f3006080604052600436106100985763ffffffff7c010000000000000000000000000000000000000000000000000000000060003504166310fe9ae8811461009d57806357a2d34f146100ce578063742f0688146102155780637ad3def2146104325780637ea2714f14610455578063803587ae1461046d5780638d6cc56d14610485578063a035b1fe1461049d578063a63234e0146104b2575b600080fd5b3480156100a957600080fd5b506100b26104c7565b60408051600160a060020a039092168252519081900360200190f35b3480156100da57600080fd5b506040805160206004803580820135601f810184900484028501840190955284845261020394369492936024939284019190819084018382808284375050604080516020601f89358b018035918201839004830284018301909452808352979a99988101979196509182019450925082915084018382808284375050604080516020888301358a018035601f8101839004830284018301909452838352979a8935600160a060020a03169a8a8301359a9199909850606090910196509194509081019250819084018382808284375050604080516020601f89358b018035918201839004830284018301909452808352979a9998810197919650918201945092508291508401838280828437509497505050833561ffff169450505060209091013590506104d7565b60408051918252519081900360200190f35b34801561022157600080fd5b5061022d600435610b11565b6040518080602001806020018a600160a060020a0316600160a060020a03168152602001896000191660001916815260200180602001806020018861ffff1661ffff1681526020018715151515815260200186600160a060020a0316600160a060020a0316815260200185810385528e818151815260200191508051906020019080838360005b838110156102cc5781810151838201526020016102b4565b50505050905090810190601f1680156102f95780820380516001836020036101000a031916815260200191505b5085810384528d5181528d516020918201918f019080838360005b8381101561032c578181015183820152602001610314565b50505050905090810190601f1680156103595780820380516001836020036101000a031916815260200191505b5085810383528a5181528a516020918201918c019080838360005b8381101561038c578181015183820152602001610374565b50505050905090810190601f1680156103b95780820380516001836020036101000a031916815260200191505b5085810382528951815289516020918201918b019080838360005b838110156103ec5781810151838201526020016103d4565b50505050905090810190601f1680156104195780820380516001836020036101000a031916815260200191505b509d505050505050505050505050505060405180910390f35b34801561043e57600080fd5b50610453600160a060020a0360043516610dae565b005b34801561046157600080fd5b50610203600435610e65565b34801561047957600080fd5b50610453600435610e77565b34801561049157600080fd5b50610453600435610f2b565b3480156104a957600080fd5b50610203610fba565b3480156104be57600080fd5b506100b2610fc0565b600354600160a060020a03165b90565b600354600554600254604080517f23b872dd000000000000000000000000000000000000000000000000000000008152336004820152600160a060020a03938416602482015260448101929092525160009392909216916323b872dd9160648082019260209290919082900301818787803b15801561055557600080fd5b505af1158015610569573d6000803e3d6000fd5b505050506040513d602081101561057f57600080fd5b5051151561061457604080517f08c379a000000000000000000000000000000000000000000000000000000000815260206004820152603260248201527f546f6b656e207472616e73666572206661696c65642e20436865636b2062616c60448201527f616e636520616e6420617070726f76616c2e0000000000000000000000000000606482015290519081900360840190fd5b60048054604080517f2ae8a7e3000000000000000000000000000000000000000000000000000000008152339381019390935260248301899052518892600160a060020a0390921691632ae8a7e391604480830192600092919082900301818387803b15801561068357600080fd5b505af1158015610697573d6000803e3d6000fd5b5050505043426000366040516020018085815260200184815260200183838082843782019150509450505050506040516020818303038152906040526040518082805190602001908083835b602083106107025780518252601f1990920191602091820191016106e3565b6001836020036101000a03801982511681845116808217855250505050505090500191505060405180910390209150610120604051908101604052808b81526020018a815260200189600160a060020a03168152602001886000191681526020018781526020018681526020018561ffff16815260200160011515815260200133600160a060020a0316815250600080846000191660001916815260200190815260200160002060008201518160000190805190602001906107c5929190610fcf565b5060208281015180516107de9260018501920190610fcf565b50604082015160028201805473ffffffffffffffffffffffffffffffffffffffff1916600160a060020a039092169190911790556060820151600382015560808201518051610837916004840191602090910190610fcf565b5060a08201518051610853916005840191602090910190610fcf565b5060c08201518160060160006101000a81548161ffff021916908361ffff16021790555060e08201518160060160026101000a81548160ff0219169083151502179055506101008201518160060160036101000a815481600160a060020a030219169083600160a060020a031602179055509050508260016000846000191660001916815260200190815260200160002081600019169055507f6361f3ac79d959ef5ba5e4979b3de068ad2d57a41540c61d09999a6805d1ca89828b8b8b8b8b8b8b604051808960001916600019168152602001806020018060200188600160a060020a0316600160a060020a03168152602001876000191660001916815260200180602001806020018661ffff1661ffff16815260200185810385528c818151815260200191508051906020019080838360005b838110156109a0578181015183820152602001610988565b50505050905090810190601f1680156109cd5780820380516001836020036101000a031916815260200191505b5085810384528b5181528b516020918201918d019080838360005b83811015610a005781810151838201526020016109e8565b50505050905090810190601f168015610a2d5780820380516001836020036101000a031916815260200191505b5085810383528851815288516020918201918a019080838360005b83811015610a60578181015183820152602001610a48565b50505050905090810190601f168015610a8d5780820380516001836020036101000a031916815260200191505b50858103825287518152875160209182019189019080838360005b83811015610ac0578181015183820152602001610aa8565b50505050905090810190601f168015610aed5780820380516001836020036101000a031916815260200191505b509c5050505050505050505050505060405180910390a15098975050505050505050565b6000602081815291815260409081902080548251601f600260001961010060018616150201909316929092049182018590048502810185019093528083529092839190830182828015610ba55780601f10610b7a57610100808354040283529160200191610ba5565b820191906000526020600020905b815481529060010190602001808311610b8857829003601f168201915b505050505090806001018054600181600116156101000203166002900480601f016020809104026020016040519081016040528092919081815260200182805460018160011615610100020316600290048015610c435780601f10610c1857610100808354040283529160200191610c43565b820191906000526020600020905b815481529060010190602001808311610c2657829003601f168201915b5050505060028381015460038501546004860180546040805160206101006001851615026000190190931696909604601f81018390048302870183019091528086529697600160a060020a0390941696929550929392909190830182828015610ced5780601f10610cc257610100808354040283529160200191610ced565b820191906000526020600020905b815481529060010190602001808311610cd057829003601f168201915b5050505060058301805460408051602060026001851615610100026000190190941693909304601f8101849004840282018401909252818152949594935090830182828015610d7d5780601f10610d5257610100808354040283529160200191610d7d565b820191906000526020600020905b815481529060010190602001808311610d6057829003601f168201915b5050506006909301549192505061ffff81169060ff6201000082041690600160a060020a0363010000009091041689565b60048054604080517f2ae8a7e30000000000000000000000000000000000000000000000000000000081523393810193909352600160a060020a039091166024830181905290519091632ae8a7e391604480830192600092919082900301818387803b158015610e1d57600080fd5b505af1158015610e31573d6000803e3d6000fd5b50506003805473ffffffffffffffffffffffffffffffffffffffff1916600160a060020a0394909416939093179092555050565b60016020526000908152604090205481565b600081815260208190526040808220600301546004805483517f2ae8a7e3000000000000000000000000000000000000000000000000000000008152339281019290925260248201839052925185949293600160a060020a031692632ae8a7e3926044808201939182900301818387803b158015610ef457600080fd5b505af1158015610f08573d6000803e3d6000fd5b5050506000938452505050602081905260409020600601805462ff000019169055565b60048054604080517f2ae8a7e30000000000000000000000000000000000000000000000000000000081523393810193909352600160a060020a039091166024830181905290519091632ae8a7e391604480830192600092919082900301818387803b158015610f9a57600080fd5b505af1158015610fae573d6000803e3d6000fd5b50505060029190915550565b60025481565b600454600160a060020a031690565b828054600181600116156101000203166002900490600052602060002090601f016020900481019282601f1061101057805160ff191683800117855561103d565b8280016001018555821561103d579182015b8281111561103d578251825591602001919060010190611022565b5061104992915061104d565b5090565b6104d491905b8082111561104957600081556001016110535600a165627a7a7230582004af4315aab88e8b5a518a63636b57237cc883600e9b18d2c098ec80da9288170029",
  "source": "pragma solidity 0.4.24;\n\ncontract Issuer {\n    function checkRole(address addr, bytes32 roleName) public view;\n}\n\ncontract ERC20 {\n    function allowance(address owner, address spender) public view returns (uint256);\n    function transferFrom(address from, address to, uint256 value) public returns (bool);\n}\n\n/// @title Contract CertificatePrint, prints the certificates\ncontract CertificatePrint {\n\n    // @dev Certificate data struct\n    struct Certificate {\n        string name;\n        string email;\n        address ownerAddress;\n        bytes32 institution;\n        string course;\n        string dates;\n        uint16 courseHours;\n        bool valid;\n        address issuerAddress;\n    }\n\n    mapping (bytes32 => Certificate) public certificates;\n    mapping (bytes32 => bytes32) public certificateData;\n    uint public price;\n    ERC20 tokenContract;\n    Issuer accessControl;\n    address wallet;\n\n    // // @dev Event fired for every new certificate, to be checked to get all certificates\n    event logPrintedCertificate(\n        bytes32 certificateHash, \n        string name, \n        string email, \n        address ownerAddress,\n        bytes32 institution, \n        string course, \n        string dates,\n        uint16 _hours\n    );\n\n    constructor (uint _price, address _token, address _accessControl, address _wallet) public {\n        tokenContract = ERC20(_token);\n        accessControl = Issuer(_accessControl);\n        price = _price;\n        wallet = _wallet;\n    }\n\n    function printCertificate (\n        string _name, \n        string _email, \n        address _ownerAddress,\n        bytes32 _institution, \n        string _course, \n        string _dates, \n        uint16 _hours, \n        bytes32 _data\n        ) \n        public\n        charge\n        onlyInstitution(_institution) \n        returns (\n            bytes32 certificateAddress\n            ) {\n        // creates certificate address\n        certificateAddress = keccak256(abi.encodePacked(block.number, now, msg.data));\n\n        // create certificate data\n        certificates[certificateAddress] = Certificate(_name, _email, _ownerAddress, _institution, _course, _dates, _hours, true, msg.sender);\n        certificateData[certificateAddress] = _data;\n\n        // creates the event, to be used to query all the certificates\n        emit logPrintedCertificate(certificateAddress, _name, _email, _ownerAddress, _institution, _course, _dates, _hours);\n    }\n\n    // @dev Invalidates a deployed certificate\n    function invalidateCertificate(bytes32 _certificateAddress) external onlyCertificateIssuer(_certificateAddress) {\n        certificates[_certificateAddress].valid = false;\n    }\n\n    function updatePrice(uint _newPrice) public onlyAdmin {\n        price = _newPrice;\n    }\n\n    function updateToken(address _newAddress) public onlyAdmin {\n        tokenContract = ERC20(_newAddress);\n    }\n\n    function getTokenAddress() public view returns (address) {\n        return(tokenContract);\n    }\n\n    function issuerAddress() public view returns (address) {\n        return(accessControl);\n    }\n\n    // @dev Modifier: allows only if the user has access to institution that issued the certificate\n    modifier onlyCertificateIssuer(bytes32 _certificateAddress) {\n        bytes32 institution = certificates[_certificateAddress].institution;\n        accessControl.checkRole(msg.sender, institution);\n        _;\n    }\n\n    // @dev Modifier: allows only if the user has access to institution that issued the certificate\n    modifier onlyAdmin() {\n        accessControl.checkRole(msg.sender, bytes32(address(accessControl)));\n        _;\n    }\n\n    // @dev Modifier: allows only if the user has access to institution that issued the certificate\n    modifier onlyInstitution(bytes32 _institution) {\n        accessControl.checkRole(msg.sender, _institution);\n        _;\n    }\n\n    // @dev Modifier: allows only if the user has access to institution that issued the certificate\n    modifier charge() {\n        require(tokenContract.transferFrom(msg.sender, wallet, price), \"Token transfer failed. Check balance and approval.\");\n        _;\n    }\n}\n",
  "sourcePath": "/Users/polaco/Prog/goblockchain/smart-contract-certificate/contracts/CertificatePrint.sol",
  "compiler": {
    "name": "solc",
    "version": "0.4.24+commit.e67f0147.Emscripten.clang"
  },
  "schemaVersion": "3.0.1",
  "updatedAt": "2019-01-12T20:26:48.033Z"
}