{
  "contractName": "CertificatePrint",
  "abi": [
    {
      "constant": true,
      "inputs": [
        {
          "name": "",
          "type": "bytes32"
        }
      ],
      "name": "certificates",
      "outputs": [
        {
          "name": "name",
          "type": "string"
        },
        {
          "name": "email",
          "type": "string"
        },
        {
          "name": "institution",
          "type": "bytes32"
        },
        {
          "name": "course",
          "type": "string"
        },
        {
          "name": "dates",
          "type": "string"
        },
        {
          "name": "courseHours",
          "type": "uint16"
        },
        {
          "name": "valid",
          "type": "bool"
        },
        {
          "name": "instructorName",
          "type": "string"
        },
        {
          "name": "issuerAddress",
          "type": "address"
        }
      ],
      "payable": false,
      "stateMutability": "view",
      "type": "function"
    },
    {
      "constant": true,
      "inputs": [
        {
          "name": "",
          "type": "bytes32"
        }
      ],
      "name": "certificateData",
      "outputs": [
        {
          "name": "",
          "type": "bytes32"
        }
      ],
      "payable": false,
      "stateMutability": "view",
      "type": "function"
    },
    {
      "constant": true,
      "inputs": [],
      "name": "price",
      "outputs": [
        {
          "name": "",
          "type": "uint256"
        }
      ],
      "payable": false,
      "stateMutability": "view",
      "type": "function"
    },
    {
      "inputs": [
        {
          "name": "_price",
          "type": "uint256"
        },
        {
          "name": "_token",
          "type": "address"
        },
        {
          "name": "_accessControl",
          "type": "address"
        },
        {
          "name": "_wallet",
          "type": "address"
        }
      ],
      "payable": false,
      "stateMutability": "nonpayable",
      "type": "constructor"
    },
    {
      "anonymous": false,
      "inputs": [
        {
          "indexed": false,
          "name": "_contractAddress",
          "type": "bytes32"
        },
        {
          "indexed": false,
          "name": "_name",
          "type": "string"
        },
        {
          "indexed": false,
          "name": "_email",
          "type": "string"
        },
        {
          "indexed": false,
          "name": "_institution",
          "type": "bytes32"
        },
        {
          "indexed": false,
          "name": "_course",
          "type": "string"
        },
        {
          "indexed": false,
          "name": "_dates",
          "type": "string"
        },
        {
          "indexed": false,
          "name": "_hours",
          "type": "uint16"
        }
      ],
      "name": "logPrintedCertificate",
      "type": "event"
    },
    {
      "constant": false,
      "inputs": [
        {
          "name": "_name",
          "type": "string"
        },
        {
          "name": "_email",
          "type": "string"
        },
        {
          "name": "_institution",
          "type": "bytes32"
        },
        {
          "name": "_course",
          "type": "string"
        },
        {
          "name": "_dates",
          "type": "string"
        },
        {
          "name": "_hours",
          "type": "uint16"
        },
        {
          "name": "_instructorName",
          "type": "string"
        },
        {
          "name": "_data",
          "type": "bytes32"
        }
      ],
      "name": "printCertificate",
      "outputs": [
        {
          "name": "certificateAddress",
          "type": "bytes32"
        }
      ],
      "payable": false,
      "stateMutability": "nonpayable",
      "type": "function"
    },
    {
      "constant": false,
      "inputs": [
        {
          "name": "_certificateAddress",
          "type": "bytes32"
        }
      ],
      "name": "invalidateCertificate",
      "outputs": [],
      "payable": false,
      "stateMutability": "nonpayable",
      "type": "function"
    },
    {
      "constant": false,
      "inputs": [
        {
          "name": "_newPrice",
          "type": "uint256"
        }
      ],
      "name": "updatePrice",
      "outputs": [],
      "payable": false,
      "stateMutability": "nonpayable",
      "type": "function"
    },
    {
      "constant": false,
      "inputs": [
        {
          "name": "_newAddress",
          "type": "address"
        }
      ],
      "name": "updateToken",
      "outputs": [],
      "payable": false,
      "stateMutability": "nonpayable",
      "type": "function"
    },
    {
      "constant": true,
      "inputs": [],
      "name": "getTokenAddress",
      "outputs": [
        {
          "name": "",
          "type": "address"
        }
      ],
      "payable": false,
      "stateMutability": "view",
      "type": "function"
    },
    {
      "constant": true,
      "inputs": [],
      "name": "accessControlAddress",
      "outputs": [
        {
          "name": "",
          "type": "address"
        }
      ],
      "payable": false,
      "stateMutability": "view",
      "type": "function"
    }
  ],
  "bytecode": "0x608060405234801561001057600080fd5b50604051611a83380380611a838339818101604052608081101561003357600080fd5b810190808051906020019092919080519060200190929190805190602001909291908051906020019092919050505082600360006101000a81548173ffffffffffffffffffffffffffffffffffffffff021916908373ffffffffffffffffffffffffffffffffffffffff16021790555081600460006101000a81548173ffffffffffffffffffffffffffffffffffffffff021916908373ffffffffffffffffffffffffffffffffffffffff1602179055508360028190555080600560006101000a81548173ffffffffffffffffffffffffffffffffffffffff021916908373ffffffffffffffffffffffffffffffffffffffff160217905550505050506119448061013f6000396000f3fe608060405234801561001057600080fd5b50600436106100935760003560e01c80637ad3def2116100665780637ad3def2146107255780637ea2714f14610769578063803587ae146107ab5780638d6cc56d146107d9578063a035b1fe1461080757610093565b806310fe9ae81461009857806342347cc3146100e25780636674137714610430578063742f06881461047a575b600080fd5b6100a0610825565b604051808273ffffffffffffffffffffffffffffffffffffffff1673ffffffffffffffffffffffffffffffffffffffff16815260200191505060405180910390f35b61041a60048036036101008110156100f957600080fd5b810190808035906020019064010000000081111561011657600080fd5b82018360208201111561012857600080fd5b8035906020019184600183028401116401000000008311171561014a57600080fd5b91908080601f016020809104026020016040519081016040528093929190818152602001838380828437600081840152601f19601f820116905080830192505050505050509192919290803590602001906401000000008111156101ad57600080fd5b8201836020820111156101bf57600080fd5b803590602001918460018302840111640100000000831117156101e157600080fd5b91908080601f016020809104026020016040519081016040528093929190818152602001838380828437600081840152601f19601f820116905080830192505050505050509192919290803590602001909291908035906020019064010000000081111561024e57600080fd5b82018360208201111561026057600080fd5b8035906020019184600183028401116401000000008311171561028257600080fd5b91908080601f016020809104026020016040519081016040528093929190818152602001838380828437600081840152601f19601f820116905080830192505050505050509192919290803590602001906401000000008111156102e557600080fd5b8201836020820111156102f757600080fd5b8035906020019184600183028401116401000000008311171561031957600080fd5b91908080601f016020809104026020016040519081016040528093929190818152602001838380828437600081840152601f19601f820116905080830192505050505050509192919290803561ffff1690602001909291908035906020019064010000000081111561038a57600080fd5b82018360208201111561039c57600080fd5b803590602001918460018302840111640100000000831117156103be57600080fd5b91908080601f016020809104026020016040519081016040528093929190818152602001838380828437600081840152601f19601f8201169050808301925050505050505091929192908035906020019092919050505061084f565b6040518082815260200191505060405180910390f35b610438610fc5565b604051808273ffffffffffffffffffffffffffffffffffffffff1673ffffffffffffffffffffffffffffffffffffffff16815260200191505060405180910390f35b6104a66004803603602081101561049057600080fd5b8101908080359060200190929190505050610fef565b6040518080602001806020018a815260200180602001806020018961ffff1661ffff16815260200188151515158152602001806020018773ffffffffffffffffffffffffffffffffffffffff1673ffffffffffffffffffffffffffffffffffffffff16815260200186810386528f818151815260200191508051906020019080838360005b8381101561054657808201518184015260208101905061052b565b50505050905090810190601f1680156105735780820380516001836020036101000a031916815260200191505b5086810385528e818151815260200191508051906020019080838360005b838110156105ac578082015181840152602081019050610591565b50505050905090810190601f1680156105d95780820380516001836020036101000a031916815260200191505b5086810384528c818151815260200191508051906020019080838360005b838110156106125780820151818401526020810190506105f7565b50505050905090810190601f16801561063f5780820380516001836020036101000a031916815260200191505b5086810383528b818151815260200191508051906020019080838360005b8381101561067857808201518184015260208101905061065d565b50505050905090810190601f1680156106a55780820380516001836020036101000a031916815260200191505b50868103825288818151815260200191508051906020019080838360005b838110156106de5780820151818401526020810190506106c3565b50505050905090810190601f16801561070b5780820380516001836020036101000a031916815260200191505b509e50505050505050505050505050505060405180910390f35b6107676004803603602081101561073b57600080fd5b81019080803573ffffffffffffffffffffffffffffffffffffffff169060200190929190505050611370565b005b6107956004803603602081101561077f57600080fd5b8101908080359060200190929190505050611493565b6040518082815260200191505060405180910390f35b6107d7600480360360208110156107c157600080fd5b81019080803590602001909291905050506114ab565b005b610805600480360360208110156107ef57600080fd5b8101908080359060200190929190505050611749565b005b61080f611832565b6040518082815260200191505060405180910390f35b6000600360009054906101000a900473ffffffffffffffffffffffffffffffffffffffff16905090565b6000600360009054906101000a900473ffffffffffffffffffffffffffffffffffffffff1673ffffffffffffffffffffffffffffffffffffffff166323b872dd33600560009054906101000a900473ffffffffffffffffffffffffffffffffffffffff166002546040518463ffffffff1660e01b8152600401808473ffffffffffffffffffffffffffffffffffffffff1673ffffffffffffffffffffffffffffffffffffffff1681526020018373ffffffffffffffffffffffffffffffffffffffff1673ffffffffffffffffffffffffffffffffffffffff1681526020018281526020019350505050602060405180830381600087803b15801561095257600080fd5b505af1158015610966573d6000803e3d6000fd5b505050506040513d602081101561097c57600080fd5b81019080805190602001909291905050506109e2576040517f08c379a00000000000000000000000000000000000000000000000000000000081526004018080602001828103825260328152602001806118de6032913960400191505060405180910390fd5b86600460009054906101000a900473ffffffffffffffffffffffffffffffffffffffff1673ffffffffffffffffffffffffffffffffffffffff16632ae8a7e333836040518363ffffffff1660e01b8152600401808373ffffffffffffffffffffffffffffffffffffffff1673ffffffffffffffffffffffffffffffffffffffff1681526020018281526020019250505060006040518083038186803b158015610a8a57600080fd5b505afa158015610a9e573d6000803e3d6000fd5b50505050600460009054906101000a900473ffffffffffffffffffffffffffffffffffffffff1673ffffffffffffffffffffffffffffffffffffffff16635e2a5a04826040518263ffffffff1660e01b81526004018082815260200191505060206040518083038186803b158015610b1557600080fd5b505afa158015610b29573d6000803e3d6000fd5b505050506040513d6020811015610b3f57600080fd5b8101908080519060200190929190505050610bc2576040517f08c379a00000000000000000000000000000000000000000000000000000000081526004018080602001828103825260138152602001807f496e76616c696420696e737469747574696f6e0000000000000000000000000081525060200191505060405180910390fd5b434260003660405160200180858152602001848152602001838380828437808301925050509450505050506040516020818303038152906040528051906020012091506040518061012001604052808b81526020018a81526020018981526020018881526020018781526020018661ffff1681526020016001151581526020018581526020013373ffffffffffffffffffffffffffffffffffffffff168152506000808481526020019081526020016000206000820151816000019080519060200190610c90929190611838565b506020820151816001019080519060200190610cad929190611838565b50604082015181600201556060820151816003019080519060200190610cd4929190611838565b506080820151816004019080519060200190610cf1929190611838565b5060a08201518160050160006101000a81548161ffff021916908361ffff16021790555060c08201518160050160026101000a81548160ff02191690831515021790555060e0820151816006019080519060200190610d51929190611838565b506101008201518160070160006101000a81548173ffffffffffffffffffffffffffffffffffffffff021916908373ffffffffffffffffffffffffffffffffffffffff1602179055509050508260016000848152602001908152602001600020819055507f27642b2931a34382ccc004dba491fac25d7507234d088dffe445d5d8454266e3828b8b8b8b8b8b60405180888152602001806020018060200187815260200180602001806020018661ffff1661ffff16815260200185810385528b818151815260200191508051906020019080838360005b83811015610e43578082015181840152602081019050610e28565b50505050905090810190601f168015610e705780820380516001836020036101000a031916815260200191505b5085810384528a818151815260200191508051906020019080838360005b83811015610ea9578082015181840152602081019050610e8e565b50505050905090810190601f168015610ed65780820380516001836020036101000a031916815260200191505b50858103835288818151815260200191508051906020019080838360005b83811015610f0f578082015181840152602081019050610ef4565b50505050905090810190601f168015610f3c5780820380516001836020036101000a031916815260200191505b50858103825287818151815260200191508051906020019080838360005b83811015610f75578082015181840152602081019050610f5a565b50505050905090810190601f168015610fa25780820380516001836020036101000a031916815260200191505b509b50505050505050505050505060405180910390a15098975050505050505050565b6000600460009054906101000a900473ffffffffffffffffffffffffffffffffffffffff16905090565b6000602052806000526040600020600091509050806000018054600181600116156101000203166002900480601f01602080910402602001604051908101604052809291908181526020018280546001816001161561010002031660029004801561109b5780601f106110705761010080835404028352916020019161109b565b820191906000526020600020905b81548152906001019060200180831161107e57829003601f168201915b505050505090806001018054600181600116156101000203166002900480601f0160208091040260200160405190810160405280929190818152602001828054600181600116156101000203166002900480156111395780601f1061110e57610100808354040283529160200191611139565b820191906000526020600020905b81548152906001019060200180831161111c57829003601f168201915b505050505090806002015490806003018054600181600116156101000203166002900480601f0160208091040260200160405190810160405280929190818152602001828054600181600116156101000203166002900480156111dd5780601f106111b2576101008083540402835291602001916111dd565b820191906000526020600020905b8154815290600101906020018083116111c057829003601f168201915b505050505090806004018054600181600116156101000203166002900480601f01602080910402602001604051908101604052809291908181526020018280546001816001161561010002031660029004801561127b5780601f106112505761010080835404028352916020019161127b565b820191906000526020600020905b81548152906001019060200180831161125e57829003601f168201915b5050505050908060050160009054906101000a900461ffff16908060050160029054906101000a900460ff1690806006018054600181600116156101000203166002900480601f0160208091040260200160405190810160405280929190818152602001828054600181600116156101000203166002900480156113405780601f1061131557610100808354040283529160200191611340565b820191906000526020600020905b81548152906001019060200180831161132357829003601f168201915b5050505050908060070160009054906101000a900473ffffffffffffffffffffffffffffffffffffffff16905089565b600460009054906101000a900473ffffffffffffffffffffffffffffffffffffffff1673ffffffffffffffffffffffffffffffffffffffff16632ae8a7e3337f61646d696e0000000000000000000000000000000000000000000000000000006040518363ffffffff1660e01b8152600401808373ffffffffffffffffffffffffffffffffffffffff1673ffffffffffffffffffffffffffffffffffffffff1681526020018281526020019250505060006040518083038186803b15801561143757600080fd5b505afa15801561144b573d6000803e3d6000fd5b5050505080600360006101000a81548173ffffffffffffffffffffffffffffffffffffffff021916908373ffffffffffffffffffffffffffffffffffffffff16021790555050565b60016020528060005260406000206000915090505481565b806000806000838152602001908152602001600020600201549050600460009054906101000a900473ffffffffffffffffffffffffffffffffffffffff1673ffffffffffffffffffffffffffffffffffffffff16632ae8a7e333836040518363ffffffff1660e01b8152600401808373ffffffffffffffffffffffffffffffffffffffff1673ffffffffffffffffffffffffffffffffffffffff1681526020018281526020019250505060006040518083038186803b15801561156d57600080fd5b505afa158015611581573d6000803e3d6000fd5b50505050600360009054906101000a900473ffffffffffffffffffffffffffffffffffffffff1673ffffffffffffffffffffffffffffffffffffffff166323b872dd33600560009054906101000a900473ffffffffffffffffffffffffffffffffffffffff166002546040518463ffffffff1660e01b8152600401808473ffffffffffffffffffffffffffffffffffffffff1673ffffffffffffffffffffffffffffffffffffffff1681526020018373ffffffffffffffffffffffffffffffffffffffff1673ffffffffffffffffffffffffffffffffffffffff1681526020018281526020019350505050602060405180830381600087803b15801561168657600080fd5b505af115801561169a573d6000803e3d6000fd5b505050506040513d60208110156116b057600080fd5b8101908080519060200190929190505050611716576040517f08c379a00000000000000000000000000000000000000000000000000000000081526004018080602001828103825260328152602001806118de6032913960400191505060405180910390fd5b600080600085815260200190815260200160002060050160026101000a81548160ff021916908315150217905550505050565b600460009054906101000a900473ffffffffffffffffffffffffffffffffffffffff1673ffffffffffffffffffffffffffffffffffffffff16632ae8a7e3337f61646d696e0000000000000000000000000000000000000000000000000000006040518363ffffffff1660e01b8152600401808373ffffffffffffffffffffffffffffffffffffffff1673ffffffffffffffffffffffffffffffffffffffff1681526020018281526020019250505060006040518083038186803b15801561181057600080fd5b505afa158015611824573d6000803e3d6000fd5b505050508060028190555050565b60025481565b828054600181600116156101000203166002900490600052602060002090601f016020900481019282601f1061187957805160ff19168380011785556118a7565b828001600101855582156118a7579182015b828111156118a657825182559160200191906001019061188b565b5b5090506118b491906118b8565b5090565b6118da91905b808211156118d65760008160009055506001016118be565b5090565b9056fe546f6b656e207472616e73666572206661696c65642e20436865636b2062616c616e636520616e6420617070726f76616c2ea265627a7a7230582021a0221c0a905908e0da50368070fe0a09ead093630c72dbce9fb44f84a34fdd64736f6c634300050a0032",
  "source": "pragma solidity 0.5.10;\n\n/**\n* @title Issuer Interface\n* @dev Only functions used by CertificatePrint are included\n*/\ninterface Issuer {\n    function checkRole(address addr, bytes32 roleName) external view;\n    function isInstitutionValid(bytes32 _institutionHash) external view returns (bool);\n}\n\n/**\n* @title ERC20\n* @dev Only functions used by CertificatePrint are included\n*/\ninterface ERC20 {\n    function allowance(address owner, address spender) external view returns (uint256);\n    function transferFrom(address from, address to, uint256 value) external returns (bool);\n}\n\n/**\n* @title CertificatePrint\n* @dev Prints the certificates\n*/\ncontract CertificatePrint {\n\n    // @dev Certificate data struct\n    struct Certificate {\n        string name;\n        string email;\n        bytes32 institution;\n        string course;\n        string dates;\n        uint16 courseHours;\n        bool valid;\n        string instructorName;\n        address issuerAddress;\n    }\n\n    mapping (bytes32 => Certificate) public certificates;\n    mapping (bytes32 => bytes32) public certificateData;\n    uint public price;\n    ERC20 tokenContract;\n    Issuer accessControl;\n    address wallet;\n\n    // // @dev Event fired for every new certificate, to be checked to get all certificates\n    event logPrintedCertificate(\n        bytes32 _contractAddress,\n        string _name,\n        string _email,\n        bytes32 _institution,\n        string _course,\n        string _dates,\n        uint16 _hours);\n\n    /**\n    * @dev Constructor, sets price, token, wallet and access control state vars\n    * @param _price Price per certificate printed/invalidated\n    * @param _token Token used to pay for certificates\n    * @param _accessControl Contract that manages issuers and institutions\n    * @param _wallet Address to which payments are transfered\n    */\n    constructor (uint _price, address _token, address _accessControl, address _wallet) public {\n        tokenContract = ERC20(_token);\n        accessControl = Issuer(_accessControl);\n        price = _price;\n        wallet = _wallet;\n    }\n\n    /**\n    * @dev Prints a Certificate\n    * @param _name Price per certificate printed/invalidated\n    * @param _email Token used to pay for certificates\n    * @param _institution institution issuing the certificate\n    * @param _course Course\n    * @param _dates Dates\n    * @param _hours Hours\n    * @param _instructorName Instructor Name\n    * @param _data Anything goes\n    */\n    function printCertificate (\n        string memory _name,\n        string memory _email,\n        bytes32 _institution,\n        string memory _course,\n        string memory _dates,\n        uint16 _hours,\n        string memory _instructorName,\n        bytes32 _data\n        )\n        public\n        charge\n        onlyInstitution(_institution)\n        returns (\n            bytes32 certificateAddress\n            ) {\n        // creates certificate address\n        certificateAddress = keccak256(abi.encodePacked(block.number, now, msg.data));\n\n        // create certificate data\n        certificates[certificateAddress] = Certificate(_name, _email, _institution, _course, _dates, _hours, true, _instructorName, msg.sender);\n        certificateData[certificateAddress] = _data;\n\n        // creates the event, to be used to query all the certificates\n        emit logPrintedCertificate(certificateAddress, _name, _email, _institution, _course, _dates, _hours);\n    }\n\n    /**\n    * @dev Invalidates a certificate\n    * @param _certificateAddress Address of the certificate to be invalidated\n    */\n    function invalidateCertificate(bytes32 _certificateAddress) external onlyCertificateIssuer(_certificateAddress) charge {\n        certificates[_certificateAddress].valid = false;\n    }\n\n    /**\n    * @dev Updates price\n    * @param _newPrice new Price (same decimal places as the token)\n    */\n    function updatePrice(uint _newPrice) public onlyAdmin {\n        price = _newPrice;\n    }\n\n    /**\n    * @dev Updates token address\n    * @param _newAddress new Token Address\n    */\n    function updateToken(address _newAddress) public onlyAdmin {\n        tokenContract = ERC20(_newAddress);\n    }\n\n    /**\n    * @dev View token address\n    */\n    function getTokenAddress() public view returns (address) {\n        return(address(tokenContract));\n    }\n\n    /**\n    * @dev Access Control Address\n    */\n    function accessControlAddress() public view returns (address) {\n        return(address(accessControl));\n    }\n\n    // @dev Modifier: allows only if the user has access to institution that issued the certificate\n    modifier onlyCertificateIssuer(bytes32 _certificateAddress) {\n        bytes32 institution = certificates[_certificateAddress].institution;\n        accessControl.checkRole(msg.sender, institution);\n        _;\n    }\n\n    // @dev Modifier: allows only if the user has access to institution that issued the certificate\n    modifier onlyAdmin() {\n        accessControl.checkRole(msg.sender, bytes32(\"admin\"));\n        _;\n    }\n\n    // @dev Modifier: allows only if the user has access to institution that issued the certificate\n    modifier onlyInstitution(bytes32 _institution) {\n        accessControl.checkRole(msg.sender, _institution);\n        require(accessControl.isInstitutionValid(_institution), \"Invalid institution\");\n        _;\n    }\n\n    // @dev Modifier: allows only if the user has access to institution that issued the certificate\n    modifier charge() {\n        require(tokenContract.transferFrom(msg.sender, wallet, price), \"Token transfer failed. Check balance and approval.\");\n        _;\n    }\n}\n",
  "sourcePath": "/Users/polaco/Prog/gbc/smart-contract-certificate/contracts/CertificatePrint.sol",
  "compiler": {
    "name": "solc",
    "version": "0.5.10+commit.5a6ea5b1.Emscripten.clang"
  },
  "schemaVersion": "3.0.11",
  "updatedAt": "2019-06-29T21:58:24.870Z",
  "devdoc": {
    "details": "Prints the certificates",
    "methods": {
      "accessControlAddress()": {
        "details": "Access Control Address"
      },
      "constructor": {
        "details": "Constructor, sets price, token, wallet and access control state vars",
        "params": {
          "_accessControl": "Contract that manages issuers and institutions",
          "_price": "Price per certificate printed/invalidated",
          "_token": "Token used to pay for certificates",
          "_wallet": "Address to which payments are transfered"
        }
      },
      "getTokenAddress()": {
        "details": "View token address"
      },
      "invalidateCertificate(bytes32)": {
        "details": "Invalidates a certificate",
        "params": {
          "_certificateAddress": "Address of the certificate to be invalidated"
        }
      },
      "printCertificate(string,string,bytes32,string,string,uint16,string,bytes32)": {
        "details": "Prints a Certificate",
        "params": {
          "_course": "Course",
          "_data": "Anything goes",
          "_dates": "Dates",
          "_email": "Token used to pay for certificates",
          "_hours": "Hours",
          "_institution": "institution issuing the certificate",
          "_instructorName": "Instructor Name",
          "_name": "Price per certificate printed/invalidated"
        }
      },
      "updatePrice(uint256)": {
        "details": "Updates price",
        "params": {
          "_newPrice": "new Price (same decimal places as the token)"
        }
      },
      "updateToken(address)": {
        "details": "Updates token address",
        "params": {
          "_newAddress": "new Token Address"
        }
      }
    },
    "title": "CertificatePrint"
  },
  "userdoc": {
    "methods": {}
  }
}