{
  "contractName": "Institutions",
  "abi": [
    {
      "constant": true,
      "inputs": [
        {
          "name": "addr",
          "type": "address"
        },
        {
          "name": "roleName",
          "type": "bytes32"
        }
      ],
      "name": "checkRole",
      "outputs": [],
      "payable": false,
      "stateMutability": "view",
      "type": "function"
    },
    {
      "constant": true,
      "inputs": [
        {
          "name": "",
          "type": "bytes32"
        }
      ],
      "name": "institutions",
      "outputs": [
        {
          "name": "code",
          "type": "string"
        },
        {
          "name": "name",
          "type": "string"
        },
        {
          "name": "validFrom",
          "type": "uint256"
        },
        {
          "name": "validTo",
          "type": "uint256"
        },
        {
          "name": "valid",
          "type": "bool"
        }
      ],
      "payable": false,
      "stateMutability": "view",
      "type": "function"
    },
    {
      "constant": true,
      "inputs": [
        {
          "name": "addr",
          "type": "address"
        },
        {
          "name": "roleName",
          "type": "bytes32"
        }
      ],
      "name": "hasRole",
      "outputs": [
        {
          "name": "",
          "type": "bool"
        }
      ],
      "payable": false,
      "stateMutability": "view",
      "type": "function"
    },
    {
      "constant": true,
      "inputs": [],
      "name": "ROLE_ADMIN",
      "outputs": [
        {
          "name": "",
          "type": "bytes32"
        }
      ],
      "payable": false,
      "stateMutability": "view",
      "type": "function"
    },
    {
      "anonymous": false,
      "inputs": [
        {
          "indexed": false,
          "name": "_hash",
          "type": "bytes32"
        },
        {
          "indexed": false,
          "name": "_code",
          "type": "string"
        },
        {
          "indexed": false,
          "name": "_name",
          "type": "string"
        },
        {
          "indexed": false,
          "name": "_timestamp",
          "type": "uint256"
        }
      ],
      "name": "logNewInstitution",
      "type": "event"
    },
    {
      "anonymous": false,
      "inputs": [
        {
          "indexed": false,
          "name": "addr",
          "type": "address"
        },
        {
          "indexed": false,
          "name": "roleName",
          "type": "bytes32"
        }
      ],
      "name": "RoleAdded",
      "type": "event"
    },
    {
      "anonymous": false,
      "inputs": [
        {
          "indexed": false,
          "name": "addr",
          "type": "address"
        },
        {
          "indexed": false,
          "name": "roleName",
          "type": "bytes32"
        }
      ],
      "name": "RoleRemoved",
      "type": "event"
    },
    {
      "constant": false,
      "inputs": [
        {
          "name": "_name",
          "type": "string"
        },
        {
          "name": "_code",
          "type": "string"
        }
      ],
      "name": "addInstitution",
      "outputs": [
        {
          "name": "institutionHash",
          "type": "bytes32"
        }
      ],
      "payable": false,
      "stateMutability": "nonpayable",
      "type": "function"
    },
    {
      "constant": false,
      "inputs": [
        {
          "name": "_institutionHash",
          "type": "bytes32"
        }
      ],
      "name": "invalidateInstitution",
      "outputs": [],
      "payable": false,
      "stateMutability": "nonpayable",
      "type": "function"
    },
    {
      "constant": true,
      "inputs": [
        {
          "name": "_institutionHash",
          "type": "bytes32"
        }
      ],
      "name": "isInstitutionValid",
      "outputs": [
        {
          "name": "",
          "type": "bool"
        }
      ],
      "payable": false,
      "stateMutability": "view",
      "type": "function"
    }
  ],
  "bytecode": "0x6080604052610034337f61646d696e00000000000000000000000000000000000000000000000000000061003960201b60201c565b61012e565b610061826000808481526020019081526020016000206100d060201b610a6b1790919060201c565b7faa695d83684b95e18fda4eda7e1794787e74fbc90097a9582f5c41989687883e8282604051808373ffffffffffffffffffffffffffffffffffffffff1673ffffffffffffffffffffffffffffffffffffffff1681526020018281526020019250505060405180910390a15050565b60018260000160008373ffffffffffffffffffffffffffffffffffffffff1673ffffffffffffffffffffffffffffffffffffffff16815260200190815260200160002060006101000a81548160ff0219169083151502179055505050565b610afe8061013d6000396000f3fe608060405234801561001057600080fd5b506004361061007d5760003560e01c80636baa657c1161005b5780636baa657c1461014457806395829738146102aa578063ac4ab3fb146103d6578063d391014b1461043c5761007d565b80632ae8a7e3146100825780635e2a5a04146100d057806369b1063314610116575b600080fd5b6100ce6004803603604081101561009857600080fd5b81019080803573ffffffffffffffffffffffffffffffffffffffff1690602001909291908035906020019092919050505061045a565b005b6100fc600480360360208110156100e657600080fd5b8101908080359060200190929190505050610482565b604051808215151515815260200191505060405180910390f35b6101426004803603602081101561012c57600080fd5b81019080803590602001909291905050506104d8565b005b6102946004803603604081101561015a57600080fd5b810190808035906020019064010000000081111561017757600080fd5b82018360208201111561018957600080fd5b803590602001918460018302840111640100000000831117156101ab57600080fd5b91908080601f016020809104026020016040519081016040528093929190818152602001838380828437600081840152601f19601f8201169050808301925050505050505091929192908035906020019064010000000081111561020e57600080fd5b82018360208201111561022057600080fd5b8035906020019184600183028401116401000000008311171561024257600080fd5b91908080601f016020809104026020016040519081016040528093929190818152602001838380828437600081840152601f19601f82011690508083019250505050505050919291929050505061054f565b6040518082815260200191505060405180910390f35b6102d6600480360360208110156102c057600080fd5b8101908080359060200190929190505050610791565b60405180806020018060200186815260200185815260200184151515158152602001838103835288818151815260200191508051906020019080838360005b83811015610330578082015181840152602081019050610315565b50505050905090810190601f16801561035d5780820380516001836020036101000a031916815260200191505b50838103825287818151815260200191508051906020019080838360005b8381101561039657808201518184015260208101905061037b565b50505050905090810190601f1680156103c35780820380516001836020036101000a031916815260200191505b5097505050505050505060405180910390f35b610422600480360360408110156103ec57600080fd5b81019080803573ffffffffffffffffffffffffffffffffffffffff16906020019092919080359060200190929190505050610904565b604051808215151515815260200191505060405180910390f35b610444610932565b6040518082815260200191505060405180910390f35b61047e8260008084815260200190815260200160002061095690919063ffffffff16565b5050565b6000600115156001600084815260200190815260200160002060040160009054906101000a900460ff1615151480156104d1575042600160008481526020019081526020016000206003015410155b9050919050565b610502337f61646d696e00000000000000000000000000000000000000000000000000000061045a565b60006001600083815260200190815260200160002060040160006101000a81548160ff02191690831515021790555042600160008381526020019081526020016000206003018190555050565b600061057b337f61646d696e00000000000000000000000000000000000000000000000000000061045a565b434260003660405160200180858152602001848152602001838380828437808301925050509450505050506040516020818303038152906040528051906020012090506040518060a001604052808381526020018481526020014281526020016301e13380420181526020016001151581525060016000838152602001908152602001600020600082015181600001908051906020019061061d9291906109c6565b50602082015181600101908051906020019061063a9291906109c6565b50604082015181600201556060820151816003015560808201518160040160006101000a81548160ff0219169083151502179055509050507f14aa1a2dcd940f5ed0149f4f3045ea8930461684c0f1d1b838c4cb26df476cf281838542604051808581526020018060200180602001848152602001838103835286818151815260200191508051906020019080838360005b838110156106e75780820151818401526020810190506106cc565b50505050905090810190601f1680156107145780820380516001836020036101000a031916815260200191505b50838103825285818151815260200191508051906020019080838360005b8381101561074d578082015181840152602081019050610732565b50505050905090810190601f16801561077a5780820380516001836020036101000a031916815260200191505b50965050505050505060405180910390a192915050565b6001602052806000526040600020600091509050806000018054600181600116156101000203166002900480601f01602080910402602001604051908101604052809291908181526020018280546001816001161561010002031660029004801561083d5780601f106108125761010080835404028352916020019161083d565b820191906000526020600020905b81548152906001019060200180831161082057829003601f168201915b505050505090806001018054600181600116156101000203166002900480601f0160208091040260200160405190810160405280929190818152602001828054600181600116156101000203166002900480156108db5780601f106108b0576101008083540402835291602001916108db565b820191906000526020600020905b8154815290600101906020018083116108be57829003601f168201915b5050505050908060020154908060030154908060040160009054906101000a900460ff16905085565b600061092a8360008085815260200190815260200160002061096d90919063ffffffff16565b905092915050565b7f61646d696e00000000000000000000000000000000000000000000000000000081565b610960828261096d565b61096957600080fd5b5050565b60008260000160008373ffffffffffffffffffffffffffffffffffffffff1673ffffffffffffffffffffffffffffffffffffffff16815260200190815260200160002060009054906101000a900460ff16905092915050565b828054600181600116156101000203166002900490600052602060002090601f016020900481019282601f10610a0757805160ff1916838001178555610a35565b82800160010185558215610a35579182015b82811115610a34578251825591602001919060010190610a19565b5b509050610a429190610a46565b5090565b610a6891905b80821115610a64576000816000905550600101610a4c565b5090565b90565b60018260000160008373ffffffffffffffffffffffffffffffffffffffff1673ffffffffffffffffffffffffffffffffffffffff16815260200190815260200160002060006101000a81548160ff021916908315150217905550505056fea265627a7a723058209ca3a706e7fd6b197a57cd5e47a64ab6fcdbf760b187113e87eccabba3cefc8b64736f6c634300050a0032",
  "source": "pragma solidity 0.5.10;\n\nimport \"./RBAC.sol\";\n\n//  @devManages institutions allowed to issue certificates\ncontract Institutions is RBAC {\n\n    // @dev Institution data struct\n    struct Institution {\n        string code;\n        string name;\n        uint256 validFrom;\n        uint256 validTo;\n        bool valid;\n    }\n\n    // @dev Institution data mapping for storage\n    mapping (bytes32 => Institution) public institutions;\n\n    // @dev Event fired for every new institution, to be checked to get all institutions\n    event logNewInstitution(bytes32 _hash, string _code, string _name, uint256 _timestamp);\n\n    function addInstitution (\n        string memory _name,\n        string memory _code\n        ) public onlyAdmin() returns (bytes32 institutionHash) {\n\n        // creates institution hash\n        institutionHash = keccak256(abi.encodePacked(block.number, now, msg.data));\n\n        // create institution data\n        institutions[institutionHash] = Institution(_code, _name, now, now + 31536000, true);\n\n        // fires the event, to be used to query all the institutions\n        emit logNewInstitution(institutionHash, _code, _name, now);\n    }\n\n    // @dev Invalidates an institution\n    function invalidateInstitution(bytes32 _institutionHash) public onlyAdmin() {\n        institutions[_institutionHash].valid = false;\n        institutions[_institutionHash].validTo = now;\n    }\n\n    function isInstitutionValid(bytes32 _institutionHash) public view returns (bool) {\n        return institutions[_institutionHash].valid == true && institutions[_institutionHash].validTo >= now;\n    }\n\n    // @dev Modifier to allow only users from a given institution to access functions\n    modifier onlyInstitution(bytes32 _institutionHash) {\n        checkRole(msg.sender, _institutionHash);\n        require(isInstitutionValid(_institutionHash), \"Invalid Institution\");\n        _;\n    }\n\n}\n",
  "sourcePath": "/Users/polaco/Prog/gbc/smart-contract-certificate/contracts/Institutions.sol",
  "compiler": {
    "name": "solc",
    "version": "0.5.10+commit.5a6ea5b1.Emscripten.clang"
  },
  "schemaVersion": "3.0.11",
  "updatedAt": "2019-06-29T20:30:31.907Z",
  "devdoc": {
    "methods": {
      "checkRole(address,bytes32)": {
        "details": "reverts if addr does not have role",
        "params": {
          "addr": "address",
          "roleName": "the name of the role // reverts"
        }
      },
      "hasRole(address,bytes32)": {
        "details": "determine if addr has role",
        "params": {
          "addr": "address",
          "roleName": "the name of the role"
        },
        "return": "bool"
      }
    }
  },
  "userdoc": {
    "methods": {}
  }
}