{
  "contractName": "Institutions",
  "abi": [
    {
      "constant": true,
      "inputs": [
        {
          "name": "addr",
          "type": "address"
        },
        {
          "name": "roleName",
          "type": "bytes32"
        }
      ],
      "name": "checkRole",
      "outputs": [],
      "payable": false,
      "stateMutability": "view",
      "type": "function"
    },
    {
      "constant": false,
      "inputs": [
        {
          "name": "addr",
          "type": "address"
        },
        {
          "name": "roleName",
          "type": "bytes32"
        }
      ],
      "name": "adminAddRole",
      "outputs": [],
      "payable": false,
      "stateMutability": "nonpayable",
      "type": "function"
    },
    {
      "constant": true,
      "inputs": [
        {
          "name": "",
          "type": "bytes32"
        }
      ],
      "name": "institutions",
      "outputs": [
        {
          "name": "code",
          "type": "string"
        },
        {
          "name": "name",
          "type": "string"
        },
        {
          "name": "validFrom",
          "type": "uint256"
        },
        {
          "name": "validTo",
          "type": "uint256"
        },
        {
          "name": "valid",
          "type": "bool"
        }
      ],
      "payable": false,
      "stateMutability": "view",
      "type": "function"
    },
    {
      "constant": true,
      "inputs": [
        {
          "name": "addr",
          "type": "address"
        },
        {
          "name": "roleName",
          "type": "bytes32"
        }
      ],
      "name": "hasRole",
      "outputs": [
        {
          "name": "",
          "type": "bool"
        }
      ],
      "payable": false,
      "stateMutability": "view",
      "type": "function"
    },
    {
      "constant": false,
      "inputs": [
        {
          "name": "addr",
          "type": "address"
        },
        {
          "name": "roleName",
          "type": "bytes32"
        }
      ],
      "name": "adminRemoveRole",
      "outputs": [],
      "payable": false,
      "stateMutability": "nonpayable",
      "type": "function"
    },
    {
      "constant": true,
      "inputs": [],
      "name": "ROLE_ADMIN",
      "outputs": [
        {
          "name": "",
          "type": "bytes32"
        }
      ],
      "payable": false,
      "stateMutability": "view",
      "type": "function"
    },
    {
      "anonymous": false,
      "inputs": [
        {
          "indexed": false,
          "name": "_hash",
          "type": "bytes32"
        },
        {
          "indexed": false,
          "name": "name",
          "type": "string"
        },
        {
          "indexed": false,
          "name": "timestamp",
          "type": "uint256"
        }
      ],
      "name": "logNewInstitution",
      "type": "event"
    },
    {
      "anonymous": false,
      "inputs": [
        {
          "indexed": false,
          "name": "addr",
          "type": "address"
        },
        {
          "indexed": false,
          "name": "roleName",
          "type": "bytes32"
        }
      ],
      "name": "RoleAdded",
      "type": "event"
    },
    {
      "anonymous": false,
      "inputs": [
        {
          "indexed": false,
          "name": "addr",
          "type": "address"
        },
        {
          "indexed": false,
          "name": "roleName",
          "type": "bytes32"
        }
      ],
      "name": "RoleRemoved",
      "type": "event"
    },
    {
      "constant": false,
      "inputs": [
        {
          "name": "_name",
          "type": "string"
        },
        {
          "name": "_code",
          "type": "string"
        }
      ],
      "name": "addInstitution",
      "outputs": [
        {
          "name": "institutionHash",
          "type": "bytes32"
        }
      ],
      "payable": false,
      "stateMutability": "nonpayable",
      "type": "function"
    },
    {
      "constant": false,
      "inputs": [
        {
          "name": "_institutionHash",
          "type": "bytes32"
        }
      ],
      "name": "invalidateInstitution",
      "outputs": [],
      "payable": false,
      "stateMutability": "nonpayable",
      "type": "function"
    }
  ],
  "bytecode": "0x6c01000000000000000000000000300260a09081526014608081815260b46040819052909290918291908083835b6020831061004c5780518252601f19909201916020918201910161002d565b5181516020939093036101000a60001901801990911692169190911790526040519201829003909120600181905561009293503392509050640100000000610097810204565b610129565b60008181526020819052604090206100bc908364010000000061085561010482021704565b60408051600160a060020a03841681526020810183905281517faa695d83684b95e18fda4eda7e1794787e74fbc90097a9582f5c41989687883e929181900390910190a15050565b600160a060020a0316600090815260209190915260409020805460ff19166001179055565b61097d806101386000396000f30060806040526004361061008d5763ffffffff7c01000000000000000000000000000000000000000000000000000000006000350416632ae8a7e3811461009257806331549d7a146100c557806369b10633146100f65780636baa657c1461010e57806395829738146101b7578063ac4ab3fb146102c3578063c69b03a214610308578063d391014b14610339575b600080fd5b34801561009e57600080fd5b506100c373ffffffffffffffffffffffffffffffffffffffff6004351660243561034e565b005b3480156100d157600080fd5b506100c373ffffffffffffffffffffffffffffffffffffffff60043516602435610370565b34801561010257600080fd5b506100c3600435610386565b34801561011a57600080fd5b506040805160206004803580820135601f81018490048402850184019095528484526101a594369492936024939284019190819084018382808284375050604080516020601f89358b018035918201839004830284018301909452808352979a9998810197919650918201945092508291508401838280828437509497506103b59650505050505050565b60408051918252519081900360200190f35b3480156101c357600080fd5b506101cf60043561059d565b6040805190810184905260608101839052811515608082015260a08082528651908201528551819060208083019160c08401918a019080838360005b8381101561022357818101518382015260200161020b565b50505050905090810190601f1680156102505780820380516001836020036101000a031916815260200191505b50838103825287518152875160209182019189019080838360005b8381101561028357818101518382015260200161026b565b50505050905090810190601f1680156102b05780820380516001836020036101000a031916815260200191505b5097505050505050505060405180910390f35b3480156102cf57600080fd5b506102f473ffffffffffffffffffffffffffffffffffffffff600435166024356106ed565b604080519115158252519081900360200190f35b34801561031457600080fd5b506100c373ffffffffffffffffffffffffffffffffffffffff60043516602435610712565b34801561034557600080fd5b506101a5610728565b600081815260208190526040902061036c908363ffffffff61072e16565b5050565b61037c3360015461034e565b61036c8282610743565b6103923360015461034e565b600090815260026020526040902060048101805460ff1916905542600390910155565b60006103c33360015461034e565b43426000366040516020018085815260200184815260200183838082843782019150509450505050506040516020818303038152906040526040518082805190602001908083835b6020831061042a5780518252601f19909201916020918201910161040b565b51815160209384036101000a60001901801990921691161790526040805192909401829003822060a0830185528883528282018a9052428386018190526301e1338001606084015260016080840152600081815260028352949094208251805195985092965094506104a1938593509101906108b6565b5060208281015180516104ba92600185019201906108b6565b50604082810151600283015560608084015160038401556080938401516004909301805460ff191693151593909317909255805184815242918101829052602080820184815288519483019490945287517f232dd1a7a5f228343d34f4399fecf110aaba37abbf6ee49bbc5c4889136bb33b9587958a9594939092918401919086019080838360005b8381101561055b578181015183820152602001610543565b50505050905090810190601f1680156105885780820380516001836020036101000a031916815260200191505b5094505050505060405180910390a192915050565b600260208181526000928352604092839020805484516001821615610100026000190190911693909304601f810183900483028401830190945283835292839183018282801561062e5780601f106106035761010080835404028352916020019161062e565b820191906000526020600020905b81548152906001019060200180831161061157829003601f168201915b505050505090806001018054600181600116156101000203166002900480601f0160208091040260200160405190810160405280929190818152602001828054600181600116156101000203166002900480156106cc5780601f106106a1576101008083540402835291602001916106cc565b820191906000526020600020905b8154815290600101906020018083116106af57829003601f168201915b50505050600283015460038401546004909401549293909290915060ff1685565b600081815260208190526040812061070b908463ffffffff6107b616565b9392505050565b61071e3360015461034e565b61036c82826107e2565b60015481565b61073882826107b6565b151561036c57600080fd5b6000818152602081905260409020610761908363ffffffff61085516565b6040805173ffffffffffffffffffffffffffffffffffffffff841681526020810183905281517faa695d83684b95e18fda4eda7e1794787e74fbc90097a9582f5c41989687883e929181900390910190a15050565b73ffffffffffffffffffffffffffffffffffffffff166000908152602091909152604090205460ff1690565b6000818152602081905260409020610800908363ffffffff61088716565b6040805173ffffffffffffffffffffffffffffffffffffffff841681526020810183905281517f47808f9766351846ab3f47ddfd0cfc00fd1a4831674f2c872826932b0184d0be929181900390910190a15050565b73ffffffffffffffffffffffffffffffffffffffff16600090815260209190915260409020805460ff19166001179055565b73ffffffffffffffffffffffffffffffffffffffff16600090815260209190915260409020805460ff19169055565b828054600181600116156101000203166002900490600052602060002090601f016020900481019282601f106108f757805160ff1916838001178555610924565b82800160010185558215610924579182015b82811115610924578251825591602001919060010190610909565b50610930929150610934565b5090565b61094e91905b80821115610930576000815560010161093a565b905600a165627a7a723058200a21c09b8bb4d94d1347c0f5a51d6a1a4e051fc5c6d3199c232faf2423e295d10029",
  "source": "pragma solidity 0.4.24;\n\nimport \"./RBAC.sol\";\n\n//  @devManages institutions allowed to issue certificates\ncontract Institutions is RBAC {\n\n    // @dev Institution data struct\n    struct Institution {\n        string code;\n        string name;\n        uint256 validFrom;\n        uint256 validTo;\n        bool valid;\n    }\n\n    // @dev Institution data mapping for storage\n    mapping (bytes32 => Institution) public institutions;\n\n    // @dev Event fired for every new institution, to be checked to get all institutions\n    event logNewInstitution(bytes32 _hash, string name, uint256 timestamp);\n\n    function addInstitution (string _name, string _code) public onlyAdmin() returns (bytes32 institutionHash) {\n\n        // creates institution hash\n        institutionHash = keccak256(abi.encodePacked(block.number, now, msg.data));\n\n        // create institution data\n        institutions[institutionHash] = Institution(_code, _name, now, now + 31536000, true);\n\n        // fires the event, to be used to query all the institutions\n        emit logNewInstitution(institutionHash, _name, now);\n    }\n\n    // @dev Invalidates an institution\n    function invalidateInstitution(bytes32 _institutionHash) public onlyAdmin() {\n        institutions[_institutionHash].valid = false;\n        institutions[_institutionHash].validTo = now;\n    }\n\n    // @dev Modifier to allow only users from a given institution to access functions\n    modifier onlyInstitution(bytes32 _institutionHash) {\n        checkRole(msg.sender, _institutionHash);\n        _;\n    }\n\n}\n",
  "sourcePath": "/Users/polaco/Prog/goblockchain/smart-contract-certificate/contracts/Institutions.sol",
  "compiler": {
    "name": "solc",
    "version": "0.4.24+commit.e67f0147.Emscripten.clang"
  },
  "schemaVersion": "2.0.1",
  "updatedAt": "2019-01-12T19:37:15.433Z"
}