{
  "contractName": "Institutions",
  "abi": [
    {
      "constant": true,
      "inputs": [
        {
          "name": "addr",
          "type": "address"
        },
        {
          "name": "roleName",
          "type": "string"
        }
      ],
      "name": "checkRole",
      "outputs": [],
      "payable": false,
      "stateMutability": "view",
      "type": "function"
    },
    {
      "constant": true,
      "inputs": [
        {
          "name": "addr",
          "type": "address"
        },
        {
          "name": "roleName",
          "type": "string"
        }
      ],
      "name": "hasRole",
      "outputs": [
        {
          "name": "",
          "type": "bool"
        }
      ],
      "payable": false,
      "stateMutability": "view",
      "type": "function"
    },
    {
      "constant": true,
      "inputs": [
        {
          "name": "",
          "type": "bytes32"
        }
      ],
      "name": "institutionsAccessRights",
      "outputs": [
        {
          "name": "",
          "type": "string"
        }
      ],
      "payable": false,
      "stateMutability": "view",
      "type": "function"
    },
    {
      "constant": false,
      "inputs": [
        {
          "name": "addr",
          "type": "address"
        },
        {
          "name": "roleName",
          "type": "string"
        }
      ],
      "name": "adminRemoveRole",
      "outputs": [],
      "payable": false,
      "stateMutability": "nonpayable",
      "type": "function"
    },
    {
      "constant": true,
      "inputs": [
        {
          "name": "",
          "type": "bytes32"
        }
      ],
      "name": "institutions",
      "outputs": [
        {
          "name": "code",
          "type": "string"
        },
        {
          "name": "name",
          "type": "string"
        },
        {
          "name": "validFrom",
          "type": "uint256"
        },
        {
          "name": "validTo",
          "type": "uint256"
        },
        {
          "name": "valid",
          "type": "bool"
        }
      ],
      "payable": false,
      "stateMutability": "view",
      "type": "function"
    },
    {
      "constant": false,
      "inputs": [
        {
          "name": "addr",
          "type": "address"
        },
        {
          "name": "roleName",
          "type": "string"
        }
      ],
      "name": "adminAddRole",
      "outputs": [],
      "payable": false,
      "stateMutability": "nonpayable",
      "type": "function"
    },
    {
      "constant": true,
      "inputs": [],
      "name": "ROLE_ADMIN",
      "outputs": [
        {
          "name": "",
          "type": "string"
        }
      ],
      "payable": false,
      "stateMutability": "view",
      "type": "function"
    },
    {
      "anonymous": false,
      "inputs": [
        {
          "indexed": false,
          "name": "hash",
          "type": "bytes32"
        },
        {
          "indexed": false,
          "name": "name",
          "type": "string"
        },
        {
          "indexed": false,
          "name": "timestamp",
          "type": "uint256"
        }
      ],
      "name": "logNewInstitution",
      "type": "event"
    },
    {
      "anonymous": false,
      "inputs": [
        {
          "indexed": false,
          "name": "addr",
          "type": "address"
        },
        {
          "indexed": false,
          "name": "roleName",
          "type": "string"
        }
      ],
      "name": "RoleAdded",
      "type": "event"
    },
    {
      "anonymous": false,
      "inputs": [
        {
          "indexed": false,
          "name": "addr",
          "type": "address"
        },
        {
          "indexed": false,
          "name": "roleName",
          "type": "string"
        }
      ],
      "name": "RoleRemoved",
      "type": "event"
    },
    {
      "constant": false,
      "inputs": [
        {
          "name": "_name",
          "type": "string"
        },
        {
          "name": "_code",
          "type": "string"
        }
      ],
      "name": "addInstitution",
      "outputs": [
        {
          "name": "institutionHash",
          "type": "bytes32"
        }
      ],
      "payable": false,
      "stateMutability": "nonpayable",
      "type": "function"
    },
    {
      "constant": false,
      "inputs": [
        {
          "name": "_institutionHash",
          "type": "bytes32"
        }
      ],
      "name": "invalidateInstitution",
      "outputs": [],
      "payable": false,
      "stateMutability": "nonpayable",
      "type": "function"
    }
  ],
  "bytecode": "0x606060405262000059336040805190810160405280600581526020017f61646d696e000000000000000000000000000000000000000000000000000000815250620000b46401000000000262000d5d176401000000009004565b620000ae336040805190810160405280600981526020017f4742435f41444d494e0000000000000000000000000000000000000000000000815250620000b46401000000000262000d5d176401000000009004565b62000278565b62000143826000836040518082805190602001908083835b602083101515620000f35780518252602082019150602081019050602083039250620000cc565b6001836020036101000a03801982511681845116808217855250505050505090500191505090815260200160405180910390206200021a6401000000000262000f0c179091906401000000009004565b7fbfec83d64eaa953f2708271a023ab9ee82057f8f3578d548c1a4ba0b5b7004898282604051808373ffffffffffffffffffffffffffffffffffffffff1673ffffffffffffffffffffffffffffffffffffffff16815260200180602001828103825283818151815260200191508051906020019080838360005b83811015620001da578082015181840152602081019050620001bd565b50505050905090810190601f168015620002085780820380516001836020036101000a031916815260200191505b50935050505060405180910390a15050565b60018260000160008373ffffffffffffffffffffffffffffffffffffffff1673ffffffffffffffffffffffffffffffffffffffff16815260200190815260200160002060006101000a81548160ff0219169083151502179055505050565b6110bb80620002886000396000f300606060405260043610610099576000357c0100000000000000000000000000000000000000000000000000000000900463ffffffff1680630988ca8c1461009e578063217fe6c61461011a5780635d1f4eef146101ae57806369b106331461024e5780636baa657c1461027557806388cee87e1461033157806395829738146103ad578063b25fa92c1461050c578063d391014b14610588575b600080fd5b34156100a957600080fd5b610118600480803573ffffffffffffffffffffffffffffffffffffffff1690602001909190803590602001908201803590602001908080601f01602080910402602001604051908101604052809392919081815260200183838082843782019150505050505091905050610616565b005b341561012557600080fd5b610194600480803573ffffffffffffffffffffffffffffffffffffffff1690602001909190803590602001908201803590602001908080601f01602080910402602001604051908101604052809392919081815260200183838082843782019150505050505091905050610697565b604051808215151515815260200191505060405180910390f35b34156101b957600080fd5b6101d360048080356000191690602001909190505061071e565b6040518080602001828103825283818151815260200191508051906020019080838360005b838110156102135780820151818401526020810190506101f8565b50505050905090810190601f1680156102405780820380516001836020036101000a031916815260200191505b509250505060405180910390f35b341561025957600080fd5b6102736004808035600019169060200190919050506107ce565b005b341561028057600080fd5b610313600480803590602001908201803590602001908080601f0160208091040260200160405190810160405280939291908181526020018383808284378201915050505050509190803590602001908201803590602001908080601f0160208091040260200160405190810160405280939291908181526020018383808284378201915050505050509190505061086c565b60405180826000191660001916815260200191505060405180910390f35b341561033c57600080fd5b6103ab600480803573ffffffffffffffffffffffffffffffffffffffff1690602001909190803590602001908201803590602001908080601f01602080910402602001604051908101604052809392919081815260200183838082843782019150505050505091905050610a86565b005b34156103b857600080fd5b6103d2600480803560001916906020019091905050610ad3565b604051808060200180602001868152602001858152602001841515151581526020018381038352888181546001816001161561010002031660029004815260200191508054600181600116156101000203166002900480156104755780601f1061044a57610100808354040283529160200191610475565b820191906000526020600020905b81548152906001019060200180831161045857829003601f168201915b50508381038252878181546001816001161561010002031660029004815260200191508054600181600116156101000203166002900480156104f85780601f106104cd576101008083540402835291602001916104f8565b820191906000526020600020905b8154815290600101906020018083116104db57829003601f168201915b505097505050505050505060405180910390f35b341561051757600080fd5b610586600480803573ffffffffffffffffffffffffffffffffffffffff1690602001909190803590602001908201803590602001908080601f01602080910402602001604051908101604052809392919081815260200183838082843782019150505050505091905050610b14565b005b341561059357600080fd5b61059b610b61565b6040518080602001828103825283818151815260200191508051906020019080838360005b838110156105db5780820151818401526020810190506105c0565b50505050905090810190601f1680156106085780820380516001836020036101000a031916815260200191505b509250505060405180910390f35b610693826000836040518082805190602001908083835b602083101515610652578051825260208201915060208101905060208303925061062d565b6001836020036101000a0380198251168184511680821785525050505050509050019150509081526020016040518091039020610b9a90919063ffffffff16565b5050565b6000610716836000846040518082805190602001908083835b6020831015156106d557805182526020820191506020810190506020830392506106b0565b6001836020036101000a0380198251168184511680821785525050505050509050019150509081526020016040518091039020610bb390919063ffffffff16565b905092915050565b60026020528060005260406000206000915090508054600181600116156101000203166002900480601f0160208091040260200160405190810160405280929190818152602001828054600181600116156101000203166002900480156107c65780601f1061079b576101008083540402835291602001916107c6565b820191906000526020600020905b8154815290600101906020018083116107a957829003601f168201915b505050505081565b6040805190810160405280600981526020017f4742435f41444d494e000000000000000000000000000000000000000000000081525061080e3382610616565b600060016000846000191660001916815260200190815260200160002060040160006101000a81548160ff02191690831515021790555042600160008460001916600019168152602001908152602001600020600301819055505050565b60006040805190810160405280600981526020017f4742435f41444d494e00000000000000000000000000000000000000000000008152506108ae3382610616565b43426000366040518085815260200184815260200183838082843782019150509450505050506040518091039020915082600260008460001916600019168152602001908152602001600020908051906020019061090d929190610f6a565b5060a0604051908101604052808481526020018581526020014281526020016301e1338042018152602001600115158152506001600084600019166000191681526020019081526020016000206000820151816000019080519060200190610976929190610fea565b506020820151816001019080519060200190610993929190610fea565b50604082015181600201556060820151816003015560808201518160040160006101000a81548160ff0219169083151502179055509050507f232dd1a7a5f228343d34f4399fecf110aaba37abbf6ee49bbc5c4889136bb33b82854260405180846000191660001916815260200180602001838152602001828103825284818151815260200191508051906020019080838360005b83811015610a43578082015181840152602081019050610a28565b50505050905090810190601f168015610a705780820380516001836020036101000a031916815260200191505b5094505050505060405180910390a15092915050565b610ac5336040805190810160405280600581526020017f61646d696e000000000000000000000000000000000000000000000000000000815250610616565b610acf8282610c0c565b5050565b6001602052806000526040600020600091509050806000019080600101908060020154908060030154908060040160009054906101000a900460ff16905085565b610b53336040805190810160405280600581526020017f61646d696e000000000000000000000000000000000000000000000000000000815250610616565b610b5d8282610d5d565b5050565b6040805190810160405280600581526020017f61646d696e00000000000000000000000000000000000000000000000000000081525081565b610ba48282610bb3565b1515610baf57600080fd5b5050565b60008260000160008373ffffffffffffffffffffffffffffffffffffffff1673ffffffffffffffffffffffffffffffffffffffff16815260200190815260200160002060009054906101000a900460ff16905092915050565b610c89826000836040518082805190602001908083835b602083101515610c485780518252602082019150602081019050602083039250610c23565b6001836020036101000a0380198251168184511680821785525050505050509050019150509081526020016040518091039020610eae90919063ffffffff16565b7fd211483f91fc6eff862467f8de606587a30c8fc9981056f051b897a418df803a8282604051808373ffffffffffffffffffffffffffffffffffffffff1673ffffffffffffffffffffffffffffffffffffffff16815260200180602001828103825283818151815260200191508051906020019080838360005b83811015610d1e578082015181840152602081019050610d03565b50505050905090810190601f168015610d4b5780820380516001836020036101000a031916815260200191505b50935050505060405180910390a15050565b610dda826000836040518082805190602001908083835b602083101515610d995780518252602082019150602081019050602083039250610d74565b6001836020036101000a0380198251168184511680821785525050505050509050019150509081526020016040518091039020610f0c90919063ffffffff16565b7fbfec83d64eaa953f2708271a023ab9ee82057f8f3578d548c1a4ba0b5b7004898282604051808373ffffffffffffffffffffffffffffffffffffffff1673ffffffffffffffffffffffffffffffffffffffff16815260200180602001828103825283818151815260200191508051906020019080838360005b83811015610e6f578082015181840152602081019050610e54565b50505050905090810190601f168015610e9c5780820380516001836020036101000a031916815260200191505b50935050505060405180910390a15050565b60008260000160008373ffffffffffffffffffffffffffffffffffffffff1673ffffffffffffffffffffffffffffffffffffffff16815260200190815260200160002060006101000a81548160ff0219169083151502179055505050565b60018260000160008373ffffffffffffffffffffffffffffffffffffffff1673ffffffffffffffffffffffffffffffffffffffff16815260200190815260200160002060006101000a81548160ff0219169083151502179055505050565b828054600181600116156101000203166002900490600052602060002090601f016020900481019282601f10610fab57805160ff1916838001178555610fd9565b82800160010185558215610fd9579182015b82811115610fd8578251825591602001919060010190610fbd565b5b509050610fe6919061106a565b5090565b828054600181600116156101000203166002900490600052602060002090601f016020900481019282601f1061102b57805160ff1916838001178555611059565b82800160010185558215611059579182015b8281111561105857825182559160200191906001019061103d565b5b509050611066919061106a565b5090565b61108c91905b80821115611088576000816000905550600101611070565b5090565b905600a165627a7a723058205fb0f0344cb685b3429259c9331c0c6e1ca4f134087f09bce8248f2e90a197c40029",
  "source": "pragma solidity 0.4.19;\n\nimport \"./AccessControl.sol\";\n\n//  @devManages institutions allowed to issue certificates\ncontract Institutions is accessControl {\n\n    // @dev Institution data struct\n    struct Institution {\n        string code;\n        string name;\n        uint256 validFrom;\n        uint256 validTo;\n        bool valid;\n    }\n\n    // @dev Institution data mapping for storage\n    mapping (bytes32 => Institution) public institutions;\n\n    // @dev Access rights mapping\n    mapping (bytes32 => string) public institutionsAccessRights;\n\n    // @dev Event fired for every new institution, to be checked to get all institutions\n    event logNewInstitution(bytes32 hash, string name, uint256 timestamp);\n\n    function addInstitution (string _name, string _code) public onlyRole(\"GBC_ADMIN\") returns (bytes32 institutionHash) {\n\n        // creates institution hash\n        institutionHash = keccak256(block.number, now, msg.data);\n\n        // creates institution access profile\n        institutionsAccessRights[institutionHash] = _code;\n\n        // create institution data\n        institutions[institutionHash] = Institution(_code, _name, now, now + 31536000, true);\n\n        // fires the event, to be used to query all the institutions\n        logNewInstitution(institutionHash, _name, now);\n    }\n\n    // @dev Invalidates an institution\n    function invalidateInstitution(bytes32 _institutionHash) public onlyRole(\"GBC_ADMIN\") {\n        institutions[_institutionHash].valid = false;\n        institutions[_institutionHash].validTo = now;\n    }\n\n    // @dev Modifier to allow only users from a given institution to access functions\n    modifier onlyInstitution(bytes32 _institutionHash) {\n        require(institutions[_institutionHash].valid == true);\n        checkRole(msg.sender, institutionsAccessRights[_institutionHash]);\n        _;\n    }\n\n}\n",
  "sourcePath": "/Users/polaco/Prog/goblockchain/smart-contract-certificate/contracts/Institutions.sol",
  "compiler": {
    "name": "solc",
    "version": "0.4.19+commit.c4cbbb05.Emscripten.clang"
  },
  "schemaVersion": "2.0.0",
  "updatedAt": "2018-04-06T03:36:01.167Z"
}