{
  "contractName": "Institutions",
  "abi": [
    {
      "constant": true,
      "inputs": [
        {
          "name": "addr",
          "type": "address"
        },
        {
          "name": "roleName",
          "type": "bytes32"
        }
      ],
      "name": "checkRole",
      "outputs": [],
      "payable": false,
      "stateMutability": "view",
      "type": "function"
    },
    {
      "constant": false,
      "inputs": [
        {
          "name": "addr",
          "type": "address"
        },
        {
          "name": "roleName",
          "type": "bytes32"
        }
      ],
      "name": "adminAddRole",
      "outputs": [],
      "payable": false,
      "stateMutability": "nonpayable",
      "type": "function"
    },
    {
      "constant": true,
      "inputs": [
        {
          "name": "",
          "type": "bytes32"
        }
      ],
      "name": "institutions",
      "outputs": [
        {
          "name": "code",
          "type": "string"
        },
        {
          "name": "name",
          "type": "string"
        },
        {
          "name": "validFrom",
          "type": "uint256"
        },
        {
          "name": "validTo",
          "type": "uint256"
        },
        {
          "name": "valid",
          "type": "bool"
        }
      ],
      "payable": false,
      "stateMutability": "view",
      "type": "function"
    },
    {
      "constant": true,
      "inputs": [
        {
          "name": "addr",
          "type": "address"
        },
        {
          "name": "roleName",
          "type": "bytes32"
        }
      ],
      "name": "hasRole",
      "outputs": [
        {
          "name": "",
          "type": "bool"
        }
      ],
      "payable": false,
      "stateMutability": "view",
      "type": "function"
    },
    {
      "constant": false,
      "inputs": [
        {
          "name": "addr",
          "type": "address"
        },
        {
          "name": "roleName",
          "type": "bytes32"
        }
      ],
      "name": "adminRemoveRole",
      "outputs": [],
      "payable": false,
      "stateMutability": "nonpayable",
      "type": "function"
    },
    {
      "constant": true,
      "inputs": [],
      "name": "ROLE_ADMIN",
      "outputs": [
        {
          "name": "",
          "type": "bytes32"
        }
      ],
      "payable": false,
      "stateMutability": "view",
      "type": "function"
    },
    {
      "anonymous": false,
      "inputs": [
        {
          "indexed": false,
          "name": "hash",
          "type": "bytes32"
        },
        {
          "indexed": false,
          "name": "name",
          "type": "string"
        },
        {
          "indexed": false,
          "name": "timestamp",
          "type": "uint256"
        }
      ],
      "name": "logNewInstitution",
      "type": "event"
    },
    {
      "anonymous": false,
      "inputs": [
        {
          "indexed": false,
          "name": "addr",
          "type": "address"
        },
        {
          "indexed": false,
          "name": "roleName",
          "type": "bytes32"
        }
      ],
      "name": "RoleAdded",
      "type": "event"
    },
    {
      "anonymous": false,
      "inputs": [
        {
          "indexed": false,
          "name": "addr",
          "type": "address"
        },
        {
          "indexed": false,
          "name": "roleName",
          "type": "bytes32"
        }
      ],
      "name": "RoleRemoved",
      "type": "event"
    },
    {
      "constant": false,
      "inputs": [
        {
          "name": "_name",
          "type": "string"
        },
        {
          "name": "_code",
          "type": "string"
        }
      ],
      "name": "addInstitution",
      "outputs": [
        {
          "name": "institutionHash",
          "type": "bytes32"
        }
      ],
      "payable": false,
      "stateMutability": "nonpayable",
      "type": "function"
    },
    {
      "constant": false,
      "inputs": [
        {
          "name": "_institutionHash",
          "type": "bytes32"
        }
      ],
      "name": "invalidateInstitution",
      "outputs": [],
      "payable": false,
      "stateMutability": "nonpayable",
      "type": "function"
    }
  ],
  "bytecode": "0x60606040526100713330604051808273ffffffffffffffffffffffffffffffffffffffff1673ffffffffffffffffffffffffffffffffffffffff166c010000000000000000000000000281526014019150506040518091039020610076640100000000026108d4176401000000009004565b610184565b6100af82600080846000191660001916815260200190815260200160002061012664010000000002610a73179091906401000000009004565b7faa695d83684b95e18fda4eda7e1794787e74fbc90097a9582f5c41989687883e8282604051808373ffffffffffffffffffffffffffffffffffffffff1673ffffffffffffffffffffffffffffffffffffffff16815260200182600019166000191681526020019250505060405180910390a15050565b60018260000160008373ffffffffffffffffffffffffffffffffffffffff1673ffffffffffffffffffffffffffffffffffffffff16815260200190815260200160002060006101000a81548160ff0219169083151502179055505050565b610c00806101936000396000f30060606040526004361061008e576000357c0100000000000000000000000000000000000000000000000000000000900463ffffffff1680632ae8a7e31461009357806331549d7a146100d957806369b106331461011f5780636baa657c146101465780639582973814610202578063ac4ab3fb14610361578063c69b03a2146103bf578063d391014b14610405575b600080fd5b341561009e57600080fd5b6100d7600480803573ffffffffffffffffffffffffffffffffffffffff1690602001909190803560001916906020019091905050610436565b005b34156100e457600080fd5b61011d600480803573ffffffffffffffffffffffffffffffffffffffff1690602001909190803560001916906020019091905050610466565b005b341561012a57600080fd5b6101446004808035600019169060200190919050506104ce565b005b341561015157600080fd5b6101e4600480803590602001908201803590602001908080601f0160208091040260200160405190810160405280939291908181526020018383808284378201915050505050509190803590602001908201803590602001908080601f01602080910402602001604051908101604052809392919081815260200183838082843782019150505050505091905050610585565b60405180826000191660001916815260200191505060405180910390f35b341561020d57600080fd5b610227600480803560001916906020019091905050610788565b604051808060200180602001868152602001858152602001841515151581526020018381038352888181546001816001161561010002031660029004815260200191508054600181600116156101000203166002900480156102ca5780601f1061029f576101008083540402835291602001916102ca565b820191906000526020600020905b8154815290600101906020018083116102ad57829003601f168201915b505083810382528781815460018160011615610100020316600290048152602001915080546001816001161561010002031660029004801561034d5780601f106103225761010080835404028352916020019161034d565b820191906000526020600020905b81548152906001019060200180831161033057829003601f168201915b505097505050505050505060405180910390f35b341561036c57600080fd5b6103a5600480803573ffffffffffffffffffffffffffffffffffffffff16906020019091908035600019169060200190919050506107c9565b604051808215151515815260200191505060405180910390f35b34156103ca57600080fd5b610403600480803573ffffffffffffffffffffffffffffffffffffffff16906020019091908035600019169060200190919050506107ff565b005b341561041057600080fd5b610418610867565b60405180826000191660001916815260200191505060405180910390f35b6104628260008084600019166000191681526020019081526020016000206108bb90919063ffffffff16565b5050565b6104c03330604051808273ffffffffffffffffffffffffffffffffffffffff1673ffffffffffffffffffffffffffffffffffffffff166c010000000000000000000000000281526014019150506040518091039020610436565b6104ca82826108d4565b5050565b6105283330604051808273ffffffffffffffffffffffffffffffffffffffff1673ffffffffffffffffffffffffffffffffffffffff166c010000000000000000000000000281526014019150506040518091039020610436565b600060016000836000191660001916815260200190815260200160002060040160006101000a81548160ff021916908315150217905550426001600083600019166000191681526020019081526020016000206003018190555050565b60006105e13330604051808273ffffffffffffffffffffffffffffffffffffffff1673ffffffffffffffffffffffffffffffffffffffff166c010000000000000000000000000281526014019150506040518091039020610436565b43426000366040518085815260200184815260200183838082843782019150509450505050506040518091039020905060a0604051908101604052808381526020018481526020014281526020016301e1338042018152602001600115158152506001600083600019166000191681526020019081526020016000206000820151816000019080519060200190610679929190610b2f565b506020820151816001019080519060200190610696929190610b2f565b50604082015181600201556060820151816003015560808201518160040160006101000a81548160ff0219169083151502179055509050507f232dd1a7a5f228343d34f4399fecf110aaba37abbf6ee49bbc5c4889136bb33b81844260405180846000191660001916815260200180602001838152602001828103825284818151815260200191508051906020019080838360005b8381101561074657808201518184015260208101905061072b565b50505050905090810190601f1680156107735780820380516001836020036101000a031916815260200191505b5094505050505060405180910390a192915050565b6001602052806000526040600020600091509050806000019080600101908060020154908060030154908060040160009054906101000a900460ff16905085565b60006107f783600080856000191660001916815260200190815260200160002061097790919063ffffffff16565b905092915050565b6108593330604051808273ffffffffffffffffffffffffffffffffffffffff1673ffffffffffffffffffffffffffffffffffffffff166c010000000000000000000000000281526014019150506040518091039020610436565b61086382826109d0565b5050565b30604051808273ffffffffffffffffffffffffffffffffffffffff1673ffffffffffffffffffffffffffffffffffffffff166c01000000000000000000000000028152601401915050604051809103902081565b6108c58282610977565b15156108d057600080fd5b5050565b610900826000808460001916600019168152602001908152602001600020610a7390919063ffffffff16565b7faa695d83684b95e18fda4eda7e1794787e74fbc90097a9582f5c41989687883e8282604051808373ffffffffffffffffffffffffffffffffffffffff1673ffffffffffffffffffffffffffffffffffffffff16815260200182600019166000191681526020019250505060405180910390a15050565b60008260000160008373ffffffffffffffffffffffffffffffffffffffff1673ffffffffffffffffffffffffffffffffffffffff16815260200190815260200160002060009054906101000a900460ff16905092915050565b6109fc826000808460001916600019168152602001908152602001600020610ad190919063ffffffff16565b7f47808f9766351846ab3f47ddfd0cfc00fd1a4831674f2c872826932b0184d0be8282604051808373ffffffffffffffffffffffffffffffffffffffff1673ffffffffffffffffffffffffffffffffffffffff16815260200182600019166000191681526020019250505060405180910390a15050565b60018260000160008373ffffffffffffffffffffffffffffffffffffffff1673ffffffffffffffffffffffffffffffffffffffff16815260200190815260200160002060006101000a81548160ff0219169083151502179055505050565b60008260000160008373ffffffffffffffffffffffffffffffffffffffff1673ffffffffffffffffffffffffffffffffffffffff16815260200190815260200160002060006101000a81548160ff0219169083151502179055505050565b828054600181600116156101000203166002900490600052602060002090601f016020900481019282601f10610b7057805160ff1916838001178555610b9e565b82800160010185558215610b9e579182015b82811115610b9d578251825591602001919060010190610b82565b5b509050610bab9190610baf565b5090565b610bd191905b80821115610bcd576000816000905550600101610bb5565b5090565b905600a165627a7a7230582080ef9c54c1c5b5880ca1da1aea05de52b054ec8ba1531cc3aee2bf4353f303020029",
  "source": "pragma solidity 0.4.19;\n\nimport \"./RBAC.sol\";\n\n//  @devManages institutions allowed to issue certificates\ncontract Institutions is RBAC {\n\n    // @dev Institution data struct\n    struct Institution {\n        string code;\n        string name;\n        uint256 validFrom;\n        uint256 validTo;\n        bool valid;\n    }\n\n    // @dev Institution data mapping for storage\n    mapping (bytes32 => Institution) public institutions;\n\n    // @dev Event fired for every new institution, to be checked to get all institutions\n    event logNewInstitution(bytes32 hash, string name, uint256 timestamp);\n\n    function addInstitution (string _name, string _code) public onlyAdmin() returns (bytes32 institutionHash) {\n\n        // creates institution hash\n        institutionHash = keccak256(block.number, now, msg.data);\n\n        // create institution data\n        institutions[institutionHash] = Institution(_code, _name, now, now + 31536000, true);\n\n        // fires the event, to be used to query all the institutions\n        logNewInstitution(institutionHash, _name, now);\n    }\n\n    // @dev Invalidates an institution\n    function invalidateInstitution(bytes32 _institutionHash) public onlyAdmin() {\n        institutions[_institutionHash].valid = false;\n        institutions[_institutionHash].validTo = now;\n    }\n\n    // @dev Modifier to allow only users from a given institution to access functions\n    modifier onlyInstitution(bytes32 _institutionHash) {\n        checkRole(msg.sender, _institutionHash);\n        _;\n    }\n\n}\n",
  "sourcePath": "/Users/polaco/Prog/goblockchain/smart-contract-certificate/contracts/Institutions.sol",
  "compiler": {
    "name": "solc",
    "version": "0.4.19+commit.c4cbbb05.Emscripten.clang"
  },
  "schemaVersion": "2.0.0",
  "updatedAt": "2018-07-16T21:41:30.119Z"
}