{
  "contractName": "Issuers",
  "abi": [
    {
      "constant": true,
      "inputs": [
        {
          "name": "addr",
          "type": "address"
        },
        {
          "name": "roleName",
          "type": "string"
        }
      ],
      "name": "checkRole",
      "outputs": [],
      "payable": false,
      "stateMutability": "view",
      "type": "function"
    },
    {
      "constant": true,
      "inputs": [
        {
          "name": "addr",
          "type": "address"
        },
        {
          "name": "roleName",
          "type": "string"
        }
      ],
      "name": "hasRole",
      "outputs": [
        {
          "name": "",
          "type": "bool"
        }
      ],
      "payable": false,
      "stateMutability": "view",
      "type": "function"
    },
    {
      "constant": true,
      "inputs": [
        {
          "name": "",
          "type": "bytes32"
        }
      ],
      "name": "institutionsAccessRights",
      "outputs": [
        {
          "name": "",
          "type": "string"
        }
      ],
      "payable": false,
      "stateMutability": "view",
      "type": "function"
    },
    {
      "constant": false,
      "inputs": [
        {
          "name": "_institutionHash",
          "type": "bytes32"
        }
      ],
      "name": "invalidateInstitution",
      "outputs": [],
      "payable": false,
      "stateMutability": "nonpayable",
      "type": "function"
    },
    {
      "constant": false,
      "inputs": [
        {
          "name": "_name",
          "type": "string"
        },
        {
          "name": "_code",
          "type": "string"
        }
      ],
      "name": "addInstitution",
      "outputs": [
        {
          "name": "institutionHash",
          "type": "bytes32"
        }
      ],
      "payable": false,
      "stateMutability": "nonpayable",
      "type": "function"
    },
    {
      "constant": false,
      "inputs": [
        {
          "name": "addr",
          "type": "address"
        },
        {
          "name": "roleName",
          "type": "string"
        }
      ],
      "name": "adminRemoveRole",
      "outputs": [],
      "payable": false,
      "stateMutability": "nonpayable",
      "type": "function"
    },
    {
      "constant": true,
      "inputs": [
        {
          "name": "",
          "type": "bytes32"
        }
      ],
      "name": "institutions",
      "outputs": [
        {
          "name": "code",
          "type": "string"
        },
        {
          "name": "name",
          "type": "string"
        },
        {
          "name": "validFrom",
          "type": "uint256"
        },
        {
          "name": "validTo",
          "type": "uint256"
        },
        {
          "name": "valid",
          "type": "bool"
        }
      ],
      "payable": false,
      "stateMutability": "view",
      "type": "function"
    },
    {
      "constant": false,
      "inputs": [
        {
          "name": "addr",
          "type": "address"
        },
        {
          "name": "roleName",
          "type": "string"
        }
      ],
      "name": "adminAddRole",
      "outputs": [],
      "payable": false,
      "stateMutability": "nonpayable",
      "type": "function"
    },
    {
      "constant": true,
      "inputs": [],
      "name": "ROLE_ADMIN",
      "outputs": [
        {
          "name": "",
          "type": "string"
        }
      ],
      "payable": false,
      "stateMutability": "view",
      "type": "function"
    },
    {
      "anonymous": false,
      "inputs": [
        {
          "indexed": false,
          "name": "_address",
          "type": "address"
        },
        {
          "indexed": false,
          "name": "institution",
          "type": "bytes32"
        },
        {
          "indexed": false,
          "name": "timestamp",
          "type": "uint256"
        }
      ],
      "name": "logNewInssuer",
      "type": "event"
    },
    {
      "anonymous": false,
      "inputs": [
        {
          "indexed": false,
          "name": "hash",
          "type": "bytes32"
        },
        {
          "indexed": false,
          "name": "name",
          "type": "string"
        },
        {
          "indexed": false,
          "name": "timestamp",
          "type": "uint256"
        }
      ],
      "name": "logNewInstitution",
      "type": "event"
    },
    {
      "anonymous": false,
      "inputs": [
        {
          "indexed": false,
          "name": "addr",
          "type": "address"
        },
        {
          "indexed": false,
          "name": "roleName",
          "type": "string"
        }
      ],
      "name": "RoleAdded",
      "type": "event"
    },
    {
      "anonymous": false,
      "inputs": [
        {
          "indexed": false,
          "name": "addr",
          "type": "address"
        },
        {
          "indexed": false,
          "name": "roleName",
          "type": "string"
        }
      ],
      "name": "RoleRemoved",
      "type": "event"
    },
    {
      "constant": false,
      "inputs": [
        {
          "name": "_issuerAddress",
          "type": "address"
        },
        {
          "name": "_institution",
          "type": "bytes32"
        }
      ],
      "name": "addIssuer",
      "outputs": [],
      "payable": false,
      "stateMutability": "nonpayable",
      "type": "function"
    },
    {
      "constant": false,
      "inputs": [
        {
          "name": "_issuerAddress",
          "type": "address"
        },
        {
          "name": "_institution",
          "type": "bytes32"
        }
      ],
      "name": "revokeIssuer",
      "outputs": [],
      "payable": false,
      "stateMutability": "nonpayable",
      "type": "function"
    }
  ],
  "bytecode": "0x606060405262000059336040805190810160405280600581526020017f61646d696e000000000000000000000000000000000000000000000000000000815250620000b46401000000000262001049176401000000009004565b620000ae336040805190810160405280600981526020017f4742435f41444d494e0000000000000000000000000000000000000000000000815250620000b46401000000000262001049176401000000009004565b62000278565b62000143826000836040518082805190602001908083835b602083101515620000f35780518252602082019150602081019050602083039250620000cc565b6001836020036101000a03801982511681845116808217855250505050505090500191505090815260200160405180910390206200021a64010000000002620011f8179091906401000000009004565b7fbfec83d64eaa953f2708271a023ab9ee82057f8f3578d548c1a4ba0b5b7004898282604051808373ffffffffffffffffffffffffffffffffffffffff1673ffffffffffffffffffffffffffffffffffffffff16815260200180602001828103825283818151815260200191508051906020019080838360005b83811015620001da578082015181840152602081019050620001bd565b50505050905090810190601f168015620002085780820380516001836020036101000a031916815260200191505b50935050505060405180910390a15050565b60018260000160008373ffffffffffffffffffffffffffffffffffffffff1673ffffffffffffffffffffffffffffffffffffffff16815260200190815260200160002060006101000a81548160ff0219169083151502179055505050565b6113a780620002886000396000f3006060604052600436106100af576000357c0100000000000000000000000000000000000000000000000000000000900463ffffffff1680630988ca8c146100b4578063217fe6c6146101305780635d1f4eef146101c457806369b10633146102645780636baa657c1461028b57806388cee87e1461034757806395829738146103c3578063b126c44514610522578063b25fa92c14610568578063d391014b146105e4578063e36f1dc214610672575b600080fd5b34156100bf57600080fd5b61012e600480803573ffffffffffffffffffffffffffffffffffffffff1690602001909190803590602001908201803590602001908080601f016020809104026020016040519081016040528093929190818152602001838380828437820191505050505050919050506106b8565b005b341561013b57600080fd5b6101aa600480803573ffffffffffffffffffffffffffffffffffffffff1690602001909190803590602001908201803590602001908080601f01602080910402602001604051908101604052809392919081815260200183838082843782019150505050505091905050610739565b604051808215151515815260200191505060405180910390f35b34156101cf57600080fd5b6101e96004808035600019169060200190919050506107c0565b6040518080602001828103825283818151815260200191508051906020019080838360005b8381101561022957808201518184015260208101905061020e565b50505050905090810190601f1680156102565780820380516001836020036101000a031916815260200191505b509250505060405180910390f35b341561026f57600080fd5b610289600480803560001916906020019091905050610870565b005b341561029657600080fd5b610329600480803590602001908201803590602001908080601f0160208091040260200160405190810160405280939291908181526020018383808284378201915050505050509190803590602001908201803590602001908080601f0160208091040260200160405190810160405280939291908181526020018383808284378201915050505050509190505061090e565b60405180826000191660001916815260200191505060405180910390f35b341561035257600080fd5b6103c1600480803573ffffffffffffffffffffffffffffffffffffffff1690602001909190803590602001908201803590602001908080601f01602080910402602001604051908101604052809392919081815260200183838082843782019150505050505091905050610b28565b005b34156103ce57600080fd5b6103e8600480803560001916906020019091905050610b75565b6040518080602001806020018681526020018581526020018415151515815260200183810383528881815460018160011615610100020316600290048152602001915080546001816001161561010002031660029004801561048b5780601f106104605761010080835404028352916020019161048b565b820191906000526020600020905b81548152906001019060200180831161046e57829003601f168201915b505083810382528781815460018160011615610100020316600290048152602001915080546001816001161561010002031660029004801561050e5780601f106104e35761010080835404028352916020019161050e565b820191906000526020600020905b8154815290600101906020018083116104f157829003601f168201915b505097505050505050505060405180910390f35b341561052d57600080fd5b610566600480803573ffffffffffffffffffffffffffffffffffffffff1690602001909190803560001916906020019091905050610bb6565b005b341561057357600080fd5b6105e2600480803573ffffffffffffffffffffffffffffffffffffffff1690602001909190803590602001908201803590602001908080601f01602080910402602001604051908101604052809392919081815260200183838082843782019150505050505091905050610cbb565b005b34156105ef57600080fd5b6105f7610d08565b6040518080602001828103825283818151815260200191508051906020019080838360005b8381101561063757808201518184015260208101905061061c565b50505050905090810190601f1680156106645780820380516001836020036101000a031916815260200191505b509250505060405180910390f35b341561067d57600080fd5b6106b6600480803573ffffffffffffffffffffffffffffffffffffffff1690602001909190803560001916906020019091905050610d41565b005b610735826000836040518082805190602001908083835b6020831015156106f457805182526020820191506020810190506020830392506106cf565b6001836020036101000a0380198251168184511680821785525050505050509050019150509081526020016040518091039020610e8690919063ffffffff16565b5050565b60006107b8836000846040518082805190602001908083835b6020831015156107775780518252602082019150602081019050602083039250610752565b6001836020036101000a0380198251168184511680821785525050505050509050019150509081526020016040518091039020610e9f90919063ffffffff16565b905092915050565b60026020528060005260406000206000915090508054600181600116156101000203166002900480601f0160208091040260200160405190810160405280929190818152602001828054600181600116156101000203166002900480156108685780601f1061083d57610100808354040283529160200191610868565b820191906000526020600020905b81548152906001019060200180831161084b57829003601f168201915b505050505081565b6040805190810160405280600981526020017f4742435f41444d494e00000000000000000000000000000000000000000000008152506108b033826106b8565b600060016000846000191660001916815260200190815260200160002060040160006101000a81548160ff02191690831515021790555042600160008460001916600019168152602001908152602001600020600301819055505050565b60006040805190810160405280600981526020017f4742435f41444d494e000000000000000000000000000000000000000000000081525061095033826106b8565b4342600036604051808581526020018481526020018383808284378201915050945050505050604051809103902091508260026000846000191660001916815260200190815260200160002090805190602001906109af929190611256565b5060a0604051908101604052808481526020018581526020014281526020016301e1338042018152602001600115158152506001600084600019166000191681526020019081526020016000206000820151816000019080519060200190610a189291906112d6565b506020820151816001019080519060200190610a359291906112d6565b50604082015181600201556060820151816003015560808201518160040160006101000a81548160ff0219169083151502179055509050507f232dd1a7a5f228343d34f4399fecf110aaba37abbf6ee49bbc5c4889136bb33b82854260405180846000191660001916815260200180602001838152602001828103825284818151815260200191508051906020019080838360005b83811015610ae5578082015181840152602081019050610aca565b50505050905090810190601f168015610b125780820380516001836020036101000a031916815260200191505b5094505050505060405180910390a15092915050565b610b67336040805190810160405280600581526020017f61646d696e0000000000000000000000000000000000000000000000000000008152506106b8565b610b718282610ef8565b5050565b6001602052806000526040600020600091509050806000019080600101908060020154908060030154908060040160009054906101000a900460ff16905085565b6040805190810160405280600981526020017f4742435f41444d494e0000000000000000000000000000000000000000000000815250610bf633826106b8565b610cb6836001600085600019166000191681526020019081526020016000206000018054600181600116156101000203166002900480601f016020809104026020016040519081016040528092919081815260200182805460018160011615610100020316600290048015610cac5780601f10610c8157610100808354040283529160200191610cac565b820191906000526020600020905b815481529060010190602001808311610c8f57829003601f168201915b5050505050610ef8565b505050565b610cfa336040805190810160405280600581526020017f61646d696e0000000000000000000000000000000000000000000000000000008152506106b8565b610d048282611049565b5050565b6040805190810160405280600581526020017f61646d696e00000000000000000000000000000000000000000000000000000081525081565b6040805190810160405280600981526020017f4742435f41444d494e0000000000000000000000000000000000000000000000815250610d8133826106b8565b6001806000846000191660001916815260200190815260200160002060040160006101000a81548160ff02191690831515021790551515610dc157600080fd5b610e81836001600085600019166000191681526020019081526020016000206000018054600181600116156101000203166002900480601f016020809104026020016040519081016040528092919081815260200182805460018160011615610100020316600290048015610e775780601f10610e4c57610100808354040283529160200191610e77565b820191906000526020600020905b815481529060010190602001808311610e5a57829003601f168201915b5050505050611049565b505050565b610e908282610e9f565b1515610e9b57600080fd5b5050565b60008260000160008373ffffffffffffffffffffffffffffffffffffffff1673ffffffffffffffffffffffffffffffffffffffff16815260200190815260200160002060009054906101000a900460ff16905092915050565b610f75826000836040518082805190602001908083835b602083101515610f345780518252602082019150602081019050602083039250610f0f565b6001836020036101000a038019825116818451168082178552505050505050905001915050908152602001604051809103902061119a90919063ffffffff16565b7fd211483f91fc6eff862467f8de606587a30c8fc9981056f051b897a418df803a8282604051808373ffffffffffffffffffffffffffffffffffffffff1673ffffffffffffffffffffffffffffffffffffffff16815260200180602001828103825283818151815260200191508051906020019080838360005b8381101561100a578082015181840152602081019050610fef565b50505050905090810190601f1680156110375780820380516001836020036101000a031916815260200191505b50935050505060405180910390a15050565b6110c6826000836040518082805190602001908083835b6020831015156110855780518252602082019150602081019050602083039250611060565b6001836020036101000a03801982511681845116808217855250505050505090500191505090815260200160405180910390206111f890919063ffffffff16565b7fbfec83d64eaa953f2708271a023ab9ee82057f8f3578d548c1a4ba0b5b7004898282604051808373ffffffffffffffffffffffffffffffffffffffff1673ffffffffffffffffffffffffffffffffffffffff16815260200180602001828103825283818151815260200191508051906020019080838360005b8381101561115b578082015181840152602081019050611140565b50505050905090810190601f1680156111885780820380516001836020036101000a031916815260200191505b50935050505060405180910390a15050565b60008260000160008373ffffffffffffffffffffffffffffffffffffffff1673ffffffffffffffffffffffffffffffffffffffff16815260200190815260200160002060006101000a81548160ff0219169083151502179055505050565b60018260000160008373ffffffffffffffffffffffffffffffffffffffff1673ffffffffffffffffffffffffffffffffffffffff16815260200190815260200160002060006101000a81548160ff0219169083151502179055505050565b828054600181600116156101000203166002900490600052602060002090601f016020900481019282601f1061129757805160ff19168380011785556112c5565b828001600101855582156112c5579182015b828111156112c45782518255916020019190600101906112a9565b5b5090506112d29190611356565b5090565b828054600181600116156101000203166002900490600052602060002090601f016020900481019282601f1061131757805160ff1916838001178555611345565b82800160010185558215611345579182015b82811115611344578251825591602001919060010190611329565b5b5090506113529190611356565b5090565b61137891905b8082111561137457600081600090555060010161135c565b5090565b905600a165627a7a723058202c6b220c2f2274640b9d3ea9551fee5eeab2411296c08ed4b88cf3e32394b86f0029",
  "source": "pragma solidity 0.4.19;\n\nimport \"./Institutions.sol\";\n\n//  @devManages users allowed to issue certificates from a determined institution\ncontract Issuers is Institutions {\n\n    // @dev Event fired for every new issuer, to be checked to get all issuers\n    event logNewInssuer(address _address, bytes32 institution, uint256 timestamp);\n\n    // @dev adds new Issuer to valid Institution\n    function addIssuer(address _issuerAddress, bytes32 _institution) public onlyRole(\"GBC_ADMIN\") {\n        require(institutions[_institution].valid = true);\n        addRole(_issuerAddress, institutions[_institution].code);\n    }\n\n    // @dev revokes access from Issuer\n    function revokeIssuer(address _issuerAddress, bytes32 _institution) public onlyRole(\"GBC_ADMIN\") {\n        removeRole(_issuerAddress, institutions[_institution].code);\n    }\n}\n",
  "sourcePath": "/Users/polaco/Prog/goblockchain/smart-contract-certificate/contracts/Issuers.sol",
  "compiler": {
    "name": "solc",
    "version": "0.4.19+commit.c4cbbb05.Emscripten.clang"
  },
  "schemaVersion": "2.0.0",
  "updatedAt": "2018-04-06T03:36:01.168Z"
}