{
  "contractName": "Issuers",
  "abi": [
    {
      "constant": true,
      "inputs": [
        {
          "name": "addr",
          "type": "address"
        },
        {
          "name": "roleName",
          "type": "bytes32"
        }
      ],
      "name": "checkRole",
      "outputs": [],
      "payable": false,
      "stateMutability": "view",
      "type": "function",
      "signature": "0x2ae8a7e3"
    },
    {
      "constant": false,
      "inputs": [
        {
          "name": "addr",
          "type": "address"
        },
        {
          "name": "roleName",
          "type": "bytes32"
        }
      ],
      "name": "adminAddRole",
      "outputs": [],
      "payable": false,
      "stateMutability": "nonpayable",
      "type": "function",
      "signature": "0x31549d7a"
    },
    {
      "constant": false,
      "inputs": [
        {
          "name": "_institutionHash",
          "type": "bytes32"
        }
      ],
      "name": "invalidateInstitution",
      "outputs": [],
      "payable": false,
      "stateMutability": "nonpayable",
      "type": "function",
      "signature": "0x69b10633"
    },
    {
      "constant": false,
      "inputs": [
        {
          "name": "_name",
          "type": "string"
        },
        {
          "name": "_code",
          "type": "string"
        }
      ],
      "name": "addInstitution",
      "outputs": [
        {
          "name": "institutionHash",
          "type": "bytes32"
        }
      ],
      "payable": false,
      "stateMutability": "nonpayable",
      "type": "function",
      "signature": "0x6baa657c"
    },
    {
      "constant": true,
      "inputs": [
        {
          "name": "",
          "type": "bytes32"
        }
      ],
      "name": "institutions",
      "outputs": [
        {
          "name": "code",
          "type": "string"
        },
        {
          "name": "name",
          "type": "string"
        },
        {
          "name": "validFrom",
          "type": "uint256"
        },
        {
          "name": "validTo",
          "type": "uint256"
        },
        {
          "name": "valid",
          "type": "bool"
        }
      ],
      "payable": false,
      "stateMutability": "view",
      "type": "function",
      "signature": "0x95829738"
    },
    {
      "constant": true,
      "inputs": [
        {
          "name": "addr",
          "type": "address"
        },
        {
          "name": "roleName",
          "type": "bytes32"
        }
      ],
      "name": "hasRole",
      "outputs": [
        {
          "name": "",
          "type": "bool"
        }
      ],
      "payable": false,
      "stateMutability": "view",
      "type": "function",
      "signature": "0xac4ab3fb"
    },
    {
      "constant": false,
      "inputs": [
        {
          "name": "addr",
          "type": "address"
        },
        {
          "name": "roleName",
          "type": "bytes32"
        }
      ],
      "name": "adminRemoveRole",
      "outputs": [],
      "payable": false,
      "stateMutability": "nonpayable",
      "type": "function",
      "signature": "0xc69b03a2"
    },
    {
      "constant": true,
      "inputs": [],
      "name": "ROLE_ADMIN",
      "outputs": [
        {
          "name": "",
          "type": "bytes32"
        }
      ],
      "payable": false,
      "stateMutability": "view",
      "type": "function",
      "signature": "0xd391014b"
    },
    {
      "anonymous": false,
      "inputs": [
        {
          "indexed": false,
          "name": "_address",
          "type": "address"
        },
        {
          "indexed": false,
          "name": "institution",
          "type": "bytes32"
        },
        {
          "indexed": false,
          "name": "timestamp",
          "type": "uint256"
        }
      ],
      "name": "logNewInssuer",
      "type": "event",
      "signature": "0x11645cb1c6d01b34f90ab6a27e540cfd35ed6d182d2e59ea6231cd20f237fffc"
    },
    {
      "anonymous": false,
      "inputs": [
        {
          "indexed": false,
          "name": "_hash",
          "type": "bytes32"
        },
        {
          "indexed": false,
          "name": "name",
          "type": "string"
        },
        {
          "indexed": false,
          "name": "timestamp",
          "type": "uint256"
        }
      ],
      "name": "logNewInstitution",
      "type": "event",
      "signature": "0x232dd1a7a5f228343d34f4399fecf110aaba37abbf6ee49bbc5c4889136bb33b"
    },
    {
      "anonymous": false,
      "inputs": [
        {
          "indexed": false,
          "name": "addr",
          "type": "address"
        },
        {
          "indexed": false,
          "name": "roleName",
          "type": "bytes32"
        }
      ],
      "name": "RoleAdded",
      "type": "event",
      "signature": "0xaa695d83684b95e18fda4eda7e1794787e74fbc90097a9582f5c41989687883e"
    },
    {
      "anonymous": false,
      "inputs": [
        {
          "indexed": false,
          "name": "addr",
          "type": "address"
        },
        {
          "indexed": false,
          "name": "roleName",
          "type": "bytes32"
        }
      ],
      "name": "RoleRemoved",
      "type": "event",
      "signature": "0x47808f9766351846ab3f47ddfd0cfc00fd1a4831674f2c872826932b0184d0be"
    },
    {
      "constant": false,
      "inputs": [
        {
          "name": "_issuerAddress",
          "type": "address"
        },
        {
          "name": "_institution",
          "type": "bytes32"
        }
      ],
      "name": "addIssuer",
      "outputs": [],
      "payable": false,
      "stateMutability": "nonpayable",
      "type": "function",
      "signature": "0xe36f1dc2"
    },
    {
      "constant": false,
      "inputs": [
        {
          "name": "_issuerAddress",
          "type": "address"
        },
        {
          "name": "_institution",
          "type": "bytes32"
        }
      ],
      "name": "revokeIssuer",
      "outputs": [],
      "payable": false,
      "stateMutability": "nonpayable",
      "type": "function",
      "signature": "0xb126c445"
    }
  ],
  "bytecode": "0x6c01000000000000000000000000300260a09081526014608081815260b46040819052909290918291908083835b6020831061004c5780518252601f19909201916020918201910161002d565b5181516020939093036101000a60001901801990911692169190911790526040519201829003909120600181905561009293503392509050640100000000610097810204565b610129565b60008181526020819052604090206100bc908364010000000061086161010482021704565b60408051600160a060020a03841681526020810183905281517faa695d83684b95e18fda4eda7e1794787e74fbc90097a9582f5c41989687883e929181900390910190a15050565b600160a060020a0316600090815260209190915260409020805460ff19166001179055565b61096f806101386000396000f3006080604052600436106100a35763ffffffff7c01000000000000000000000000000000000000000000000000000000006000350416632ae8a7e381146100a857806331549d7a146100ce57806369b10633146100f25780636baa657c1461010a57806395829738146101b3578063ac4ab3fb146102bf578063b126c445146102f7578063c69b03a2146102f7578063d391014b1461031b578063e36f1dc214610330575b600080fd5b3480156100b457600080fd5b506100cc600160a060020a0360043516602435610354565b005b3480156100da57600080fd5b506100cc600160a060020a0360043516602435610376565b3480156100fe57600080fd5b506100cc60043561038c565b34801561011657600080fd5b506040805160206004803580820135601f81018490048402850184019095528484526101a194369492936024939284019190819084018382808284375050604080516020601f89358b018035918201839004830284018301909452808352979a9998810197919650918201945092508291508401838280828437509497506103bb9650505050505050565b60408051918252519081900360200190f35b3480156101bf57600080fd5b506101cb6004356105a3565b6040805190810184905260608101839052811515608082015260a08082528651908201528551819060208083019160c08401918a019080838360005b8381101561021f578181015183820152602001610207565b50505050905090810190601f16801561024c5780820380516001836020036101000a031916815260200191505b50838103825287518152875160209182019189019080838360005b8381101561027f578181015183820152602001610267565b50505050905090810190601f1680156102ac5780820380516001836020036101000a031916815260200191505b5097505050505050505060405180910390f35b3480156102cb57600080fd5b506102e3600160a060020a03600435166024356106f3565b604080519115158252519081900360200190f35b34801561030357600080fd5b506100cc600160a060020a0360043516602435610718565b34801561032757600080fd5b506101a161072e565b34801561033c57600080fd5b506100cc600160a060020a0360043516602435610734565b6000818152602081905260409020610372908363ffffffff61076116565b5050565b61038233600154610354565b6103728282610776565b61039833600154610354565b600090815260026020526040902060048101805460ff1916905542600390910155565b60006103c933600154610354565b43426000366040516020018085815260200184815260200183838082843782019150509450505050506040516020818303038152906040526040518082805190602001908083835b602083106104305780518252601f199092019160209182019101610411565b51815160209384036101000a60001901801990921691161790526040805192909401829003822060a0830185528883528282018a9052428386018190526301e1338001606084015260016080840152600081815260028352949094208251805195985092965094506104a7938593509101906108a8565b5060208281015180516104c092600185019201906108a8565b50604082810151600283015560608084015160038401556080938401516004909301805460ff191693151593909317909255805184815242918101829052602080820184815288519483019490945287517f232dd1a7a5f228343d34f4399fecf110aaba37abbf6ee49bbc5c4889136bb33b9587958a9594939092918401919086019080838360005b83811015610561578181015183820152602001610549565b50505050905090810190601f16801561058e5780820380516001836020036101000a031916815260200191505b5094505050505060405180910390a192915050565b600260208181526000928352604092839020805484516001821615610100026000190190911693909304601f81018390048302840183019094528383529283918301828280156106345780601f1061060957610100808354040283529160200191610634565b820191906000526020600020905b81548152906001019060200180831161061757829003601f168201915b505050505090806001018054600181600116156101000203166002900480601f0160208091040260200160405190810160405280929190818152602001828054600181600116156101000203166002900480156106d25780601f106106a7576101008083540402835291602001916106d2565b820191906000526020600020905b8154815290600101906020018083116106b557829003601f168201915b50505050600283015460038401546004909401549293909290915060ff1685565b6000818152602081905260408120610711908463ffffffff6107dc16565b9392505050565b61072433600154610354565b61037282826107fb565b60015481565b61074033600154610354565b6000818152600260205260409020600401805460ff19166001179055610382565b61076b82826107dc565b151561037257600080fd5b6000818152602081905260409020610794908363ffffffff61086116565b60408051600160a060020a03841681526020810183905281517faa695d83684b95e18fda4eda7e1794787e74fbc90097a9582f5c41989687883e929181900390910190a15050565b600160a060020a03166000908152602091909152604090205460ff1690565b6000818152602081905260409020610819908363ffffffff61088616565b60408051600160a060020a03841681526020810183905281517f47808f9766351846ab3f47ddfd0cfc00fd1a4831674f2c872826932b0184d0be929181900390910190a15050565b600160a060020a0316600090815260209190915260409020805460ff19166001179055565b600160a060020a0316600090815260209190915260409020805460ff19169055565b828054600181600116156101000203166002900490600052602060002090601f016020900481019282601f106108e957805160ff1916838001178555610916565b82800160010185558215610916579182015b828111156109165782518255916020019190600101906108fb565b50610922929150610926565b5090565b61094091905b80821115610922576000815560010161092c565b905600a165627a7a72305820eecc7e342d0cb04ea59e2f2b0d0727b4bd8681d6968c854ee6e6b75b9a9701530029",
  "source": "pragma solidity 0.4.24;\n\nimport \"./Institutions.sol\";\n\n//  @devManages users allowed to issue certificates from a determined institution\ncontract Issuers is Institutions {\n\n    // @dev Event fired for every new issuer, to be checked to get all issuers\n    event logNewInssuer(address _address, bytes32 institution, uint256 timestamp);\n\n    // @dev adds new Issuer to valid Institution\n    function addIssuer(address _issuerAddress, bytes32 _institution) public onlyAdmin() {\n        require(institutions[_institution].valid = true, \"Institution inactive or invalid.\");\n        addRole(_issuerAddress, _institution);\n    }\n\n    // @dev revokes access from Issuer\n    function revokeIssuer(address _issuerAddress, bytes32 _institution) public onlyAdmin() {\n        removeRole(_issuerAddress, _institution);\n    }\n}\n",
  "sourcePath": "/Users/polaco/Prog/goblockchain/smart-contract-certificate/contracts/Issuers.sol",
  "compiler": {
    "name": "solc",
    "version": "0.4.24+commit.e67f0147.Emscripten.clang"
  },
  "schemaVersion": "3.0.1",
  "updatedAt": "2019-01-12T20:26:48.029Z"
}