{
  "contractName": "Issuers",
  "abi": [
    {
      "constant": true,
      "inputs": [
        {
          "name": "addr",
          "type": "address"
        },
        {
          "name": "roleName",
          "type": "bytes32"
        }
      ],
      "name": "checkRole",
      "outputs": [],
      "payable": false,
      "stateMutability": "view",
      "type": "function"
    },
    {
      "constant": true,
      "inputs": [
        {
          "name": "_institutionHash",
          "type": "bytes32"
        }
      ],
      "name": "isInstitutionValid",
      "outputs": [
        {
          "name": "",
          "type": "bool"
        }
      ],
      "payable": false,
      "stateMutability": "view",
      "type": "function"
    },
    {
      "constant": false,
      "inputs": [
        {
          "name": "_institutionHash",
          "type": "bytes32"
        }
      ],
      "name": "invalidateInstitution",
      "outputs": [],
      "payable": false,
      "stateMutability": "nonpayable",
      "type": "function"
    },
    {
      "constant": false,
      "inputs": [
        {
          "name": "_name",
          "type": "string"
        },
        {
          "name": "_code",
          "type": "string"
        }
      ],
      "name": "addInstitution",
      "outputs": [
        {
          "name": "institutionHash",
          "type": "bytes32"
        }
      ],
      "payable": false,
      "stateMutability": "nonpayable",
      "type": "function"
    },
    {
      "constant": true,
      "inputs": [
        {
          "name": "",
          "type": "bytes32"
        }
      ],
      "name": "institutions",
      "outputs": [
        {
          "name": "code",
          "type": "string"
        },
        {
          "name": "name",
          "type": "string"
        },
        {
          "name": "validFrom",
          "type": "uint256"
        },
        {
          "name": "validTo",
          "type": "uint256"
        },
        {
          "name": "valid",
          "type": "bool"
        }
      ],
      "payable": false,
      "stateMutability": "view",
      "type": "function"
    },
    {
      "constant": true,
      "inputs": [
        {
          "name": "addr",
          "type": "address"
        },
        {
          "name": "roleName",
          "type": "bytes32"
        }
      ],
      "name": "hasRole",
      "outputs": [
        {
          "name": "",
          "type": "bool"
        }
      ],
      "payable": false,
      "stateMutability": "view",
      "type": "function"
    },
    {
      "constant": true,
      "inputs": [],
      "name": "ROLE_ADMIN",
      "outputs": [
        {
          "name": "",
          "type": "bytes32"
        }
      ],
      "payable": false,
      "stateMutability": "view",
      "type": "function"
    },
    {
      "anonymous": false,
      "inputs": [
        {
          "indexed": false,
          "name": "_address",
          "type": "address"
        },
        {
          "indexed": false,
          "name": "_institution",
          "type": "bytes32"
        },
        {
          "indexed": false,
          "name": "timestamp",
          "type": "uint256"
        }
      ],
      "name": "logNewIssuer",
      "type": "event"
    },
    {
      "anonymous": false,
      "inputs": [
        {
          "indexed": false,
          "name": "_hash",
          "type": "bytes32"
        },
        {
          "indexed": false,
          "name": "_code",
          "type": "string"
        },
        {
          "indexed": false,
          "name": "_name",
          "type": "string"
        },
        {
          "indexed": false,
          "name": "_timestamp",
          "type": "uint256"
        }
      ],
      "name": "logNewInstitution",
      "type": "event"
    },
    {
      "anonymous": false,
      "inputs": [
        {
          "indexed": false,
          "name": "addr",
          "type": "address"
        },
        {
          "indexed": false,
          "name": "roleName",
          "type": "bytes32"
        }
      ],
      "name": "RoleAdded",
      "type": "event"
    },
    {
      "anonymous": false,
      "inputs": [
        {
          "indexed": false,
          "name": "addr",
          "type": "address"
        },
        {
          "indexed": false,
          "name": "roleName",
          "type": "bytes32"
        }
      ],
      "name": "RoleRemoved",
      "type": "event"
    },
    {
      "constant": false,
      "inputs": [
        {
          "name": "_issuerAddress",
          "type": "address"
        },
        {
          "name": "_institution",
          "type": "bytes32"
        }
      ],
      "name": "addIssuer",
      "outputs": [],
      "payable": false,
      "stateMutability": "nonpayable",
      "type": "function"
    },
    {
      "constant": false,
      "inputs": [
        {
          "name": "_issuerAddress",
          "type": "address"
        },
        {
          "name": "_institution",
          "type": "bytes32"
        }
      ],
      "name": "revokeIssuer",
      "outputs": [],
      "payable": false,
      "stateMutability": "nonpayable",
      "type": "function"
    }
  ],
  "bytecode": "0x6080604052610034337f61646d696e00000000000000000000000000000000000000000000000000000061003960201b60201c565b61012e565b610061826000808481526020019081526020016000206100d060201b610d7e1790919060201c565b7faa695d83684b95e18fda4eda7e1794787e74fbc90097a9582f5c41989687883e8282604051808373ffffffffffffffffffffffffffffffffffffffff1673ffffffffffffffffffffffffffffffffffffffff1681526020018281526020019250505060405180910390a15050565b60018260000160008373ffffffffffffffffffffffffffffffffffffffff1673ffffffffffffffffffffffffffffffffffffffff16815260200190815260200160002060006101000a81548160ff0219169083151502179055505050565b610eb68061013d6000396000f3fe608060405234801561001057600080fd5b50600436106100935760003560e01c8063958297381161006657806395829738146102c0578063ac4ab3fb146103ec578063b126c44514610452578063d391014b146104a0578063e36f1dc2146104be57610093565b80632ae8a7e3146100985780635e2a5a04146100e657806369b106331461012c5780636baa657c1461015a575b600080fd5b6100e4600480360360408110156100ae57600080fd5b81019080803573ffffffffffffffffffffffffffffffffffffffff1690602001909291908035906020019092919050505061050c565b005b610112600480360360208110156100fc57600080fd5b8101908080359060200190929190505050610534565b604051808215151515815260200191505060405180910390f35b6101586004803603602081101561014257600080fd5b810190808035906020019092919050505061058a565b005b6102aa6004803603604081101561017057600080fd5b810190808035906020019064010000000081111561018d57600080fd5b82018360208201111561019f57600080fd5b803590602001918460018302840111640100000000831117156101c157600080fd5b91908080601f016020809104026020016040519081016040528093929190818152602001838380828437600081840152601f19601f8201169050808301925050505050505091929192908035906020019064010000000081111561022457600080fd5b82018360208201111561023657600080fd5b8035906020019184600183028401116401000000008311171561025857600080fd5b91908080601f016020809104026020016040519081016040528093929190818152602001838380828437600081840152601f19601f820116905080830192505050505050509192919290505050610601565b6040518082815260200191505060405180910390f35b6102ec600480360360208110156102d657600080fd5b8101908080359060200190929190505050610843565b60405180806020018060200186815260200185815260200184151515158152602001838103835288818151815260200191508051906020019080838360005b8381101561034657808201518184015260208101905061032b565b50505050905090810190601f1680156103735780820380516001836020036101000a031916815260200191505b50838103825287818151815260200191508051906020019080838360005b838110156103ac578082015181840152602081019050610391565b50505050905090810190601f1680156103d95780820380516001836020036101000a031916815260200191505b5097505050505050505060405180910390f35b6104386004803603604081101561040257600080fd5b81019080803573ffffffffffffffffffffffffffffffffffffffff169060200190929190803590602001909291905050506109b6565b604051808215151515815260200191505060405180910390f35b61049e6004803603604081101561046857600080fd5b81019080803573ffffffffffffffffffffffffffffffffffffffff169060200190929190803590602001909291905050506109e4565b005b6104a8610a1c565b6040518082815260200191505060405180910390f35b61050a600480360360408110156104d457600080fd5b81019080803573ffffffffffffffffffffffffffffffffffffffff16906020019092919080359060200190929190505050610a40565b005b61053082600080848152602001908152602001600020610b8a90919063ffffffff16565b5050565b6000600115156001600084815260200190815260200160002060040160009054906101000a900460ff161515148015610583575042600160008481526020019081526020016000206003015410155b9050919050565b6105b4337f61646d696e00000000000000000000000000000000000000000000000000000061050c565b60006001600083815260200190815260200160002060040160006101000a81548160ff02191690831515021790555042600160008381526020019081526020016000206003018190555050565b600061062d337f61646d696e00000000000000000000000000000000000000000000000000000061050c565b434260003660405160200180858152602001848152602001838380828437808301925050509450505050506040516020818303038152906040528051906020012090506040518060a001604052808381526020018481526020014281526020016301e1338042018152602001600115158152506001600083815260200190815260200160002060008201518160000190805190602001906106cf929190610ddc565b5060208201518160010190805190602001906106ec929190610ddc565b50604082015181600201556060820151816003015560808201518160040160006101000a81548160ff0219169083151502179055509050507f14aa1a2dcd940f5ed0149f4f3045ea8930461684c0f1d1b838c4cb26df476cf281838542604051808581526020018060200180602001848152602001838103835286818151815260200191508051906020019080838360005b8381101561079957808201518184015260208101905061077e565b50505050905090810190601f1680156107c65780820380516001836020036101000a031916815260200191505b50838103825285818151815260200191508051906020019080838360005b838110156107ff5780820151818401526020810190506107e4565b50505050905090810190601f16801561082c5780820380516001836020036101000a031916815260200191505b50965050505050505060405180910390a192915050565b6001602052806000526040600020600091509050806000018054600181600116156101000203166002900480601f0160208091040260200160405190810160405280929190818152602001828054600181600116156101000203166002900480156108ef5780601f106108c4576101008083540402835291602001916108ef565b820191906000526020600020905b8154815290600101906020018083116108d257829003601f168201915b505050505090806001018054600181600116156101000203166002900480601f01602080910402602001604051908101604052809291908181526020018280546001816001161561010002031660029004801561098d5780601f106109625761010080835404028352916020019161098d565b820191906000526020600020905b81548152906001019060200180831161097057829003601f168201915b5050505050908060020154908060030154908060040160009054906101000a900460ff16905085565b60006109dc83600080858152602001908152602001600020610ba190919063ffffffff16565b905092915050565b610a0e337f61646d696e00000000000000000000000000000000000000000000000000000061050c565b610a188282610bfa565b5050565b7f61646d696e00000000000000000000000000000000000000000000000000000081565b610a6a337f61646d696e00000000000000000000000000000000000000000000000000000061050c565b600180600083815260200190815260200160002060040160006101000a81548160ff0219169083151502179055610b09576040517f08c379a00000000000000000000000000000000000000000000000000000000081526004018080602001828103825260208152602001807f496e737469747574696f6e20696e616374697665206f7220696e76616c69642e81525060200191505060405180910390fd5b610b138282610c8d565b7ff8ec0a8a68baaaedfc92ec53e920ee3d0dec58ec56fcba1cdc1f923235523a4d828242604051808473ffffffffffffffffffffffffffffffffffffffff1673ffffffffffffffffffffffffffffffffffffffff168152602001838152602001828152602001935050505060405180910390a15050565b610b948282610ba1565b610b9d57600080fd5b5050565b60008260000160008373ffffffffffffffffffffffffffffffffffffffff1673ffffffffffffffffffffffffffffffffffffffff16815260200190815260200160002060009054906101000a900460ff16905092915050565b610c1e82600080848152602001908152602001600020610d2090919063ffffffff16565b7f47808f9766351846ab3f47ddfd0cfc00fd1a4831674f2c872826932b0184d0be8282604051808373ffffffffffffffffffffffffffffffffffffffff1673ffffffffffffffffffffffffffffffffffffffff1681526020018281526020019250505060405180910390a15050565b610cb182600080848152602001908152602001600020610d7e90919063ffffffff16565b7faa695d83684b95e18fda4eda7e1794787e74fbc90097a9582f5c41989687883e8282604051808373ffffffffffffffffffffffffffffffffffffffff1673ffffffffffffffffffffffffffffffffffffffff1681526020018281526020019250505060405180910390a15050565b60008260000160008373ffffffffffffffffffffffffffffffffffffffff1673ffffffffffffffffffffffffffffffffffffffff16815260200190815260200160002060006101000a81548160ff0219169083151502179055505050565b60018260000160008373ffffffffffffffffffffffffffffffffffffffff1673ffffffffffffffffffffffffffffffffffffffff16815260200190815260200160002060006101000a81548160ff0219169083151502179055505050565b828054600181600116156101000203166002900490600052602060002090601f016020900481019282601f10610e1d57805160ff1916838001178555610e4b565b82800160010185558215610e4b579182015b82811115610e4a578251825591602001919060010190610e2f565b5b509050610e589190610e5c565b5090565b610e7e91905b80821115610e7a576000816000905550600101610e62565b5090565b9056fea265627a7a72305820f129f0db9904277b9bf071d0a891afc7ab9aabe72616d14a7620fe5bfd25de7764736f6c634300050a0032",
  "source": "pragma solidity 0.5.10;\n\nimport \"./Institutions.sol\";\n\n//  @devManages users allowed to issue certificates from a determined institution\ncontract Issuers is Institutions {\n\n    // @dev Event fired for every new issuer, to be checked to get all issuers\n    event logNewIssuer(address _address, bytes32 _institution, uint256 timestamp);\n\n    // @dev adds new Issuer to valid Institution\n    function addIssuer(address _issuerAddress, bytes32 _institution) public onlyAdmin() {\n        require(institutions[_institution].valid = true, \"Institution inactive or invalid.\");\n        addRole(_issuerAddress, _institution);\n        emit logNewIssuer(_issuerAddress, _institution, now);\n    }\n\n    // @dev revokes access from Issuer\n    function revokeIssuer(address _issuerAddress, bytes32 _institution) public onlyAdmin() {\n        removeRole(_issuerAddress, _institution);\n    }\n}\n",
  "sourcePath": "/Users/polaco/Prog/gbc/smart-contract-certificate/contracts/Issuers.sol",
  "compiler": {
    "name": "solc",
    "version": "0.5.10+commit.5a6ea5b1.Emscripten.clang"
  },
  "schemaVersion": "3.0.11",
  "updatedAt": "2019-06-29T20:30:31.910Z",
  "devdoc": {
    "methods": {
      "checkRole(address,bytes32)": {
        "details": "reverts if addr does not have role",
        "params": {
          "addr": "address",
          "roleName": "the name of the role // reverts"
        }
      },
      "hasRole(address,bytes32)": {
        "details": "determine if addr has role",
        "params": {
          "addr": "address",
          "roleName": "the name of the role"
        },
        "return": "bool"
      }
    }
  },
  "userdoc": {
    "methods": {}
  }
}