{
  "contractName": "Issuers",
  "abi": [
    {
      "constant": true,
      "inputs": [
        {
          "name": "addr",
          "type": "address"
        },
        {
          "name": "roleName",
          "type": "bytes32"
        }
      ],
      "name": "checkRole",
      "outputs": [],
      "payable": false,
      "stateMutability": "view",
      "type": "function"
    },
    {
      "constant": false,
      "inputs": [
        {
          "name": "addr",
          "type": "address"
        },
        {
          "name": "roleName",
          "type": "bytes32"
        }
      ],
      "name": "adminAddRole",
      "outputs": [],
      "payable": false,
      "stateMutability": "nonpayable",
      "type": "function"
    },
    {
      "constant": false,
      "inputs": [
        {
          "name": "_institutionHash",
          "type": "bytes32"
        }
      ],
      "name": "invalidateInstitution",
      "outputs": [],
      "payable": false,
      "stateMutability": "nonpayable",
      "type": "function"
    },
    {
      "constant": false,
      "inputs": [
        {
          "name": "_name",
          "type": "string"
        },
        {
          "name": "_code",
          "type": "string"
        }
      ],
      "name": "addInstitution",
      "outputs": [
        {
          "name": "institutionHash",
          "type": "bytes32"
        }
      ],
      "payable": false,
      "stateMutability": "nonpayable",
      "type": "function"
    },
    {
      "constant": true,
      "inputs": [
        {
          "name": "",
          "type": "bytes32"
        }
      ],
      "name": "institutions",
      "outputs": [
        {
          "name": "code",
          "type": "string"
        },
        {
          "name": "name",
          "type": "string"
        },
        {
          "name": "validFrom",
          "type": "uint256"
        },
        {
          "name": "validTo",
          "type": "uint256"
        },
        {
          "name": "valid",
          "type": "bool"
        }
      ],
      "payable": false,
      "stateMutability": "view",
      "type": "function"
    },
    {
      "constant": true,
      "inputs": [
        {
          "name": "addr",
          "type": "address"
        },
        {
          "name": "roleName",
          "type": "bytes32"
        }
      ],
      "name": "hasRole",
      "outputs": [
        {
          "name": "",
          "type": "bool"
        }
      ],
      "payable": false,
      "stateMutability": "view",
      "type": "function"
    },
    {
      "constant": false,
      "inputs": [
        {
          "name": "addr",
          "type": "address"
        },
        {
          "name": "roleName",
          "type": "bytes32"
        }
      ],
      "name": "adminRemoveRole",
      "outputs": [],
      "payable": false,
      "stateMutability": "nonpayable",
      "type": "function"
    },
    {
      "constant": true,
      "inputs": [],
      "name": "ROLE_ADMIN",
      "outputs": [
        {
          "name": "",
          "type": "bytes32"
        }
      ],
      "payable": false,
      "stateMutability": "view",
      "type": "function"
    },
    {
      "anonymous": false,
      "inputs": [
        {
          "indexed": false,
          "name": "_address",
          "type": "address"
        },
        {
          "indexed": false,
          "name": "institution",
          "type": "bytes32"
        },
        {
          "indexed": false,
          "name": "timestamp",
          "type": "uint256"
        }
      ],
      "name": "logNewInssuer",
      "type": "event"
    },
    {
      "anonymous": false,
      "inputs": [
        {
          "indexed": false,
          "name": "_hash",
          "type": "bytes32"
        },
        {
          "indexed": false,
          "name": "name",
          "type": "string"
        },
        {
          "indexed": false,
          "name": "timestamp",
          "type": "uint256"
        }
      ],
      "name": "logNewInstitution",
      "type": "event"
    },
    {
      "anonymous": false,
      "inputs": [
        {
          "indexed": false,
          "name": "addr",
          "type": "address"
        },
        {
          "indexed": false,
          "name": "roleName",
          "type": "bytes32"
        }
      ],
      "name": "RoleAdded",
      "type": "event"
    },
    {
      "anonymous": false,
      "inputs": [
        {
          "indexed": false,
          "name": "addr",
          "type": "address"
        },
        {
          "indexed": false,
          "name": "roleName",
          "type": "bytes32"
        }
      ],
      "name": "RoleRemoved",
      "type": "event"
    },
    {
      "constant": false,
      "inputs": [
        {
          "name": "_issuerAddress",
          "type": "address"
        },
        {
          "name": "_institution",
          "type": "bytes32"
        }
      ],
      "name": "addIssuer",
      "outputs": [],
      "payable": false,
      "stateMutability": "nonpayable",
      "type": "function"
    },
    {
      "constant": false,
      "inputs": [
        {
          "name": "_issuerAddress",
          "type": "address"
        },
        {
          "name": "_institution",
          "type": "bytes32"
        }
      ],
      "name": "revokeIssuer",
      "outputs": [],
      "payable": false,
      "stateMutability": "nonpayable",
      "type": "function"
    }
  ],
  "bytecode": "0x60806040526100d93330604051602001808273ffffffffffffffffffffffffffffffffffffffff1673ffffffffffffffffffffffffffffffffffffffff166c010000000000000000000000000281526014019150506040516020818303038152906040526040518082805190602001908083835b6020831015156100985780518252602082019150602081019050602083039250610073565b6001836020036101000a03801982511681845116808217855250505050505090500191505060405180910390206100de640100000000026401000000009004565b6101ec565b61011782600080846000191660001916815260200190815260200160002061018e6401000000000261114d179091906401000000009004565b7faa695d83684b95e18fda4eda7e1794787e74fbc90097a9582f5c41989687883e8282604051808373ffffffffffffffffffffffffffffffffffffffff1673ffffffffffffffffffffffffffffffffffffffff16815260200182600019166000191681526020019250505060405180910390a15050565b60018260000160008373ffffffffffffffffffffffffffffffffffffffff1673ffffffffffffffffffffffffffffffffffffffff16815260200190815260200160002060006101000a81548160ff0219169083151502179055505050565b6112da806101fb6000396000f3006080604052600436106100a4576000357c0100000000000000000000000000000000000000000000000000000000900463ffffffff1680632ae8a7e3146100a957806331549d7a146100fa57806369b106331461014b5780636baa657c1461017c5780639582973814610247578063ac4ab3fb14610376578063b126c445146103df578063c69b03a214610430578063d391014b14610481578063e36f1dc2146104b4575b600080fd5b3480156100b557600080fd5b506100f8600480360381019080803573ffffffffffffffffffffffffffffffffffffffff1690602001909291908035600019169060200190929190505050610505565b005b34801561010657600080fd5b50610149600480360381019080803573ffffffffffffffffffffffffffffffffffffffff1690602001909291908035600019169060200190929190505050610535565b005b34801561015757600080fd5b5061017a6004803603810190808035600019169060200190929190505050610609565b005b34801561018857600080fd5b50610229600480360381019080803590602001908201803590602001908080601f0160208091040260200160405190810160405280939291908181526020018383808284378201915050505050509192919290803590602001908201803590602001908080601f016020809104026020016040519081016040528093929190818152602001838380828437820191505050505050919291929050505061072c565b60405180826000191660001916815260200191505060405180910390f35b34801561025357600080fd5b506102766004803603810190808035600019169060200190929190505050610a07565b60405180806020018060200186815260200185815260200184151515158152602001838103835288818151815260200191508051906020019080838360005b838110156102d05780820151818401526020810190506102b5565b50505050905090810190601f1680156102fd5780820380516001836020036101000a031916815260200191505b50838103825287818151815260200191508051906020019080838360005b8381101561033657808201518184015260208101905061031b565b50505050905090810190601f1680156103635780820380516001836020036101000a031916815260200191505b5097505050505050505060405180910390f35b34801561038257600080fd5b506103c5600480360381019080803573ffffffffffffffffffffffffffffffffffffffff1690602001909291908035600019169060200190929190505050610b7a565b604051808215151515815260200191505060405180910390f35b3480156103eb57600080fd5b5061042e600480360381019080803573ffffffffffffffffffffffffffffffffffffffff1690602001909291908035600019169060200190929190505050610bb0565b005b34801561043c57600080fd5b5061047f600480360381019080803573ffffffffffffffffffffffffffffffffffffffff1690602001909291908035600019169060200190929190505050610c84565b005b34801561048d57600080fd5b50610496610d58565b60405180826000191660001916815260200191505060405180910390f35b3480156104c057600080fd5b50610503600480360381019080803573ffffffffffffffffffffffffffffffffffffffff1690602001909291908035600019169060200190929190505050610e18565b005b610531826000808460001916600019168152602001908152602001600020610f9590919063ffffffff16565b5050565b6105fb3330604051602001808273ffffffffffffffffffffffffffffffffffffffff1673ffffffffffffffffffffffffffffffffffffffff166c010000000000000000000000000281526014019150506040516020818303038152906040526040518082805190602001908083835b6020831015156105c957805182526020820191506020810190506020830392506105a4565b6001836020036101000a0380198251168184511680821785525050505050509050019150506040518091039020610505565b6106058282610fae565b5050565b6106cf3330604051602001808273ffffffffffffffffffffffffffffffffffffffff1673ffffffffffffffffffffffffffffffffffffffff166c010000000000000000000000000281526014019150506040516020818303038152906040526040518082805190602001908083835b60208310151561069d5780518252602082019150602081019050602083039250610678565b6001836020036101000a0380198251168184511680821785525050505050509050019150506040518091039020610505565b600060016000836000191660001916815260200190815260200160002060040160006101000a81548160ff021916908315150217905550426001600083600019166000191681526020019081526020016000206003018190555050565b60006107f43330604051602001808273ffffffffffffffffffffffffffffffffffffffff1673ffffffffffffffffffffffffffffffffffffffff166c010000000000000000000000000281526014019150506040516020818303038152906040526040518082805190602001908083835b6020831015156107c2578051825260208201915060208101905060208303925061079d565b6001836020036101000a0380198251168184511680821785525050505050509050019150506040518091039020610505565b43426000366040516020018085815260200184815260200183838082843782019150509450505050506040516020818303038152906040526040518082805190602001908083835b602083101515610861578051825260208201915060208101905060208303925061083c565b6001836020036101000a0380198251168184511680821785525050505050509050019150506040518091039020905060a0604051908101604052808381526020018481526020014281526020016301e13380420181526020016001151581525060016000836000191660001916815260200190815260200160002060008201518160000190805190602001906108f8929190611209565b506020820151816001019080519060200190610915929190611209565b50604082015181600201556060820151816003015560808201518160040160006101000a81548160ff0219169083151502179055509050507f232dd1a7a5f228343d34f4399fecf110aaba37abbf6ee49bbc5c4889136bb33b81844260405180846000191660001916815260200180602001838152602001828103825284818151815260200191508051906020019080838360005b838110156109c55780820151818401526020810190506109aa565b50505050905090810190601f1680156109f25780820380516001836020036101000a031916815260200191505b5094505050505060405180910390a192915050565b6001602052806000526040600020600091509050806000018054600181600116156101000203166002900480601f016020809104026020016040519081016040528092919081815260200182805460018160011615610100020316600290048015610ab35780601f10610a8857610100808354040283529160200191610ab3565b820191906000526020600020905b815481529060010190602001808311610a9657829003601f168201915b505050505090806001018054600181600116156101000203166002900480601f016020809104026020016040519081016040528092919081815260200182805460018160011615610100020316600290048015610b515780601f10610b2657610100808354040283529160200191610b51565b820191906000526020600020905b815481529060010190602001808311610b3457829003601f168201915b5050505050908060020154908060030154908060040160009054906101000a900460ff16905085565b6000610ba883600080856000191660001916815260200190815260200160002061105190919063ffffffff16565b905092915050565b610c763330604051602001808273ffffffffffffffffffffffffffffffffffffffff1673ffffffffffffffffffffffffffffffffffffffff166c010000000000000000000000000281526014019150506040516020818303038152906040526040518082805190602001908083835b602083101515610c445780518252602082019150602081019050602083039250610c1f565b6001836020036101000a0380198251168184511680821785525050505050509050019150506040518091039020610505565b610c8082826110aa565b5050565b610d4a3330604051602001808273ffffffffffffffffffffffffffffffffffffffff1673ffffffffffffffffffffffffffffffffffffffff166c010000000000000000000000000281526014019150506040516020818303038152906040526040518082805190602001908083835b602083101515610d185780518252602082019150602081019050602083039250610cf3565b6001836020036101000a0380198251168184511680821785525050505050509050019150506040518091039020610505565b610d5482826110aa565b5050565b30604051602001808273ffffffffffffffffffffffffffffffffffffffff1673ffffffffffffffffffffffffffffffffffffffff166c010000000000000000000000000281526014019150506040516020818303038152906040526040518082805190602001908083835b602083101515610de85780518252602082019150602081019050602083039250610dc3565b6001836020036101000a038019825116818451168082178552505050505050905001915050604051809103902081565b610ede3330604051602001808273ffffffffffffffffffffffffffffffffffffffff1673ffffffffffffffffffffffffffffffffffffffff166c010000000000000000000000000281526014019150506040516020818303038152906040526040518082805190602001908083835b602083101515610eac5780518252602082019150602081019050602083039250610e87565b6001836020036101000a0380198251168184511680821785525050505050509050019150506040518091039020610505565b6001806000836000191660001916815260200190815260200160002060040160006101000a81548160ff02191690831515021790551515610f87576040517f08c379a00000000000000000000000000000000000000000000000000000000081526004018080602001828103825260208152602001807f496e737469747574696f6e20696e616374697665206f7220696e76616c69642e81525060200191505060405180910390fd5b610f918282610fae565b5050565b610f9f8282611051565b1515610faa57600080fd5b5050565b610fda82600080846000191660001916815260200190815260200160002061114d90919063ffffffff16565b7faa695d83684b95e18fda4eda7e1794787e74fbc90097a9582f5c41989687883e8282604051808373ffffffffffffffffffffffffffffffffffffffff1673ffffffffffffffffffffffffffffffffffffffff16815260200182600019166000191681526020019250505060405180910390a15050565b60008260000160008373ffffffffffffffffffffffffffffffffffffffff1673ffffffffffffffffffffffffffffffffffffffff16815260200190815260200160002060009054906101000a900460ff16905092915050565b6110d68260008084600019166000191681526020019081526020016000206111ab90919063ffffffff16565b7f47808f9766351846ab3f47ddfd0cfc00fd1a4831674f2c872826932b0184d0be8282604051808373ffffffffffffffffffffffffffffffffffffffff1673ffffffffffffffffffffffffffffffffffffffff16815260200182600019166000191681526020019250505060405180910390a15050565b60018260000160008373ffffffffffffffffffffffffffffffffffffffff1673ffffffffffffffffffffffffffffffffffffffff16815260200190815260200160002060006101000a81548160ff0219169083151502179055505050565b60008260000160008373ffffffffffffffffffffffffffffffffffffffff1673ffffffffffffffffffffffffffffffffffffffff16815260200190815260200160002060006101000a81548160ff0219169083151502179055505050565b828054600181600116156101000203166002900490600052602060002090601f016020900481019282601f1061124a57805160ff1916838001178555611278565b82800160010185558215611278579182015b8281111561127757825182559160200191906001019061125c565b5b5090506112859190611289565b5090565b6112ab91905b808211156112a757600081600090555060010161128f565b5090565b905600a165627a7a723058201475a79168572d2a6ab8f6e6fa5f9a66ab6b36271f6b6216cad72ef0c1c5c8690029",
  "source": "pragma solidity 0.4.24;\n\nimport \"./Institutions.sol\";\n\n//  @devManages users allowed to issue certificates from a determined institution\ncontract Issuers is Institutions {\n\n    // @dev Event fired for every new issuer, to be checked to get all issuers\n    event logNewInssuer(address _address, bytes32 institution, uint256 timestamp);\n\n    // @dev adds new Issuer to valid Institution\n    function addIssuer(address _issuerAddress, bytes32 _institution) public onlyAdmin() {\n        require(institutions[_institution].valid = true, \"Institution inactive or invalid.\");\n        addRole(_issuerAddress, _institution);\n    }\n\n    // @dev revokes access from Issuer\n    function revokeIssuer(address _issuerAddress, bytes32 _institution) public onlyAdmin() {\n        removeRole(_issuerAddress, _institution);\n    }\n}\n",
  "sourcePath": "/Users/polaco/Prog/goblockchain/smart-contract-certificate/contracts/Issuers.sol",
  "compiler": {
    "name": "solc",
    "version": "0.4.24+commit.e67f0147.Emscripten.clang"
  },
  "schemaVersion": "2.0.1",
  "updatedAt": "2018-09-14T01:04:35.347Z"
}