{
  "contractName": "RBAC",
  "abi": [
    {
      "constant": true,
      "inputs": [],
      "name": "ROLE_ADMIN",
      "outputs": [
        {
          "name": "",
          "type": "bytes32"
        }
      ],
      "payable": false,
      "stateMutability": "view",
      "type": "function"
    },
    {
      "inputs": [],
      "payable": false,
      "stateMutability": "nonpayable",
      "type": "constructor"
    },
    {
      "anonymous": false,
      "inputs": [
        {
          "indexed": false,
          "name": "addr",
          "type": "address"
        },
        {
          "indexed": false,
          "name": "roleName",
          "type": "bytes32"
        }
      ],
      "name": "RoleAdded",
      "type": "event"
    },
    {
      "anonymous": false,
      "inputs": [
        {
          "indexed": false,
          "name": "addr",
          "type": "address"
        },
        {
          "indexed": false,
          "name": "roleName",
          "type": "bytes32"
        }
      ],
      "name": "RoleRemoved",
      "type": "event"
    },
    {
      "constant": true,
      "inputs": [
        {
          "name": "addr",
          "type": "address"
        },
        {
          "name": "roleName",
          "type": "bytes32"
        }
      ],
      "name": "checkRole",
      "outputs": [],
      "payable": false,
      "stateMutability": "view",
      "type": "function"
    },
    {
      "constant": true,
      "inputs": [
        {
          "name": "addr",
          "type": "address"
        },
        {
          "name": "roleName",
          "type": "bytes32"
        }
      ],
      "name": "hasRole",
      "outputs": [
        {
          "name": "",
          "type": "bool"
        }
      ],
      "payable": false,
      "stateMutability": "view",
      "type": "function"
    }
  ],
  "bytecode": "0x608060405234801561001057600080fd5b50610041337f61646d696e00000000000000000000000000000000000000000000000000000061004660201b60201c565b61013b565b61006e826000808481526020019081526020016000206100dd60201b6102021790919060201c565b7faa695d83684b95e18fda4eda7e1794787e74fbc90097a9582f5c41989687883e8282604051808373ffffffffffffffffffffffffffffffffffffffff1673ffffffffffffffffffffffffffffffffffffffff1681526020018281526020019250505060405180910390a15050565b60018260000160008373ffffffffffffffffffffffffffffffffffffffff1673ffffffffffffffffffffffffffffffffffffffff16815260200190815260200160002060006101000a81548160ff0219169083151502179055505050565b6102958061014a6000396000f3fe608060405234801561001057600080fd5b50600436106100415760003560e01c80632ae8a7e314610046578063ac4ab3fb14610094578063d391014b146100fa575b600080fd5b6100926004803603604081101561005c57600080fd5b81019080803573ffffffffffffffffffffffffffffffffffffffff16906020019092919080359060200190929190505050610118565b005b6100e0600480360360408110156100aa57600080fd5b81019080803573ffffffffffffffffffffffffffffffffffffffff16906020019092919080359060200190929190505050610140565b604051808215151515815260200191505060405180910390f35b61010261016e565b6040518082815260200191505060405180910390f35b61013c8260008084815260200190815260200160002061019290919063ffffffff16565b5050565b6000610166836000808581526020019081526020016000206101a990919063ffffffff16565b905092915050565b7f61646d696e00000000000000000000000000000000000000000000000000000081565b61019c82826101a9565b6101a557600080fd5b5050565b60008260000160008373ffffffffffffffffffffffffffffffffffffffff1673ffffffffffffffffffffffffffffffffffffffff16815260200190815260200160002060009054906101000a900460ff16905092915050565b60018260000160008373ffffffffffffffffffffffffffffffffffffffff1673ffffffffffffffffffffffffffffffffffffffff16815260200190815260200160002060006101000a81548160ff021916908315150217905550505056fea265627a7a72305820d7fc54051cea2ae97153540fe760bc50131d473d3e65f71f5bec1b5d4d01b21b64736f6c634300050a0032",
  "source": "pragma solidity 0.5.10;\n\nimport \"./Roles.sol\";\n\n\n/**\n * @title RBAC (Role-Based Access Control)\n * @author Matt Condon (@Shrugs)\n * @dev Stores and provides setters and getters for roles and addresses.\n *      Supports unlimited numbers of roles and addresses.\n *      See //contracts/mocks/RBACMock.sol for an example of usage.\n * This RBAC method uses strings to key roles. It may be beneficial\n *  for you to write your own implementation of this interface using Enums or similar.\n * It's also recommended that you define constants in the contract, like ROLE_ADMIN below,\n *  to avoid typos.\n */\ncontract RBAC {\n  using Roles for Roles.Role;\n\n  mapping (bytes32 => Roles.Role) private roles;\n\n  event RoleAdded(address addr, bytes32 roleName);\n  event RoleRemoved(address addr, bytes32 roleName);\n\n  /**\n   * A constant role name for indicating admins.\n   */\n  bytes32 public constant ROLE_ADMIN = bytes32(\"admin\");\n\n  /**\n   * @dev constructor. Sets msg.sender as admin by default\n   */\n  constructor()\n    public\n  {\n    addRole(msg.sender, ROLE_ADMIN);\n  }\n\n  /**\n   * @dev reverts if addr does not have role\n   * @param addr address\n   * @param roleName the name of the role\n   * // reverts\n   */\n  function checkRole(address addr, bytes32 roleName)\n    view\n    public\n  {\n    roles[roleName].check(addr);\n  }\n\n  /**\n   * @dev determine if addr has role\n   * @param addr address\n   * @param roleName the name of the role\n   * @return bool\n   */\n  function hasRole(address addr, bytes32 roleName)\n    view\n    public\n    returns (bool)\n  {\n    return roles[roleName].has(addr);\n  }\n\n  /**\n   * @dev add a role to an address\n   * @param addr address\n   * @param roleName the name of the role\n   */\n  function addRole(address addr, bytes32 roleName)\n    internal\n  {\n    roles[roleName].add(addr);\n    emit RoleAdded(addr, roleName);\n  }\n\n  /**\n   * @dev remove a role from an address\n   * @param addr address\n   * @param roleName the name of the role\n   */\n  function removeRole(address addr, bytes32 roleName)\n    internal\n  {\n    roles[roleName].remove(addr);\n    emit RoleRemoved(addr, roleName);\n  }\n\n  /**\n   * @dev modifier to scope access to a single role (uses msg.sender as addr)\n   * @param roleName the name of the role\n   * // reverts\n   */\n  modifier onlyRole(bytes32 roleName)\n  {\n    checkRole(msg.sender, roleName);\n    _;\n  }\n\n  /**\n   * @dev modifier to scope access to admins\n   * // reverts\n   */\n  modifier onlyAdmin()\n  {\n    checkRole(msg.sender, ROLE_ADMIN);\n    _;\n  }\n}\n",
  "sourcePath": "/Users/polaco/Prog/gbc/smart-contract-certificate/contracts/RBAC.sol",
  "compiler": {
    "name": "solc",
    "version": "0.5.10+commit.5a6ea5b1.Emscripten.clang"
  },
  "schemaVersion": "3.0.11",
  "updatedAt": "2019-06-29T19:23:03.265Z",
  "devdoc": {
    "author": "Matt Condon (@Shrugs)",
    "details": "Stores and provides setters and getters for roles and addresses.     Supports unlimited numbers of roles and addresses.     See //contracts/mocks/RBACMock.sol for an example of usage. This RBAC method uses strings to key roles. It may be beneficial for you to write your own implementation of this interface using Enums or similar. It's also recommended that you define constants in the contract, like ROLE_ADMIN below, to avoid typos.",
    "methods": {
      "checkRole(address,bytes32)": {
        "details": "reverts if addr does not have role",
        "params": {
          "addr": "address",
          "roleName": "the name of the role // reverts"
        }
      },
      "constructor": {
        "details": "constructor. Sets msg.sender as admin by default"
      },
      "hasRole(address,bytes32)": {
        "details": "determine if addr has role",
        "params": {
          "addr": "address",
          "roleName": "the name of the role"
        },
        "return": "bool"
      }
    },
    "title": "RBAC (Role-Based Access Control)"
  },
  "userdoc": {
    "methods": {}
  }
}