{
  "contractName": "RBAC",
  "abi": [
    {
      "constant": true,
      "inputs": [],
      "name": "ROLE_ADMIN",
      "outputs": [
        {
          "name": "",
          "type": "bytes32"
        }
      ],
      "payable": false,
      "stateMutability": "view",
      "type": "function"
    },
    {
      "inputs": [],
      "payable": false,
      "stateMutability": "nonpayable",
      "type": "constructor"
    },
    {
      "anonymous": false,
      "inputs": [
        {
          "indexed": false,
          "name": "addr",
          "type": "address"
        },
        {
          "indexed": false,
          "name": "roleName",
          "type": "bytes32"
        }
      ],
      "name": "RoleAdded",
      "type": "event"
    },
    {
      "anonymous": false,
      "inputs": [
        {
          "indexed": false,
          "name": "addr",
          "type": "address"
        },
        {
          "indexed": false,
          "name": "roleName",
          "type": "bytes32"
        }
      ],
      "name": "RoleRemoved",
      "type": "event"
    },
    {
      "constant": true,
      "inputs": [
        {
          "name": "addr",
          "type": "address"
        },
        {
          "name": "roleName",
          "type": "bytes32"
        }
      ],
      "name": "checkRole",
      "outputs": [],
      "payable": false,
      "stateMutability": "view",
      "type": "function"
    },
    {
      "constant": true,
      "inputs": [
        {
          "name": "addr",
          "type": "address"
        },
        {
          "name": "roleName",
          "type": "bytes32"
        }
      ],
      "name": "hasRole",
      "outputs": [
        {
          "name": "",
          "type": "bool"
        }
      ],
      "payable": false,
      "stateMutability": "view",
      "type": "function"
    },
    {
      "constant": false,
      "inputs": [
        {
          "name": "addr",
          "type": "address"
        },
        {
          "name": "roleName",
          "type": "bytes32"
        }
      ],
      "name": "adminAddRole",
      "outputs": [],
      "payable": false,
      "stateMutability": "nonpayable",
      "type": "function"
    },
    {
      "constant": false,
      "inputs": [
        {
          "name": "addr",
          "type": "address"
        },
        {
          "name": "roleName",
          "type": "bytes32"
        }
      ],
      "name": "adminRemoveRole",
      "outputs": [],
      "payable": false,
      "stateMutability": "nonpayable",
      "type": "function"
    }
  ],
  "bytecode": "0x6c01000000000000000000000000300260a09081526014608081815260b46040819052909290918291908083835b6020831061004c5780518252601f19909201916020918201910161002d565b5181516020939093036101000a600019018019909116921691909117905260405192018290039091206001555034915050801561008857600080fd5b506100a4336001546100a9640100000000026401000000009004565b61013b565b60008181526020819052604090206100ce908364010000000061031261011682021704565b60408051600160a060020a03841681526020810183905281517faa695d83684b95e18fda4eda7e1794787e74fbc90097a9582f5c41989687883e929181900390910190a15050565b600160a060020a0316600090815260209190915260409020805460ff19166001179055565b61039f8061014a6000396000f30060806040526004361061006c5763ffffffff7c01000000000000000000000000000000000000000000000000000000006000350416632ae8a7e3811461007157806331549d7a146100a4578063ac4ab3fb146100d5578063c69b03a21461011a578063d391014b1461014b575b600080fd5b34801561007d57600080fd5b506100a273ffffffffffffffffffffffffffffffffffffffff60043516602435610172565b005b3480156100b057600080fd5b506100a273ffffffffffffffffffffffffffffffffffffffff60043516602435610194565b3480156100e157600080fd5b5061010673ffffffffffffffffffffffffffffffffffffffff600435166024356101aa565b604080519115158252519081900360200190f35b34801561012657600080fd5b506100a273ffffffffffffffffffffffffffffffffffffffff600435166024356101cf565b34801561015757600080fd5b506101606101e5565b60408051918252519081900360200190f35b6000818152602081905260409020610190908363ffffffff6101eb16565b5050565b6101a033600154610172565b6101908282610200565b60008181526020819052604081206101c8908463ffffffff61027316565b9392505050565b6101db33600154610172565b610190828261029f565b60015481565b6101f58282610273565b151561019057600080fd5b600081815260208190526040902061021e908363ffffffff61031216565b6040805173ffffffffffffffffffffffffffffffffffffffff841681526020810183905281517faa695d83684b95e18fda4eda7e1794787e74fbc90097a9582f5c41989687883e929181900390910190a15050565b73ffffffffffffffffffffffffffffffffffffffff166000908152602091909152604090205460ff1690565b60008181526020819052604090206102bd908363ffffffff61034416565b6040805173ffffffffffffffffffffffffffffffffffffffff841681526020810183905281517f47808f9766351846ab3f47ddfd0cfc00fd1a4831674f2c872826932b0184d0be929181900390910190a15050565b73ffffffffffffffffffffffffffffffffffffffff16600090815260209190915260409020805460ff19166001179055565b73ffffffffffffffffffffffffffffffffffffffff16600090815260209190915260409020805460ff191690555600a165627a7a7230582063ce497756f752677d9b3ca5ac3da91f1f056e1b5dd1d84782a3826895a897780029",
  "source": "pragma solidity 0.4.24;\n\nimport \"./Roles.sol\";\n\n\n/**\n * @title RBAC (Role-Based Access Control)\n * @author Matt Condon (@Shrugs)\n * @dev Stores and provides setters and getters for roles and addresses.\n *      Supports unlimited numbers of roles and addresses.\n *      See //contracts/mocks/RBACMock.sol for an example of usage.\n * This RBAC method uses strings to key roles. It may be beneficial\n *  for you to write your own implementation of this interface using Enums or similar.\n * It's also recommended that you define constants in the contract, like ROLE_ADMIN below,\n *  to avoid typos.\n */\ncontract RBAC {\n  using Roles for Roles.Role;\n\n  mapping (bytes32 => Roles.Role) private roles;\n\n  event RoleAdded(address addr, bytes32 roleName);\n  event RoleRemoved(address addr, bytes32 roleName);\n\n  /**\n   * A constant role name for indicating admins.\n   */\n  bytes32 public ROLE_ADMIN = keccak256(abi.encodePacked(address(this)));\n\n  /**\n   * @dev constructor. Sets msg.sender as admin by default\n   */\n  constructor()\n    public\n  {\n    addRole(msg.sender, ROLE_ADMIN);\n  }\n\n  /**\n   * @dev reverts if addr does not have role\n   * @param addr address\n   * @param roleName the name of the role\n   * // reverts\n   */\n  function checkRole(address addr, bytes32 roleName)\n    view\n    public\n  {\n    roles[roleName].check(addr);\n  }\n\n  /**\n   * @dev determine if addr has role\n   * @param addr address\n   * @param roleName the name of the role\n   * @return bool\n   */\n  function hasRole(address addr, bytes32 roleName)\n    view\n    public\n    returns (bool)\n  {\n    return roles[roleName].has(addr);\n  }\n\n  /**\n   * @dev add a role to an address\n   * @param addr address\n   * @param roleName the name of the role\n   */\n  function adminAddRole(address addr, bytes32 roleName)\n    onlyAdmin\n    public\n  {\n    addRole(addr, roleName);\n  }\n\n  /**\n   * @dev remove a role from an address\n   * @param addr address\n   * @param roleName the name of the role\n   */\n  function adminRemoveRole(address addr, bytes32 roleName)\n    onlyAdmin\n    public\n  {\n    removeRole(addr, roleName);\n  }\n\n  /**\n   * @dev add a role to an address\n   * @param addr address\n   * @param roleName the name of the role\n   */\n  function addRole(address addr, bytes32 roleName)\n    internal\n  {\n    roles[roleName].add(addr);\n    emit RoleAdded(addr, roleName);\n  }\n\n  /**\n   * @dev remove a role from an address\n   * @param addr address\n   * @param roleName the name of the role\n   */\n  function removeRole(address addr, bytes32 roleName)\n    internal\n  {\n    roles[roleName].remove(addr);\n    emit RoleRemoved(addr, roleName);\n  }\n\n  /**\n   * @dev modifier to scope access to a single role (uses msg.sender as addr)\n   * @param roleName the name of the role\n   * // reverts\n   */\n  modifier onlyRole(bytes32 roleName)\n  {\n    checkRole(msg.sender, roleName);\n    _;\n  }\n\n  /**\n   * @dev modifier to scope access to admins\n   * // reverts\n   */\n  modifier onlyAdmin()\n  {\n    checkRole(msg.sender, ROLE_ADMIN);\n    _;\n  }\n}\n",
  "sourcePath": "/Users/polaco/Prog/goblockchain/smart-contract-certificate/contracts/RBAC.sol",
  "compiler": {
    "name": "solc",
    "version": "0.4.24+commit.e67f0147.Emscripten.clang"
  },
  "schemaVersion": "2.0.1",
  "updatedAt": "2019-01-12T19:37:15.434Z"
}