{
  "contractName": "RBAC",
  "abi": [
    {
      "constant": true,
      "inputs": [],
      "name": "ROLE_ADMIN",
      "outputs": [
        {
          "name": "",
          "type": "string"
        }
      ],
      "payable": false,
      "stateMutability": "view",
      "type": "function"
    },
    {
      "inputs": [],
      "payable": false,
      "stateMutability": "nonpayable",
      "type": "constructor"
    },
    {
      "anonymous": false,
      "inputs": [
        {
          "indexed": false,
          "name": "addr",
          "type": "address"
        },
        {
          "indexed": false,
          "name": "roleName",
          "type": "string"
        }
      ],
      "name": "RoleAdded",
      "type": "event"
    },
    {
      "anonymous": false,
      "inputs": [
        {
          "indexed": false,
          "name": "addr",
          "type": "address"
        },
        {
          "indexed": false,
          "name": "roleName",
          "type": "string"
        }
      ],
      "name": "RoleRemoved",
      "type": "event"
    },
    {
      "constant": true,
      "inputs": [
        {
          "name": "addr",
          "type": "address"
        },
        {
          "name": "roleName",
          "type": "string"
        }
      ],
      "name": "checkRole",
      "outputs": [],
      "payable": false,
      "stateMutability": "view",
      "type": "function"
    },
    {
      "constant": true,
      "inputs": [
        {
          "name": "addr",
          "type": "address"
        },
        {
          "name": "roleName",
          "type": "string"
        }
      ],
      "name": "hasRole",
      "outputs": [
        {
          "name": "",
          "type": "bool"
        }
      ],
      "payable": false,
      "stateMutability": "view",
      "type": "function"
    },
    {
      "constant": false,
      "inputs": [
        {
          "name": "addr",
          "type": "address"
        },
        {
          "name": "roleName",
          "type": "string"
        }
      ],
      "name": "adminAddRole",
      "outputs": [],
      "payable": false,
      "stateMutability": "nonpayable",
      "type": "function"
    },
    {
      "constant": false,
      "inputs": [
        {
          "name": "addr",
          "type": "address"
        },
        {
          "name": "roleName",
          "type": "string"
        }
      ],
      "name": "adminRemoveRole",
      "outputs": [],
      "payable": false,
      "stateMutability": "nonpayable",
      "type": "function"
    }
  ],
  "bytecode": "0x6060604052341561000f57600080fd5b610061336040805190810160405280600581526020017f61646d696e000000000000000000000000000000000000000000000000000000815250610066640100000000026106a6176401000000009004565b610222565b6100f0826000836040518082805190602001908083835b6020831015156100a2578051825260208201915060208101905060208303925061007d565b6001836020036101000a03801982511681845116808217855250505050505090500191505090815260200160405180910390206101c464010000000002610855179091906401000000009004565b7fbfec83d64eaa953f2708271a023ab9ee82057f8f3578d548c1a4ba0b5b7004898282604051808373ffffffffffffffffffffffffffffffffffffffff1673ffffffffffffffffffffffffffffffffffffffff16815260200180602001828103825283818151815260200191508051906020019080838360005b8381101561018557808201518184015260208101905061016a565b50505050905090810190601f1680156101b25780820380516001836020036101000a031916815260200191505b50935050505060405180910390a15050565b60018260000160008373ffffffffffffffffffffffffffffffffffffffff1673ffffffffffffffffffffffffffffffffffffffff16815260200190815260200160002060006101000a81548160ff0219169083151502179055505050565b6108df806102316000396000f30060606040526004361061006d576000357c0100000000000000000000000000000000000000000000000000000000900463ffffffff1680630988ca8c14610072578063217fe6c6146100ee57806388cee87e14610182578063b25fa92c146101fe578063d391014b1461027a575b600080fd5b341561007d57600080fd5b6100ec600480803573ffffffffffffffffffffffffffffffffffffffff1690602001909190803590602001908201803590602001908080601f01602080910402602001604051908101604052809392919081815260200183838082843782019150505050505091905050610308565b005b34156100f957600080fd5b610168600480803573ffffffffffffffffffffffffffffffffffffffff1690602001909190803590602001908201803590602001908080601f01602080910402602001604051908101604052809392919081815260200183838082843782019150505050505091905050610389565b604051808215151515815260200191505060405180910390f35b341561018d57600080fd5b6101fc600480803573ffffffffffffffffffffffffffffffffffffffff1690602001909190803590602001908201803590602001908080601f01602080910402602001604051908101604052809392919081815260200183838082843782019150505050505091905050610410565b005b341561020957600080fd5b610278600480803573ffffffffffffffffffffffffffffffffffffffff1690602001909190803590602001908201803590602001908080601f0160208091040260200160405190810160405280939291908181526020018383808284378201915050505050509190505061045d565b005b341561028557600080fd5b61028d6104aa565b6040518080602001828103825283818151815260200191508051906020019080838360005b838110156102cd5780820151818401526020810190506102b2565b50505050905090810190601f1680156102fa5780820380516001836020036101000a031916815260200191505b509250505060405180910390f35b610385826000836040518082805190602001908083835b602083101515610344578051825260208201915060208101905060208303925061031f565b6001836020036101000a03801982511681845116808217855250505050505090500191505090815260200160405180910390206104e390919063ffffffff16565b5050565b6000610408836000846040518082805190602001908083835b6020831015156103c757805182526020820191506020810190506020830392506103a2565b6001836020036101000a03801982511681845116808217855250505050505090500191505090815260200160405180910390206104fc90919063ffffffff16565b905092915050565b61044f336040805190810160405280600581526020017f61646d696e000000000000000000000000000000000000000000000000000000815250610308565b6104598282610555565b5050565b61049c336040805190810160405280600581526020017f61646d696e000000000000000000000000000000000000000000000000000000815250610308565b6104a682826106a6565b5050565b6040805190810160405280600581526020017f61646d696e00000000000000000000000000000000000000000000000000000081525081565b6104ed82826104fc565b15156104f857600080fd5b5050565b60008260000160008373ffffffffffffffffffffffffffffffffffffffff1673ffffffffffffffffffffffffffffffffffffffff16815260200190815260200160002060009054906101000a900460ff16905092915050565b6105d2826000836040518082805190602001908083835b602083101515610591578051825260208201915060208101905060208303925061056c565b6001836020036101000a03801982511681845116808217855250505050505090500191505090815260200160405180910390206107f790919063ffffffff16565b7fd211483f91fc6eff862467f8de606587a30c8fc9981056f051b897a418df803a8282604051808373ffffffffffffffffffffffffffffffffffffffff1673ffffffffffffffffffffffffffffffffffffffff16815260200180602001828103825283818151815260200191508051906020019080838360005b8381101561066757808201518184015260208101905061064c565b50505050905090810190601f1680156106945780820380516001836020036101000a031916815260200191505b50935050505060405180910390a15050565b610723826000836040518082805190602001908083835b6020831015156106e257805182526020820191506020810190506020830392506106bd565b6001836020036101000a038019825116818451168082178552505050505050905001915050908152602001604051809103902061085590919063ffffffff16565b7fbfec83d64eaa953f2708271a023ab9ee82057f8f3578d548c1a4ba0b5b7004898282604051808373ffffffffffffffffffffffffffffffffffffffff1673ffffffffffffffffffffffffffffffffffffffff16815260200180602001828103825283818151815260200191508051906020019080838360005b838110156107b857808201518184015260208101905061079d565b50505050905090810190601f1680156107e55780820380516001836020036101000a031916815260200191505b50935050505060405180910390a15050565b60008260000160008373ffffffffffffffffffffffffffffffffffffffff1673ffffffffffffffffffffffffffffffffffffffff16815260200190815260200160002060006101000a81548160ff0219169083151502179055505050565b60018260000160008373ffffffffffffffffffffffffffffffffffffffff1673ffffffffffffffffffffffffffffffffffffffff16815260200190815260200160002060006101000a81548160ff02191690831515021790555050505600a165627a7a7230582069f2893126aa67c172294b1963afd0c04a9f26825112049535752b341f3402750029",
  "source": "pragma solidity ^0.4.18;\n\nimport \"./Roles.sol\";\n\n\n/**\n * @title RBAC (Role-Based Access Control)\n * @author Matt Condon (@Shrugs)\n * @dev Stores and provides setters and getters for roles and addresses.\n *      Supports unlimited numbers of roles and addresses.\n *      See //contracts/mocks/RBACMock.sol for an example of usage.\n * This RBAC method uses strings to key roles. It may be beneficial\n *  for you to write your own implementation of this interface using Enums or similar.\n * It's also recommended that you define constants in the contract, like ROLE_ADMIN below,\n *  to avoid typos.\n */\ncontract RBAC {\n  using Roles for Roles.Role;\n\n  mapping (string => Roles.Role) private roles;\n\n  event RoleAdded(address addr, string roleName);\n  event RoleRemoved(address addr, string roleName);\n\n  /**\n   * A constant role name for indicating admins.\n   */\n  string public constant ROLE_ADMIN = \"admin\";\n\n  /**\n   * @dev constructor. Sets msg.sender as admin by default\n   */\n  function RBAC()\n    public\n  {\n    addRole(msg.sender, ROLE_ADMIN);\n  }\n\n  /**\n   * @dev reverts if addr does not have role\n   * @param addr address\n   * @param roleName the name of the role\n   * // reverts\n   */\n  function checkRole(address addr, string roleName)\n    view\n    public\n  {\n    roles[roleName].check(addr);\n  }\n\n  /**\n   * @dev determine if addr has role\n   * @param addr address\n   * @param roleName the name of the role\n   * @return bool\n   */\n  function hasRole(address addr, string roleName)\n    view\n    public\n    returns (bool)\n  {\n    return roles[roleName].has(addr);\n  }\n\n  /**\n   * @dev add a role to an address\n   * @param addr address\n   * @param roleName the name of the role\n   */\n  function adminAddRole(address addr, string roleName)\n    onlyAdmin\n    public\n  {\n    addRole(addr, roleName);\n  }\n\n  /**\n   * @dev remove a role from an address\n   * @param addr address\n   * @param roleName the name of the role\n   */\n  function adminRemoveRole(address addr, string roleName)\n    onlyAdmin\n    public\n  {\n    removeRole(addr, roleName);\n  }\n\n  /**\n   * @dev add a role to an address\n   * @param addr address\n   * @param roleName the name of the role\n   */\n  function addRole(address addr, string roleName)\n    internal\n  {\n    roles[roleName].add(addr);\n    RoleAdded(addr, roleName);\n  }\n\n  /**\n   * @dev remove a role from an address\n   * @param addr address\n   * @param roleName the name of the role\n   */\n  function removeRole(address addr, string roleName)\n    internal\n  {\n    roles[roleName].remove(addr);\n    RoleRemoved(addr, roleName);\n  }\n\n  /**\n   * @dev modifier to scope access to a single role (uses msg.sender as addr)\n   * @param roleName the name of the role\n   * // reverts\n   */\n  modifier onlyRole(string roleName)\n  {\n    checkRole(msg.sender, roleName);\n    _;\n  }\n\n  /**\n   * @dev modifier to scope access to admins\n   * // reverts\n   */\n  modifier onlyAdmin()\n  {\n    checkRole(msg.sender, ROLE_ADMIN);\n    _;\n  }\n\n  /**\n   * @dev modifier to scope access to a set of roles (uses msg.sender as addr)\n   * @param roleNames the names of the roles to scope access to\n   * // reverts\n   *\n   * @TODO - when solidity supports dynamic arrays as arguments to modifiers, provide this\n   *  see: https://github.com/ethereum/solidity/issues/2467\n   */\n  // modifier onlyRoles(string[] roleNames) {\n  //     bool hasAnyRole = false;\n  //     for (uint8 i = 0; i < roleNames.length; i++) {\n  //         if (hasRole(msg.sender, roleNames[i])) {\n  //             hasAnyRole = true;\n  //             break;\n  //         }\n  //     }\n\n  //     require(hasAnyRole);\n\n  //     _;\n  // }\n}\n",
  "sourcePath": "/Users/polaco/Prog/goblockchain/smart-contract-certificate/node_modules/zeppelin-solidity/contracts/ownership/rbac/RBAC.sol",
  "compiler": {
    "name": "solc",
    "version": "0.4.19+commit.c4cbbb05.Emscripten.clang"
  },
  "schemaVersion": "2.0.0",
  "updatedAt": "2018-04-06T03:36:01.168Z"
}